:020000040800F2
:1000000000A00020C1000108290101082901010800
:100010002901010829010108290101080000000047
:10002000000000000000000000000000290101089D
:10003000290101080000000029010108B957000842
:1000400029010108290101082901010829010108E4
:1000500029010108290101082901010829010108D4
:1000600029010108C95700082901010829010108CF
:10007000290101082901010849890008290101080D
:1000800029010108290101082901010829010108A4
:100090002901010829010108290101082901010894
:1000A000259F0008799F0008159F000837880008E1
:1000B000699F0008599F0008499F0008290101080D
:1000C0002901010829010108290101082901010864
:1000D000290101084189000839890008290101081E
:1000E000CD5700082901010829010108290101084B
:1000F000459F000829010108359F000829010108D2
:1001000000000000000000000000000029010108BC
:100110002901010829010108290101082901010813
:100120002901010829010108290101082901010803
:100130002901010829010108000000000000000059
:100140002901010829010108290101080000000016
:10015000000000000000000000000000000000009F
:100160000000000000000000290101082901010829
:10017000290101080000000000000000000000004C
:08018000000000002901010844
:1001C0002DE9F04FB1B009F02DFA18B909F090FB04
:1001D0000BF074F8BF4DC04C09F04AFA2B7843F08D
:1001E00001032B70BD4B4FF47002C3F8882000232D
:1001F000089309930A93236843F4803323602368A8
:1002000003F400330993089B01330893099B1BB93E
:10021000089BB3F5A04FF2D1236813F4003318BF45
:1002200001230993099B012B40F0798202230A9351
:10023000AB4B12221A606368636063686360636833
:1002400043F480636360636823F47C1363606368D2
:1002500043F4E8136360236843F0807323602368EA
:100260009901FCD5636823F003036360636843F07E
:1002700002036360636803F00C03082BFAD10A9B46
:10028000964F6B60974BFB60636A636ADFF89C82F2
:10029000DFF89CB2DFF89CA243F08073636263696D
:1002A00043F4FC0330AE636103238DF8723041F6F2
:1002B000FF7326F8503D4FF09040314606F0FCF8B1
:1002C0004FF6FF7331468848ADF8703006F0F4F809
:1002D0003146404606F0F0F83146844806F0ECF826
:1002E0003146834806F0E8F83146824806F0E4F8E3
:1002F000304604F0C5FD1C9B7F4AB3FBF2F37F4AF6
:10030000DFF834E213607E4B7E4A4FF0000CC3F8F6
:1003100000C0C3F804C07C4B5A60F02287F8232049
:100320000722C3F808C01A60DBF80830CAF80030AA
:10033000BEE80F0037460FC7BEE80F000FC79EE8A4
:100340000F0087E80F00636943F40023636163696A
:1003500043F400236361636943F4002363616369C9
:1003600043F4003363614FF0904310221A8520223A
:100370001A8540221A854FF40043C8F818304FF40C
:100380008043C8F818304FF40053C8F81830674657
:10039000CDF80CA0391DF0593144083706F08CF81F
:1003A000302FF7D1039B594AD3F80090584BDFF810
:1003B0008C811A60574B04221A7000213A4640463D
:1003C00011F014FC0127002188F8001088F818109B
:1003D00088F8241088F80C70142217A811F006FC75
:1003E00019F4802F08BF4C4BDFF8FC8008BF1F704A
:1003F0002B784A4FDFF8489143F004032B7006F046
:100400009BF9474B1F60636943F480236361E36991
:1004100043F40013E361236B23F010032363236B86
:1004200043F010032363D8F8243023F00F03C8F8F7
:100430002430D8F8243043F00403C8F82430D8F826
:10044000243023F0F003C8F82430D8F8243043F0E7
:100450004003C8F8243002234FF0000A4FF48072A2
:100460008DF87430049331464FF0030340468DF805
:1004700075301C928DF876A08DF877A00AF0BCFD3F
:100480004FF40072314640461C920AF0B5FD3A68BE
:10049000039B22F001023A603968224A0A403A601E
:1004A000214A3A613A6842F001023A60C7F808A06E
:1004B000C7F80CA0C7F808A0BA6842F40042BA60B6
:1004C0003A683A607A6822F0784222F400427A6010
:1004D0003A6837E0880700200010024000ED00E095
:1004E000002002400005FA0500040048000C004806
:1004F000001000480014004840420F000412002081
:10050000A81100203F19010010E000E00E0C0020AF
:10051000141F0020380A0020640700200054004007
:10052000401A0020FFE0CF007A25E00000080048D4
:10053000780A0020D40F0020401E01083C0A002049
:100540001B1E002042F001023A601F681022514633
:10055000484611F04BFB049B8DF851304FF6FF726B
:100560004FF0030307F0020713928DF852A08DF8A5
:1005700053A08DF8503087B130A9012741F8747D20
:1005800040460AF039FD0C2389F80030072389F82A
:1005900001A089F8033089F802704FF4D87004F094
:1005A0005FFC63695F4843F0805343F0020363617B
:1005B00004F056FC636943F0005343F002036361A7
:1005C000594C20460AF02FFC30460AF001FC4FF44B
:1005D0008072564B22924FF480621C932392544BAC
:1005E0001D93202200232046249231464FF40052CE
:1005F0001E932093219325922693ADF87C700AF0E8
:10060000F4FB236843F0010323604A4CA36823F002
:100610004053A360A36843F08053A3600A2005F011
:1006200062F8A36823F08043A360A368A360A36873
:1006300043F00043A360A368002BFCDBA3683E4AA1
:10064000DFF8F08023F04053A360A36843F0005329
:10065000A3609168394B0B4043F468339360E268C0
:10066000374B134043F40053E360236B013F23F007
:100670000F031F4327630122002409EB0403997829
:1006800041B1571CFFB2DB7819F8041040460AF05C
:1006900057FC3A460434102CEFD1264B9A6842F0AE
:1006A00001029A601A68D207FCD5DA6822F00202C9
:1006B000DA60DA6842F00202DA60DA6842F00102D7
:1006C000DA609A6842F004029A60BBF9E830002BC5
:1006D0003ED007EE903ADFED1B6ABBF9EA301A4ACA
:1006E000F8EEE77A07EE103A67EEA67ABBF9EC303F
:1006F000CDED1C7A07EE903AB8EEC77AF8EEE77ABD
:10070000002127EE267A67EEA67A117030460F494F
:100710008DED1D7ACDED1E7A0AF02EFD20E001232D
:100720000A93ACE500360010580402404004005023
:100730002C1E00200004005000070050E010FCFFB9
:1007400007C0FFFD35FA8E3C4800002068110020EC
:10075000BBF9EA20002ABCD1BBF9EC20002AB8D1B1
:10076000DFF85083BBF8F030DFF84CA3059300248A
:100770009BF8EF30C8F8004010222146C8F804402A
:10078000C8F80840BB4804932C729BF8F77011F02E
:100790002DFAB94BA5F809402320CAF80040CAF841
:1007A0000440CAF808401C6004F09DFF0BAA012118
:1007B000752008F0EDFBD146F0B1B04BCAF804301B
:1007C000AF4BCAF808300FAA4323012120468AF80C
:1007D000003008F0DDFB9DF83C3003F07E038DF81F
:1007E0003C30002800F0EE80682B40F0EB800123C5
:1007F0006B721D238AF800306A7AA24B069300219F
:10080000042A197040F0F5879A4B9F4A9F4C1A6052
:100810009F4A5A609F4ADA602268079142F00100BD
:1008200020609A464FF0010940F2022040F2FD1E7E
:10083000049B0A2B28BF002309FA03F111EA000CDC
:1008400040F0DD8711EA0E0F00F0D987924B83F854
:1008500000C0924BC8F8003042F00302904BC8F839
:100860000430226023689B0702D5D8F800309847EF
:10087000DAF800300598DFF8448298474FF0000915
:10088000CA4688F800A01FB1BB1E022B00F2DB8015
:100890003346012200210C208DF8709008F0FEFAFA
:1008A000002800F0D0809DF87030482B40F0CB80BD
:1008B0007C4B7D4A1A607D4A5A60062388F80030D6
:1008C000236843F0080323609BF8E4300BB1069AD9
:1008D00013709BF8E5300BB16F4A13709BF8E6304C
:1008E0000BB188F800309BF8F830042B00F2B2808E
:1008F000012404FA03F212F016085ED112F0090F77
:1009000000F0A6800A2004F0EEFE13AB2246A021E0
:10091000772008F0C3FA00284FD022461E21772006
:1009200008F0B8FB4FF42F60614F04F0D1FEC146D0
:100930003C46A8F1600133460222C9B277208DF807
:1009400070908DF8719008F0A9FA9DF870209DF8CC
:10095000713043EA022328F8073008F10208B8F1A1
:10096000100FE6D1FA89002302F00F0602F47F424D
:10097000FA8119460127481034F81000002818BFE2
:10098000002711F0010F1ABFC0B2434083EA1023C1
:10099000082013F4004F18BF83F4C05301384FEA06
:1009A0004303F6D101311029E5D13243E28127B961
:1009B000C3F303339E4200F02D872B7A43F02003CC
:1009C0002B724CE09DF82C3003F07E03682B8DF8E1
:1009D0002C3033D1022306216B723246D9F8043011
:1009E000084698479DF875309DF873209B0052008B
:1009F00002F0020203F0040313439DF8712002F099
:100A000001021343DAB25BB1012A02D10023AB72B7
:100A1000F2E6022A01D10123F9E7022004F06DFE7B
:100A2000D9F8043013AA01210C2098479DF84C30C6
:100A300013F00F03F1D0042BEDD1E7E7702B04BFC7
:100A400004236B72D8E6012F7FF63EAF002718E72C
:100A5000012BB2D00D4A136843F0040313606B6896
:100A6000012B02BF2B7A43F040032B722C7A3CB34C
:100A70002046D3E710140020381A0020918F000878
:100A8000A9900008F8040020E18D0008D409002096
:100A9000158D000890C1793D58050020898E000809
:100AA000598D000850100020396200087561000857
:100AB000481A00204C050020281A00205810002059
:100AC0002B7843F002032B70A64D4FF480432B8507
:100AD0004FF40043AB611026013E15D0AB8A9BB2A8
:100AE00083F48043AB82AB8A9BB283F40043AB8236
:100AF000AB8A9BB283F40053AB82192004F0F3FD60
:100B0000192004F0F0FDE7E74FF40043AB614FF428
:100B10008043AB61944E4FF40053AB6132681007D1
:100B200005D5924B1B689847914B01221A70914B47
:100B3000DFED916A1B68914D1A7B914B1A80914BA6
:100B40001B8807EE103AB8EEC77A8F4BC6EE877A4D
:100B50001B22FF2128469FED8D7A67EE877AC3ED31
:100B6000007A11F043F800222A703268884B012184
:100B700012F0020F1970284604D069700321197011
:100B80000221A970510704D519784D1C1D70032549
:100B9000455412F00A0F40F04E86039A1568AA06D3
:100BA00004D51A78511C1970072181549BF805202F
:100BB000082A01D00E2A04D11A78511C19700B2171
:100BC00081541A786F0702F101014FF00C06865428
:100BD000C9B248BF0232197042BF1A701022425483
:100BE0001A781226511CC9B286546E05197004D5A4
:100BF0009BF8B861002E40F02D86A90504D51A781F
:100C0000511C197015218154EA0504D51A78511C1C
:100C100019701A238354982200215E485D4DDFF835
:100C2000A0A110F0E3FF012004F064FC4C2758B3AE
:100C3000012C29DC07FB04F905EB090898F84A6048
:100C400016B10134E4B2F2E7037990F9000001969D
:100C50000AEB8303032200921B6B3246012104F04E
:100C6000EBFB834660B104FB07504C22314610F089
:100C7000BDFF01231C4445F809B088F84A30E4B2AE
:100C8000012004F015FCD2E7434B2A681A60434B5D
:100C9000434E444A1E60002313809370424ADFF89B
:100CA00024C113605360414ADFF81CE11468404AD4
:100CB0001660404AF0891370A6F59B76B6F8462177
:100CC000643204F17D0107B212B2A3F10805EDB25E
:100CD000022D394D94BF25F8132025F81370DCF848
:100CE000005005F516754EF823500133122BECD148
:100CF000324B03931D68304B15F4805F08BFB6F983
:100D00004A71DF80CD348C421DD00B788BB98A7844
:100D1000CB789A420DDA72B1013A02EB820202EB11
:100D2000820202F561734A78234F04329BB227F89E
:100D300012300431E7E7013303EB830303EB830352
:100D400003F56173EFE72B074DD596F83E21062A90
:100D500043D8DFE812F03B008E009100BB00D500C5
:100D6000EF00EF0000080048D409002050100020D8
:100D700074100020041B00200AE81C41D90900203F
:100D80009805002098000020141100200000C8429F
:100D9000D8090020C4050020B011002070090020EF
:100DA000AE0B0020B01A0020D41A00206C1A0020CC
:100DB000741A0020F3080020D80F0020D40F002060
:100DC000401E0108501B00208809002045F2F05207
:100DD000754B1A8002F0FAFC28B908200AF05EFA76
:100DE000724B734A1A60039B1A68724B12F4804F5D
:100DF00004D0122119706D496F48086042F2010059
:100E0000024202F4005140F02B851A786B4C6C4D75
:100E1000DFF8FCA1DFF8F491043A5A7004F03CFCCE
:100E2000684B18607379052B02BF674B4FF4C8728B
:100E30001A8006F095F9654B4FF47A721A800023F8
:100E400023602B602368002B40F0E880232704F008
:100E500023FC08F0E3FF0A2004F045FC013FF6D133
:100E600008F0B0FFDAF800302360D9F800302B60CA
:100E7000E8E742F6F822ABE74B4B42F6F8221A803D
:100E8000534A0A23000190FBF3F00023A0F5B06061
:100E900042F823000133122BFAD1444A4D49116024
:100EA000444A4020137004F025FB002895D001230C
:100EB000072790F90000484A8DE88800474B4021F9
:100EC00004F0BAFA003018BF012085E7364B42F62D
:100ED000F8221A80354B424A1A60364B10221A709B
:100EE000402004F007FB00283FF477AF01230025E2
:100EF00090F900003B4A8DE828004FF4E133DEE72B
:100F0000294B42F6F8221A80284B374A1A60294B9F
:100F100008221A70402004F0EDFA00283FF45DAF7B
:100F20000123002490F90000304A8DE818004FF4A6
:100F3000E133C4E71C4B2E4D2E4C2F48DFF8D4C0B4
:100F4000DFF8D4E02D4F42F6F8211980194B0C211F
:100F50001970062A4FF000032B70237003701AD00B
:100F60001B238CF8003005238EF800103B704FF4E3
:100F7000E1340E4B224A1A60402004F0BBFA0028EC
:100F80003FF42BAF0023012190F900001D4A8DE8AA
:100F90000A00234693E721238CF800308EF80010D6
:100FA0003A70194CE5E700BF5E06002010000020F3
:100FB0008DA70008740A002065A7000848140020C7
:100FC000441400209C050020121F002080090020EE
:100FD000241D002031A700088DA90008A08601006B
:100FE0001DA70008E9A8000805A70008A1A8000897
:100FF000B21C0020951D0020941D0020971D00208C
:1010000031A6000891A7000890D00300301B0020F3
:10101000341B0020961D0020B11C00200023DFF8A7
:10102000A093CF4F23602B604FF00F084FF0050ABD
:1010300004F032FB08F0F2FE0A2004F054FBBAF18F
:10104000010AF5D108F0BEFE2368D9F8002029680E
:101050001A443B6822600B44B8F101082B60E5D1CB
:101060000F2192FBF1F22260BE4A93FBF1F32B6059
:10107000137843F008031370BB4A137823F002037C
:101080001370039B1B6840F602021A420BD0B74B49
:10109000B74A1A60B74B03221A70B74BA3F8008007
:1010A000B64BA3F80080039AB368B54C1360B54AF9
:1010B000B54DDFF810A30123137022788DF872303C
:1010C000214662F07F024FF0020901F80C2B8DF8E7
:1010D00073906A69059342F480224FF480570DF1B2
:1010E000700B0491ADF8707059466A61504605F076
:1010F000E3F9CAF81870282004F0F5FACAF8187055
:10110000484604F0F0FAAAF82870484604F0EBFAD2
:10111000CAF81870484604F0E6FA002002F00EFB08
:101120005A213A2002F0ECFA052004F0DCFA484695
:1011300002F004FB032002F001FB042002F0FEFA9F
:10114000052002F0FBFA062002F0F8FA059B18468B
:1011500004F0C9FA07F0ACFF642004F0C4FA8B4B2A
:10116000DFF864E24FF080421A60894B894A1A60C6
:10117000894B8A4A1A608A4A4FF4966353819EE8E3
:101180000F000DF12C0C8CE80F000EF110030FCBAB
:101190000DF13C0A8AE80F000EF120030FCB0DF190
:1011A0004C090EF1300E89E80F009EE80F008BE825
:1011B0000F0099E80F00049F87E80F009BE80F00DD
:1011C00004F11C0E8EE80F009AE80F0004F12C0EBB
:1011D0008EE80F009CE80F0004F13C0E8EE80F0033
:1011E0004FF4967004F07FFA00214FF48C726D4832
:1011F00010F0FCFCEB69DDF810A043F00703EB6195
:10120000AB6943F4A523AB616B6943F4C0236B6105
:1012100004F1100104F1600E0F2710318E4540F0EB
:10122000378173790E2B40F04C8101238DF86630A5
:101230005D4B1968B8F1040F00F04C8108F101030F
:1012400001EBC30212F9062C022A40F041814FEA59
:10125000C8039A1C8A1800F03F810B449B88003316
:1012600018BF01238DF86130039B1A68C2F3400355
:101270008DF86230C2F380138DF86430C2F34033CE
:101280008DF85C30C2F3C0338DF85F3012F4006328
:1012900007D096F83231A3F1020EDEF1000343EBE2
:1012A0000E038DF86030C2F300438DF86530C2F351
:1012B000C003B6F8D4708DF85E30C2F38043ADF849
:1012C0006A708DF86330D704B6F8E030ADF8683056
:1012D00002F0010002F0080144BFB6F8DC20ADF8CE
:1012E0006A20B3F5FA7FC4BF0023ADF86A3096F8E0
:1012F000823184F84C300023A4F84D309DF86630DC
:101300008DF85D00002B14BF0222002200B901B14C
:101310000132264B234E03EB8203D3F890309F1EFD
:101320000633049337F8023F4FF6FF72934240F0C2
:10133000D5801F4BDFF894E01E4F04221A70002462
:10134000E3190FCB04EB0E061034402C86E80F0097
:10135000F6D1039B18481A68184B1E6838E000BF86
:10136000301B0020591000209C11002094110020F7
:10137000A00B00208C110020981100209A11002051
:101380008807002064070020001002402011002080
:101390001C110020ABAAAA3F1811002026B4973ECA
:1013A000D80F0020601B0020141F0020401E0108E1
:1013B0000A120020E01E0108F81E0020E81A002092
:1013C000341B002000040048901E0108A4060020E1
:1013D000C74B02F480521C680023002A00F00682EA
:1013E000B4F9041020F8131001330C2BF5D10224AA
:1013F00001268DF872608DF873406B69BD4F4FF018
:10140000100843F48023ADF8708059466B6138466C
:1014100005F052F8A7F828808DF872608DF87340B7
:101420006B694FF090484FF0800943F40033ADF8FA
:10143000709059466B614FF0904005F03DF8C8F848
:1014400018908DF872608DF873406B69ADF870403C
:1014500043F480236B615946384605F02DF83C85EE
:101460008DF872608DF873406B694FF4004743F458
:101470000033ADF8707059466B61404605F01CF8BA
:10148000C8F818701E2004F02EF931B0BDE8F08FB6
:1014900011F8063C11F8050C4FEAD30C03F00702D3
:1014A00051F8103C03EB8C039200D3F820C090401D
:1014B00007FA02F22CEA02021A621A6A1043186250
:1014C000ABE603F0EF03082B3FF4AFAE0023ADE62D
:1014D0009846AFE60023C5E61346C3E69DF86220B2
:1014E0005FFA83F81B0A4AB104EB081281481169BC
:1014F000814203D1928A012A00F06D81022B00F013
:101500006A81012B0AEB081040F03B819DF85D30A9
:10151000002B00F060814FEA0818774BE06504EB80
:1015200008090022FF211A705A609A60DA601A6472
:1015300083F8441083F8451083F8462083F8472049
:1015400099F8193084F850208DF87230B9F81420C9
:10155000D9F81000ADF87020022359468DF8733089
:1015600004F0AAFF94F84C2099F81630D9F80C0032
:10157000012A0CBF03220022002B40F09C80036A4A
:1015800023F0010303628369016A23F0F30343F04C
:10159000010321F00A0143EA021341F001018361D2
:1015A0000162836923F00C0383618369836104EB27
:1015B00008090021012207F045F9D9F80C20138809
:1015C0009BB243F00103138099F817308DF8703007
:1015D0000022012358468DF871308DF87220069252
:1015E0008DF87330059301F0D5FF99F81710059B1E
:1015F000069A1B290BD1192158468DF870108DF8C9
:1016000071308DF872208DF8733001F0C3FFA04463
:101610003A4B2366D8F80C90394B63660023A366D7
:10162000484607F05DF9062800F3D58098F81620A3
:1016300034490A23434303EB920346F8231004334F
:10164000043146F8231091080222D9F80C308A4060
:1016500092B21A4303B203EB8303DB00C9F80C20F8
:1016600003F120023244EFF3128E502181F31288ED
:10167000103333440421D3F800C0BCF1000F03D071
:10168000C2F800C01A680432013903F10403F2D130
:1016900011605FFA8EFE8EF31188282303FB006031
:1016A000036A002B40F0F080D9F80C3023F00103DE
:1016B0001B041B0CECE0042B26D1036A23F010035F
:1016C0001B041B0C03628369016A21F0A00123F44F
:1016D0007343090443F48073090C43EA023341F075
:1016E000100183610162836923F440635CE700BFFA
:1016F000E41A002000040048601200205560000831
:101700002D610008E8070020082B036A1ED123F48E
:1017100080731B041B0C0362C369016A9BB223F034
:10172000F30343F001034FF2FF5E43EA021301EAC1
:101730000E0EC3614EF480730362C36923F00C0381
:101740001B041B0CC361C369C36130E723F48053DE
:101750001B041B0C0362C369016A23F440731B055D
:1017600021F400511B0D490443F48073490C43EAF2
:10177000023341F48051C3610162C36923F44063C1
:10178000DEE7032B27D19DF8633094F84E90DFF805
:1017900044814BB100234FF6FF72082104F0B6FEDE
:1017A0003D4B48F8290010E0BDF86820BDF86A30CC
:1017B000B2F5FA7F14DD3949B1FBF2F2242192B27D
:1017C00004F0A4FE364B48F82900C36094F84E306C
:1017D000013384F84E30049BBB427FF4A3ADA8E5EF
:1017E0003049B1FBF2F2012192B2D7E7B6F9041009
:1017F000F8E52B7A43F002032B72FFF774B800214F
:10180000012B04913FF614A8274B9DF81C201A7059
:10181000FFF728B8254B42F210721A805A80244AEA
:101820005A60244A9A60244ADA60244A1A61244A97
:101830005A61FFF70FB91A7804218154511CC9B2BB
:1018400005254554D11C0232D2B2197006218154AB
:10185000FFF7A3B902321A7013224254FFF7CDB931
:10186000184844F62064048021B1082119701649F3
:1018700016480860D2077FF5C8AA0C221A70124ACF
:1018800013491160FFF7C1BAD9F80C3043F00103D6
:10189000C9F80C309FE700BF3D61000800512502E8
:1018A0005161000840420F0058050020381B0020FD
:1018B000A7950008DB9500089D950008D9950008BC
:1018C000FD9300085E0600201000002081A700089C
:1018D00075A70008C4120020A9490A682DE9F04F35
:1018E00002F59C43A74C20332360A74B8BB01D7897
:1018F0000591002D3AD1A54FDFF8A082DFF8CCA2E8
:1019000097F80090E9B249450E4680F2A480072975
:10191000D8BFD8F800303846D8BF595CDAF8003064
:101920009847032E1DDCD8F8003006F10F0B03EBAF
:101930008B0133F82B204B8898B1811A4FF47A70C1
:101940009B1A484390FBF3F040F2EE2300F57A70C7
:101950009842B8BF184640F6CA039842A8BF184636
:1019600080B204EB46060135B080C9E788490968B2
:101970008A4201D9013D1D70864B00931A6812F40A
:10198000805F05D0844B1B68DD0701D40AF000F9A5
:10199000059B1968814B1A68937A002B00F03481FB
:1019A000013B7F48127B30F913301AB1C3F53B631A
:1019B00008331BB2A3F57A73B3F57A7FA8BF4FF44F
:1019C0007A7323EAE37307EE903ADFED766AF8EE76
:1019D000E77A87EEA67A744ADFED747A67EE277AA3
:1019E000FCEEE77A17EE903A1380009BDFF8E09167
:1019F0001B6813F4807F00F054816D4B6D4D99424C
:101A000003D9AB78002B00F05187AB78002B00F0A6
:101A10004881614F95F821603B6899F800B00297C2
:101A2000012E03F08063DFF894A1634F01930BF064
:101A3000040B14BF4FF003084FF0000895F8201076
:101A4000052900F22881DFE811F01B0193019901BB
:101A5000BC01D401F1014F4B1A68584B029342F27A
:101A60000101186800900A40039206D094F82930CA
:101A700084F82830524B5A781A7094F828601EB1B6
:101A80004F4B1E7886F001060F2384F82A30434B13
:101A900094F82BA01B6801930323BAFBF3F303EB29
:101AA0004303AAEB0303DBB25B000493009B454FA7
:101AB000DFF8ECB003F51673002507F1BC020693BE
:101AC00007F172084D4542DA690086B137F9150011
:101AD000019B9B8A80B29842C0F2D086019BDB8A30
:101AE000984200F3CB86069B42F8253003E030464F
:101AF000EEE73BF80100039B1BB92BF815000135FD
:101B0000E0E7314B062101FB053E049B2EF8030064
:101B100094F8743033B9BAF1020FEEDD4FF00103DF
:101B200084F874304FF0000128F815106B00002085
:101B30003EF8101033F808C001306144032823F840
:101B40000810F5D10BB293FBF0F080B2D5E794F812
:101B50002A300F2B174B3DD10F4A1268560139D44A
:101B6000029AD96812689A60521AC82A02D90122C8
:101B700083F8212094F82B30013384F82B30FBE6D6
:101B80003C100020C8080020E81E0020740A002035
:101B9000E41E0020D40F00204C110020741A0020F5
:101BA000D80F002000007A44300A002000C07F4493
:101BB000404B4C00B01A0020AC1A0020501B0020F3
:101BC0000B000020CC080020F408002010000020AA
:101BD0009C110020B84AB94E012151701170029A2F
:101BE00099681268DA60521A59688A4284BF0022E2
:101BF00083F8212000254D45BCDAE8B209F090F8C1
:101C000026F815000135F6E70098006800047FF516
:101C1000ECAED4F89000081A0028FFF6E6AE01F505
:101C20009C402030C4F89000A548D27A4579A54858
:101C3000A54E30F8150080B290FBF2F094F8942095
:101C4000013202F00F0284F89420224482F89500B9
:101C500018461A46855D01302A44102812B2F9D17F
:101C600092FBF0F212B2002A03DB642A1346A8BFEB
:101C7000642307EE903ADFED956AF8EEE77AA8E67E
:101C8000BBF1000F68D0012E05D0052009F0DEFA67
:101C90008F4B02221A70B8F1000F02D0404603F0B9
:101CA000B9FC8C4DB5F8DE0001F036FEAA460646BA
:101CB00018B905F03DFA05F02BFA99F800305B07EA
:101CC00008D5009B1B68DF0604D5834B1B78DD0617
:101CD00040F1F88500239AF88C819AF88D11BAF8B2
:101CE0004671BAF848E175481A4630F912509B0817
:101CF000BD42C4BF63F07F03DBB201327545B8BF9C
:101D000043F04003042AF0D194F8B1209A4240F005
:101D1000C18094F8B220F92A02DC013284F8B220A2
:101D20006E4F84F8B1303B786D4D002B40F0EB8066
:101D30002B68D80740F1DE80002E40F0AD8099F886
:101D40000030DA0740F1DF805B0702D4654B0122E7
:101D50001A7009F0D1FED6E0019B4FF4806023B1E8
:101D600009F08EFA00232B6195E709F079FAF9E77B
:101D7000012E7FF463AE052100F0A0BD012E04BF4B
:101D8000052185F82010BBF1000F0CD0D4F8A81065
:101D9000B1F90E0049490880488088803868408839
:101DA000C8804FF00208DAF8000069698142C0F08B
:101DB0008185BBF1000F00F07D85012E3FF43EAE22
:101DC00069E799F8001041F0020189F8001009F064
:101DD000DFFEDAF80000E9690144A961042185F811
:101DE00020104FF4806009F03BFA052009F022FA38
:101DF00024E6012E14D1DAF80000A9698142BFF46B
:101E00004AAF364B197821B9029B1968CA073FF5CA
:101E100042AF99F8001021F0020189F80010AAE7FA
:101E2000DAF80020EB691344AB6134E73868DAF87C
:101E30000030C188642000FB01312961002185F850
:101E40002010E970CDE79AF88E317EB9002B00F0B2
:101E50004185254B1A68D4F8AC309B1A002B80F2D0
:101E6000398509F095FE84F8B06033E73BB11E4A2E
:101E700012684FF47A7101FB0323C4F8AC3094F874
:101E8000B030002B3FF426AF03F0BAFB002384F8F8
:101E9000B0301FE7002241E7D4F8B4300A2B32DC1F
:101EA000124B1B885E072ED4114B1B785BBB05F0D1
:101EB0003FF905F02DF94CE70B000020D80F00206A
:101EC0001B1E00202C1E00205D0900200000C842BF
:101ED000111F0020780A0020591000201400002053
:101EE0004C110020201F0020501B0020EA1E002063
:101EF000101F002099F80030580704D594F82830B6
:101F0000002B40F0ED8494F8B230994E142B2ED172
:101F10003B78C3B194F8B1305F2B06D199F800300B
:101F200013F0040B6CD009F033FEB8F1000F0AD0A7
:101F300094F8B1307D2B06D199F8003013F0040BE2
:101F400064D009F025FE99F8003013F004020ED198
:101F500094F8B130572B5FD14FF47A73A4F8B830AE
:101F6000844B1B6813F0080301D1834A1380009B44
:101F70001B68580725D594F8BA309BB199F8003002
:101F800059070FD57D4BB3F90620BAF846319A426E
:101F900008DD2B6813F0010301BF794A84F8BA30D9
:101FA000322111802B68DA0340F1A080754B1A783A
:101FB0002AB9754A127812B9714A32211180012268
:101FC0001A70366800232B6006F17F0706F1CF08F0
:101FD0004FF0010BB84500F098803A787B789A4230
:101FE0000CDA394617F8010C03F0E6FA30B117F8AD
:101FF000023C2A680BFA03F313432B600437E9E72A
:102000000B2003F007FB84F8B2B08EE70B2003F03F
:1020100001FB84F8B2B096E700990968490740F1DE
:1020200067845A2B40F06484574B197821B11A7099
:10203000564B01221A709AE794F8BA3083F00103E4
:1020400084F8BA301BB10C2003F0E4FA8FE70D20BE
:10205000FAE75B2B00F051845E2B40F05C84032098
:1020600000F04CBCB8F1000F02D07E2B00F0608471
:1020700094F8B130972B04D1454B4FF4C8721A80B5
:1020800075E7A72B05D1434A137843F00403137077
:102090006DE70022BB2B099217D10223ADF8263041
:1020A0003368BDF82410B3F85C200A44A3F85C2020
:1020B000BDF82610B3F85E200A44A3F85E2009F0AC
:1020C00095F9002384F8B23051E7B72B02D14FF6CF
:1020D000FE73E3E7BE2B03D10223ADF82430DFE724
:1020E000BD2B7FF444AF4FF6FE73F6E7264A137814
:1020F000002B3FF466AF99F8003013F004037FF42F
:1021000060AF13700122214B5AE7234F06F1CD0532
:102110004FF00C0806F215164FF0010BB5423FD0F8
:102120006A78AB789A4221DA691C287803F044FA7D
:10213000E0B16979EB78194A95F804C008FB01FE13
:10214000013B07EB0E0003EB430313444268934249
:102150000CD043600023836094F8BB3007F80EC0B6
:102160000BFA01F123EA010184F8BB100635D5E72B
:102170006C1A0020D4090020200A0020D80F00206B
:10218000C01E0020DE1E0020DF1E0020E01E0020FA
:10219000121F002059100020781A00204E1F01083D
:1021A000C84AC94994F82830D2F800800F68C74D52
:1021B000019300260292042E00F0C0826968002973
:1021C00062D00A78002A5FD0A868381A00280BDB92
:1021D00007F5FA70A860012000FA06FE94F8BB002B
:1021E00020EA0E0084F8BB00019B002B4CD028781D
:1021F0004B780430C0B2002B40F06982B44B33F905
:1022000010E0BAF8440100F1C80CE64528DD91F869
:1022100002B094F8BB103141CB0735D4BBF1000FAD
:10222000CCBF02200120039203F01AFA039A511E38
:1022300013293BD8DFE811F02B0042004F0061006A
:102240007A008200E5005601BA01EB011A023A0059
:1022500061006D008200E5005601DC003C01B10127
:10226000C838864504DA91F802B0CBF1000BD0E70C
:10227000012202FA06F194F8BB2022EA010284F856
:10228000BB2007F5FA72AA6001360C3593E798F87F
:1022900000209344BBF1FA0FA8BF4FF0FA0B2BEAD2
:1022A000EB7B88F800B0404603F06AF994F8BB1065
:1022B0000122B2400A4384F8BB20E5E798F80120E8
:1022C0009344BBF1640FA8BF4FF0640B2BEAEB7B88
:1022D00088F801B0E7E798F803209344BBF1640F56
:1022E000A8BF4FF0640B2BEAEB7B7A4A88F803B067
:1022F0001168404603F004F9D8E798F805105944EE
:102300006429A8BF642121EAE1710D2A88F805102B
:10231000CCD098F804209344BBF1640FA8BF4FF0D1
:10232000640B2BEAEB7B88F804B0BFE798F8062033
:1023300093448BF3080B88F806B0B7E76649096841
:10234000087802283DD107EE90BAF8EEE76AB2EEBF
:10235000047AC6EE877A91ED0A7A77EE877AF5EEFF
:10236000C07AF1EE10FA29D49FED5C7AF4EE477A48
:10237000F1EE10FAC8BFF0EE477A0F2AC1ED0A7AE3
:1023800094D007EE90BAF8EEE76AB2EE047AC6EEA1
:10239000877A91ED097A77EE877AF5EEC07AF1EED9
:1023A00010FA2BD49FED4D7AF4EE477AF1EE10FA45
:1023B000C8BFF0EE477AC1ED097A77E7DFED487ADA
:1023C000DBE788785844C828A8BFC82020EAE07016
:1023D0000F2A88703FF46AAF4A789344BBF1C80F64
:1023E000A8BF4FF0C80B2BEAEB7B81F801B05DE78B
:1023F000394A11680A78022AC3D0EDE7DFED387A4E
:10240000D9E735490968087802283AD107EE90BA29
:102410009FED327AF8EEE76AC6EE877AD1ED0D6A63
:1024200077EEA67AF5EEC07AF1EE10FA26D4F4EE45
:10243000477AF1EE10FAC8BFF0EE477A102AC1EDE4
:102440000D7A3FF433AF07EE90BA9FED247AF8EEA1
:10245000E76AC6EE877AD1ED0C6A77EEA67AF5EEDA
:10246000C07AF1EE10FA29D4F4EE477AF1EE10FAC0
:10247000C8BFF0EE477AC1ED0C7A17E7DFED187AA6
:10248000DCE7487B5844C828A8BFC82020EAE07091
:10249000102A48733FF40AAF0A7B9344BBF1C80F7C
:1024A000A8BF4FF0C80B2BEAEB7B81F80CB0FDE620
:1024B000094A11680A78022AC5D0EDE7DFED087AEB
:1024C000D9E700BF581A0020501B0020781A0020BE
:1024D000D80F0020CC0F0020D00F00200000C842F1
:1024E00000000000C0490968087802283ED107EEC4
:1024F00090BA9FEDBE7AF8EEE76AC6EE877A91ED64
:10250000107A77EE877AF5EEC07AF1EE10FA2AD4D7
:102510009FEDB77AF4EE477AF1EE10FAC8BFF0EE0D
:10252000477A112AC1ED107A3FF4C0AE07EE90BA97
:102530009FEDAE7AF8EEE76AC6EE877A91ED0F7AF4
:1025400077EE877AF5EEC07AF1EE10FA2BD49FED94
:10255000A87AF4EE477AF1EE10FAC8BFF0EE477AA7
:10256000C1ED0F7AA2E6DFEDA37ADAE7087E5844E0
:10257000C828A8BFC82020EAE070112A08763FF4D6
:1025800095AECA7D9344BBF1C80FA8BF4FF0C80BEE
:102590002BEAEB7B81F817B088E6934A11680A783A
:1025A000022AC3D0EDE7DFED937AD9E78E4A1168AE
:1025B0000A78022A1FD107EE90BAF8EEE76AB2EE67
:1025C000047AC6EE877A91ED0B7A77EE877AF5EE8C
:1025D000C07AF1EE10FA0BD49FED857AF4EE477ACB
:1025E000F1EE10FAC8BFF0EE477AC1ED0B7A5DE666
:1025F000DFED807AF9E7CA789344BBF1C80FA8BF32
:102600004FF0C80B2BEAEB7B81F803B04EE6764A1D
:1026100011680A78022A1DD107EE90BA9FED747AEC
:10262000F8EEE76AC6EE877AD1ED0E6A77EEA67A03
:10263000F5EEC07AF1EE10FA09D4F4EE477AF1EE35
:1026400010FAC8BFF0EE477AC1ED0E7A2EE6DFED44
:10265000697AF9E78A7B9344BBF1C80FA8BF4FF0B2
:10266000C80B2BEAEB7B81F80EB01FE65E4A1168BF
:102670000A78022A1FD107EE90BA9FED5C7AF8EE35
:10268000E76AC6EE877A91ED117A77EE877AF5EEF2
:10269000C07AF1EE10FA0BD49FED557AF4EE477A3A
:1026A000F1EE10FAC8BFF0EE477AC1ED117AFDE500
:1026B000DFED507AF9E74A7E9344BBF1C80FA8BF1B
:1026C0004FF0C80B2BEAEB7B81F819B0EEE5012B3C
:1026D0007FF4ECAD0C2A7FF4E9AD474B897833F9F0
:1026E00010B0464B40F633008345A8BF8346BBF588
:1026F000617FB8BF4FF4617B4FF4966090FBF1F0BF
:102700001978ABF5617B9BFBF0FB5FFA8BFB5945BE
:102710003FF4CCADBBF1030FD4BF59460221197071
:1027200002FB01A2029B02F22A521A6006F056FF37
:102730000BF10100C0B202F093FFB7E5304D314E0E
:102740002B6813F0020F06D1009B1B68DF0506D52E
:102750002D4BDB781BB13368980700F1ED80012029
:1027600008F07EFD012704E004F0E2FC012008F0FF
:1027700087FD2A68510732D58FB3012008F070FD1C
:10278000224B1B889A0704D404F0D2FC022008F0E4
:1027900077FD99F800305B0708D41C4B1B8803F0C9
:1027A00044031BB11A4B1A881A4B1A80336813F072
:1027B0000A0F40F0C9802B681A054FF480705AD573
:1027C00008F05EFD9AF80530082B02D00E2B40F081
:1027D000C38040200BB0BDE8F04F08F041BD02209F
:1027E00008F03EFDD5E700BFD00F002000007A447E
:1027F0000000C84200000000D80F0020701A00201E
:102800004C110020D4090020B01A0020EC1E00203A
:10281000200A0020F41E0020514B1B885F0706D4BD
:10282000042008F02DFD4F4B1A884F4B1A802B685F
:102830009E061CD54A4B1B88580602D4402008F03F
:102840001FFD2B68590641BF464A1188474A11802F
:1028500013F0080308D094F8BC30002BABD1414BE7
:102860001A88424B1A80012384F8BC30A3E7402029
:1028700008F0F6FCE5E708F0F3FCA3E752F8253092
:10288000009883423FF635A9E8B2079208F048FA6B
:10289000032D079A3FF72FA994F82A100123AB4084
:1028A00021EA030384F82A30FFF725B90123AB702E
:1028B000FFF7ABB842F21071E961032185F82010EF
:1028C000FFF7BCB82A4B1B78002B7FF4BCAA002E64
:1028D0007FF4D5AA102002F09DFE0123FFF7D7BA9E
:1028E00011B9002E7FF40FAB09F052F9FFF70BBBC3
:1028F0005D2B7FF4AEAB012000E00220C7B27B1E4F
:102900008AF8283508F0DAFC06F0B2FE384602F004
:10291000A7FEFFF72CBB562B01D108F067FD3B78D3
:10292000002B3FF4A5AB94F8B1306F2B7FF49AAB3A
:1029300009F0E2F8FFF71BBB094B1B8813F00107F6
:102940003FF412AF002714E72B68DB063FF564AFB6
:10295000042008F085FC6AE70BB0BDE8F08F00BFEB
:10296000EC1E0020200A0020F41E00209000002011
:102970001400002038B5044624200D4602F030FD36
:102980004D2002F02DFD002C094C14BF21203E20CB
:1029900002F026FD2368002228469A7102F020FDED
:1029A000236893F84900BDE8384002F019BD00BF24
:1029B000F01E002001460020DCE710B502F006FD05
:1029C000044602F003FD04EB004010BD2DE9F84F72
:1029D0004B282DED048B00F0118500F2F080322899
:1029E00000F050856BD8222800F040842BD80328B3
:1029F00000F0CE8207D8012800F0AD82022800F056
:102A0000B7820020C0E2042800F0C9820528F8D16E
:102A10001A20FFF7CFFFC84D0024285D013402F0D3
:102A2000DFFC0B2CF9D1C54D0024285D013402F0E8
:102A3000D7FC082CF9D100240020013402F0D0FC8E
:102A4000072CF9D19FE2282800F0BF8413D824284E
:102A500000F0B0842628D4D1B94C0620FFF7AAFF95
:102A6000B4F8E80002F0CEFCB4F8EA0002F0CAFCC8
:102A7000B4F8EC004CE22A2800F0BA842C28C0D12B
:102A8000AF4C0C20FFF796FF94F83E0102F0A8FC33
:102A9000B4F8480102F0B6FCB4F8440102F0B2FC0C
:102AA000B4F8460102F0AEFC94F83F0102F098FC45
:102AB000B4F84A0102F0A6FCB4F84C0128E23D2823
:102AC00000F0178344D8382800F07A8433D83428AB
:102AD00000F0EF83362894D19A4D994C95F8640014
:102AE000C0EBC000C0B2FFF765FF04F120066835F7
:102AF00094F9980100230C33EA1812F90C2C824245
:102B000040F0D584C0B202F06BFCB4F89A0102F038
:102B100079FC94F89C0102F063FC94F89D0102F0AA
:102B20005FFC94F89F0102F05BFC94F89E0102F0B8
:102B300057FC00F0BFBC3A2800F0D2823B287FF45B
:102B400060AF0120FFF736FF7F4B1B6818780CE25F
:102B5000452800F0C18426D8402800F09A844228F5
:102B60007FF44FAF764C1020FFF724FF607902F01E
:102B700037FCA06802F04FFC94F83E0102F030FCF4
:102B8000B4F8E80002F03EFCB4F8EA0002F03AFCC7
:102B9000B4F8EC0002F036FCB4F82E0102F032FC7E
:102BA000B4F83001B4E1462800F0898449287FF464
:102BB00028AF0220FFF7FEFE614B9889A8E1732839
:102BC00000F0C38300F256816C2800F0518200F2BD
:102BD000D180662800F0168200F295804D2800F022
:102BE000318465287FF40DAF0B20FFF7E3FE574BD0
:102BF000544C188802F006FC554B1A68554B9A4203
:102C00000CBF554B554B188880B202F0FBFB206877
:102C1000C0F3C003C0F380029B0043EA4203C0F349
:102C200040021343C0F3401243EAC20300F0100015
:102C3000184302F0E7FB4A4B26791A88494B19687A
:102C4000494B1B7802F00100C3F3800343EA4003C1
:102C5000C2F3400043EA800302F008000343C2F3DA
:102C6000800043EA0013C2F3801043EA401301F0EE
:102C70004000034301F08000034301F480700343EC
:102C8000C2F3001043EA4023C2F3401043EA80231A
:102C9000C2F3002043EAC02301F48050034301F44F
:102CA0000050034301F48040034301F40040034318
:102CB00001F48030034301F40030034301F4802029
:102CC000034301F40020034301F480100343C2F3E3
:102CD000402043EA405301F00071C2F380220B43CD
:102CE000002043EA8263053402460125B24280F0A7
:102CF0006681115D05FA01F119421CBF05FA02F166
:102D000008430132F2E7682800F0A68169287FF4C1
:102D100078AE164D164E2878400000F0FE00FFF702
:102D200049FE00242B789C4280F02D8136F8140057
:102D300002F068FB0134F5E7B7220108C32201085D
:102D4000780A0020D40900206C1A0020EA1E002016
:102D5000401A002000540040241A0020261A0020A7
:102D6000EC1E00204C1100209C110020740A002051
:102D7000D80F00206F2800F0C78130D86D2800F0F0
:102D800086816E287FF43DAE0720FFF713FEC54B0A
:102D9000C54C1888FF28A8BFFF20C0B202F020FB56
:102DA000A06D4FF6FF75A842A8BF284620EAE07044
:102DB00080B202F027FBB4F85C0002F023FBBB4BAF
:102DC00093F83331002B00F09081236E0A20584392
:102DD000A842A8BF284620EAE07080B298E0702898
:102DE00000F0BA8172287FF40CAEB04C1620FFF7C9
:102DF000E1FDB4F8440102F005FBB4F8D00002F0A4
:102E000001FBB4F8D20002F0FDFAB4F8D40002F0ED
:102E1000F9FAB4F8860102F0F5FA002002F0E0FABF
:102E2000002002F0DDFA002002F0DAFA94F8330113
:102E300002F0D6FA94F8400102F0D2FA002002F033
:102E4000CFFA9B4B1B68B3F95A000A2390FBF3F0AF
:102E500080B202F0D7FA94F8280102F0C1FA94F88F
:102E60002C0102F0BDFA94F82B0102F0B9FA94F8A3
:102E70002D017AE0A02800F08D8222D8772800F07A
:102E800049820FD8742846D075287FF4BAAD2F2018
:102E9000FFF790FD874C14F8010F002873D002F063
:102EA0009FFAF8E77B2800F026837C287FF4A9AD01
:102EB0000320FFF77FFD804B187802F0A3FA7F4BC9
:102EC00044E6F02800F059820AD8DD2800F010838B
:102ED000DE287FF496ADFFF770FDFFF76EFD52E040
:102EE000FE2800F03D82FF287FF48BAD744A6E4CC3
:102EF0001188002323840122114266D101339BB241
:102F00005200092B92B2F7D10220FFF753FD208C1B
:102F100002F078FA37E0644F00264FF0010ADFF83C
:102F2000BC914FF0000B3B795B4540F3E981654B69
:102F30000C251BF80340002305FB03F202EB0900FC
:102F400012F80920A24200F0DC8201331C2BF3D1DD
:102F50000BF1010BE7E70320FFF72CFD002002F047
:102F60003FFA022002F03CFA002002F039FA0AE0AF
:102F70000520FFF71FFD544D0024285D013402F0A9
:102F80002FFA052CF9D10120BDEC048BBDE8F88F98
:102F9000FFF710FD022002F023FA0020E2E70B20E9
:102FA000FFF708FD072002F02DFA484D0024285DA8
:102FB000013402F015FA072CF9D10020A8E702F03D
:102FC0002AFA3A4B93F82805CFE7013B072B05D89F
:102FD000DFE803F007090B0E1012141601232384F7
:102FE00092E70223FBE74023F9E74FF48073F6E70B
:102FF0008023F4E72023F2E71023F0E70823EEE72D
:103000000423ECE71220FFF7D5FC314B264C1B883C
:10301000B3F5806FD4BF01260826002504F12207EE
:1030200037F9150090FBF6F0013580B202F0EAF9AD
:10303000032DF5D1208D02F0E5F9608D02F0E2F963
:10304000A08D244C02F0DEF9208802F0DBF96088C4
:1030500002F0D8F9A0885BE71020FFF7ABFC1E4D0B
:103060000024285D013402F0BBF9102CF9D18AE765
:103070000D4C0620FFF79EFCB4F8460002F0C2F9A2
:10308000B4F8480002F0BEF9B4F84C0040E7064C32
:103090000620FFF78FFC206D02F0BDF9B4F8540054
:1030A00036E700BF8E110020D4090020780A0020E6
:1030B0006C1A0020891F0108111F00209A000020AF
:1030C000EA1E0020D9090020A9220108AF22010828
:1030D0009800002048100020020A00202821010842
:1030E0000420FFF767FC002061E1206E00F30F0071
:1030F00073E6CA4C0220FFF75DFC94F88E0102F0E3
:103100006FF994F88D0130E7C54C0B20FFF752FCA6
:103110002368187802F064F92368587802F060F99F
:10312000002523682B440135187902F059F9032D45
:10313000F7D12368D87902F053F92368987802F020
:103140004FF92368D87802F04BF92368588902F0C8
:1031500059F92368187A08E7B24C2120FFF72AFCB6
:1031600023681B78022B4FF000056CD19FEDAE9ABF
:10317000DFEDAE8AB2EE048A236803EB850393ED9C
:10318000090A20EE080A0DF019F880F30800C0B211
:1031900002F026F9236803EB850393ED0C0A20EE79
:1031A000090A0DF00BF880F30800C0B202F018F91C
:1031B000236803EB850393ED0F0A20EE280A0CF039
:1031C000FDFF80F30800C0B2013502F009F9032DBC
:1031D000D2D1072D236829D193ED120A20EE080AD7
:1031E0000CF0ECFF80F30800C0B202F0F9F823689D
:1031F00093ED130A20EE080A0CF0E0FF80F30800BC
:10320000C0B202F0EDF8236893F8503000EE103AA7
:10321000B8EE400A0CF0D2FFFF28A8BFFF20C0B2D2
:10322000013502F0DDF80B2DD3D1ACE62B445878F4
:1032300002F0D6F823682B44187B02F0D1F82368FB
:103240002B44D87DECE723682B44587802F0C8F86B
:1032500023682B44187B02F0C3F823682B44013504
:10326000D87D02F0BDF80B2DEDD18CE65020FFF794
:10327000A1FBDFF8B0816E4E00250C27D8F8004086
:1032800004EB8504013594F87D3007FB0363187A5D
:1032900002F0A6F894F87E0002F0A2F894F87F00FD
:1032A00002F09EF894F8800002F09AF8142DE5D10F
:1032B00069E64820FFF77EFB5A4F002506263C684A
:1032C00006FB0544013594F8D20002F089F894F821
:1032D000CD0002F085F894F8CE0002F081F894F861
:1032E000CF0002F07DF894F8D00002F079F894F85D
:1032F000D10002F075F80C2DE1D144E6464427E6F2
:10330000BAF1000F3FF43FAEF0B2FFF753FB4FF0BE
:10331000000A04E6474C464D2079FFF74BFB002698
:10332000671D4FF00C0823799E42BFF42CAEF05D70
:10333000002308FB03F25119525D824200F0F48031
:1033400001331C2BF5D10136EDE70820FFF732FBE6
:103350000124E0B2013402F043F8092CF9D112E65D
:103360000820FFF727FB002002F04CF8002002F0B5
:1033700049F8002002F046F81FE62A4C0420FFF727
:1033800019FB2368B3F85E0002F03CF82368B3F839
:103390005C00BDE50C20FFF70DFB274B186802F021
:1033A0003AF8264B186802F036F8254B186802F0F8
:1033B00032F8E8E50420FFF7FDFA184B9868F6E7C5
:1033C0000420FFF7F7FA154C45E5144C0720FFF7EA
:1033D000F1FAB4F82E0102F015F8B4F8300102F059
:1033E00011F894F8320101F0FBFFB4F834018FE5D5
:1033F0000120FFF7DFFA094B5879B6E5074C0420A6
:10340000FFF7D8FA94F8840101F0EAFF94F88501F7
:1034100001F0E6FFB4F886017AE500BF780A0020E3
:10342000581A00206C1A00200000C84200007A449C
:1034300028210108D4090020ACF7FF1FB0F7FF1FB7
:10344000B4F7FF1F3A4D3B4C287800EB4000C0B268
:10345000FFF7B0FA00262B789E4204F10204BFF475
:1034600092AD14F8020C01F0BBFF14F8010C00EB54
:10347000800000EB800000F2EE2080B201F0C2FF7D
:103480000136E8E70120FFF795FA2B4B93F840014E
:103490006BE50820FFF78EFA274D002463190134ED
:1034A00093F8360101F09CFF082CF7D16BE5302B27
:1034B0007FF421AB0834A6427FF41AAB63E50D20FC
:1034C000FFF778FA002001F08BFF002001F0A3FF46
:1034D000002001F0A0FF06E61320FFF76BFA174D5E
:1034E0000024285D013401F07BFF0B2CF9D1EFE7BC
:1034F00001F06CFF47E50220FFF75CFA104B1888DB
:1035000006E54568284608F01BFD8046BAF1000F25
:103510007FF4F4AE2C46631B98457FF719AD14F881
:10352000010B01F05DFFF6E7087A01F059FF0AE7A9
:10353000740A0020C60B0020780A0020B722010878
:103540009C000020104A40F2E933118989070AD50E
:103550000E4A0D49107040F2E9330889C0070DD5B5
:103560001078C0B27047013B9BB2002BEDD1084AE6
:10357000138801339BB21380FF207047013B9BB23D
:10358000002BEAD1F3E700BF003800400C380040C0
:103590006C0A00200C4B10B5DB6802780B48DB434B
:1035A000C3F302230121C3F1040301FA03F38418D6
:1035B0001B01DBB284F80033530902F01F0201FA49
:1035C00002F240F8232010BD00ED00E000E100E031
:1035D000084B4FF47A72594301F5FA714FF4FA63CC
:1035E000B1FBF3F3B1FBF2F102FB0030B0FBF1F001
:1035F000704700BF002F3A00F0B54FF0FF33CF08FF
:10360000136001F007014FEAC70E3D460026052D65
:1036100000D806B1F0BD445DAF4203BF0C41E4B237
:103620000B46334614F0010F06D073441360012695
:1036300001350EF1080EEAE70133082B4FEA540476
:10364000F0D1F5E72DE9F04F87B00DF11808109D86
:1036500048F80C5D294F1C4681468A469346002651
:103660000123119A964221D10026129B1D60CEB9EA
:103670002146484600F06EFF064698B904AD2B4639
:103680000622B02199F85C0105F008FC002808BF6B
:103690006FF013060023E15CEA5C91422AD101330A
:1036A000062BF8D1304607B0BDE8F08F42462946D8
:1036B00058460193FFF7A0FF039A531C17D002F15D
:1036C000B401890957F82110003118BF0121514573
:1036D0000DD1D108019B02F0070005299FBF03FA15
:1036E00000F5605C28436054551C0136B9E76FF063
:1036F0003106BAE76FF03106D4E700BFBC1F0108FE
:10370000F8B50D4C20250746258532200E4601F0E0
:10371000DFFF47F08000FFF715FF322001F0D8FFF0
:103720003046FFF70FFF322001F0D2FFA561C8201D
:1037300001F0CEFF0120F8BD000400481F4B2022FD
:1037400010B51A850446322001F0C2FF04F07F0054
:10375000FFF7F8FE322001F0BBFF194A4FF6FF7168
:1037600093894FF47A73148914F002040CD0154A2B
:103770001348FF2111704FF6FF71048914F0010402
:1037800016D01478E4B208E0013B9BB28B42EAD138
:103790000D4A138801339BB21380322001F098FF49
:1037A000064B20229A61C82001F092FF204610BDEE
:1037B000013B9BB28B42E0D1EAE700BF0004004826
:1037C000003800400C3800406C0A002007B51B4B45
:1037D00003F108025A6093F84A2122B3012A09D161
:1037E000032183F85C15072183F85E2583F85D15B6
:1037F0000C221A72124B134A1A60402001F07AFE12
:1038000070B10122002390F9000040218DE80C00E6
:103810004FF4E1330C4A01F00FFE003018BF0120D5
:1038200003B05DF804FB022183F85C15032183F8E3
:103830005E2583F85D150722DBE700BF6C0A0020D8
:1038400010000020D9A6000859A800080D4B03F16C
:10385000DC02C3F86025C3F8641500F150039842F8
:1038600007D002781AB98178C278914207DB043018
:10387000F5E70023044A83F0010313717047012325
:10388000F8E700BF6C0A00201000002070B522226B
:1038900000211248124E0EF0A9F90022114B052109
:1038A00001241046042A03F108030CD0955D03F8A7
:1038B000085C03F8041C03F8034C03F8010C03F83C
:1038C000021C0132EEE7084B0122A3F8A6210222D6
:1038D000A3F8AE21522283F8A22170BD0E0C002065
:1038E000CC1F0108100C00206C0A002010B507F056
:1038F00013FB4FF43024012806D10CB9052010BD6C
:1039000007F00AFB013CF6E7002C08BF052010BDBC
:1039100000210120FFF72EB80B4AD2F8683513F4C6
:10392000805FB2F972350AD0B2F85021111A8B4279
:1039300008DD10448342B4BF002001207047B2F874
:103940005201F7E7012070476C0A0020164B194618
:10395000002241F80C2F4A608A6019461A6041F82B
:10396000182F5A609A604A608A601946303393ED86
:10397000000A41F8242FB4EE400AF1EE10FA4A6032
:103980008A6006D693ED021AB4EE411AF1EE10FAEF
:1039900007D79FED061AF0EE410AB0EE410A04F097
:1039A0006FBCD3ED010AFAE7001000200000000010
:1039B0002DE9F041624CD4F8D035D4F8D4259A1AC8
:1039C000002AC0F2848003F5C332A032C4F8D8358F
:1039D00004F2DC50D4F8E835C4F8D425984704F252
:1039E000DC5194F8EC25084601F0C2FB94F8ED2573
:1039F00012F0040F04F2DC501CD0D4F8D435C4F813
:103A0000F035002384F8F43504F586759E4604F2FB
:103A1000F65704F2FC5630F9131027F8131026F865
:103A200013100133032B25F802EFF4D122F0040226
:103A300084F8ED25D4F8F025DAB1D4F8D43541492D
:103A40009B1A414A934201F106064FF0000340D809
:103A500030F9132031F913705D009742775FC8BFCA
:103A600021F81320974203F10103B8BF7253032BCF
:103A7000EED194F8083653B3B4F8DE05B4F810214B
:103A8000B4F8E035B4F80E11801AB4F8162112FB20
:103A900000F210B2B4F812219A1AB4F8183113FBDC
:103AA00002F3B4F8DC25511AB4F8142112FB01F228
:103AB0001BB20A2112B293FBF1F392FBF1F2A4F8CC
:103AC000E035A4F8DC2590FBF1F2A4F8DE25BDE892
:103AD000F08101F10C07C4F8F035A1F2EA4C4FF087
:103AE0000208384631F913E036F913200EEB0205CF
:103AF000A2EB0E0202EB820227F8132095FBF8F5E9
:103B00000133032B2CF8025FECD1B4F90426B4F98D
:103B100002360E4E1344B4F906260A2113445943C3
:103B20000022B518835E0232062A03EB430391FBA1
:103B3000F3F3A5F80831F4D107F058FC99E700BF7A
:103B40006C0A0020621000207FC3C901780A00209F
:103B500013B5144601AB042290F85C0105F09EF900
:103B6000019B00281BBA0CBF6FF0130000202360DC
:103B700002B010BD13B5144601AB022290F85C01EF
:103B800005F08CF99DF804209DF80530002843EAE3
:103B900002230CBF6FF013000020238002B010BD81
:103BA00008B5134690F85C01012205F077F900286A
:103BB0000CBF6FF01300002008BDF7B590F85C61F2
:103BC00015461C4601220DF1070330460F4605F04D
:103BD00065F968B19DF807202A40224339463046EE
:103BE0008DF8072005F056FA10B1002003B0F0BDA3
:103BF0006FF01300FAE707B502AB8DF80520120A43
:103C000003F8042D90F85C01022205F0CCF900289D
:103C10000CBF6FF01300002003B05DF804FB08B583
:103C200090F85C0105F036FA00280CBF6FF0130025
:103C3000002008BD2DE9F3474FF0000A88461646DC
:103C4000FF210122054699469DF828708DF807A0AE
:103C5000FFF7E5FF5246044651462846FFF7DFFFCF
:103C600052460443FF212846FFF7D9FF64B20443BC
:103C700064B2B9F1000F06D04246CB212846FFF7C7
:103C80008FFF044364B23FB10DF10702EE212846D5
:103C9000FFF786FF044364B20122FF212846FFF7A5
:103CA000BEFF0122044300212846FFF7B8FF64B29B
:103CB00004430022FF212846FFF7B1FF64B29DF8BC
:103CC0000730204323F0100340B2337002B0BDE848
:103CD000F08773B50646002501220B213046FFF719
:103CE0009EFF002204460B213046FFF798FF0DF19E
:103CF0000702044313213046FFF752FF9DF80730B7
:103D000064B2204301355B0740B2EDB205D0032D0C
:103D100008D00028E0D002B070BD032D08BF6FF0BE
:103D20000B00F8E76FF00B00F5E7F0B54FF4FA631E
:103D300085B000228DE80C0044F61F6399420646C8
:103D40000F4604D86FF00305284605B0F0BD02A960
:103D500000F00EFC05460028F6D19DF80830A7F6C5
:103D600036342BB99DF8093013B99DF80A30FBB1F0
:103D700001AA0221304606F0AEF9A8BB9DF8083032
:103D80002BB1019B03F24E239C42DBD9E41A9DF830
:103D90000A3033B99DF8093053B1019B03F52573FF
:103DA00003E0019B03F2B2235B00A342CAD2E41AF0
:103DB0009DF80B305BB16A460321304606F08BF963
:103DC000009B03F52573A342BCD268B9E41A9DF8A1
:103DD0000C30002BB8D0A4F226220421304606F085
:103DE000F5F877610546AFE70546ADE737B5044618
:103DF000154605292CD8DFE801F0030717191B1B0E
:103E0000436B2B60002021E00DF106024421FFF7F7
:103E1000B1FED8B9BDF8062053029AB12B60A36356
:103E2000012384F8293011E0C36BEAE7036CE8E76B
:103E30000DF106026421FFF79DFE38B9BDF806308A
:103E40005B02DEE7A36B2B6084F8290003B030BD72
:103E50006FF00300FAE72DE9F04F9FB090F8303192
:103E60000C91C022012104460593FFF7D8FE0546B8
:103E7000002840F0E9822074012280212046FFF7CB
:103E8000CEFE0122FF212046FFF7C9FE2A46294621
:103E90002046FFF7C4FE94F83A2191212046FFF70F
:103EA000BEFE294601222046FFF7B9FE2A46FF2121
:103EB0002046FFF7B4FE2A4680212046FFF7AFFEDA
:103EC000294601222046FFF7AAFE01238DF85C3027
:103ED0000546002840F0B882074644F620689DF861
:103EE0005C30DB0707F101070ED5002D40F00E8393
:103EF000474502D16FF00605A6E2294617AA2046DB
:103F0000FFF74EFE0546EAE74745F3D0002D40F0A7
:103F10009B82204606F0B9F90546002840F09482BD
:103F2000032384F832310C2214AB142194F85C0181
:103F300004F0B4FF002800F0C1829DF85A209DF8DB
:103F40005B30B4F8520194F8311103EB02231FFAED
:103F500083FB9DF856209DF8573003EB02239BB25C
:103F60005B029DF8582000939DF8593003EB022323
:103F70009BB25B029DF8522006939DF8533003EBF1
:103F800002239DF850209BB2B0F57A7F02934FEA4E
:103F9000E2020ED0257F0BFB00F04FF47A7300F5A0
:103FA000FA7090FBF3F0236A002D40F094801FFA22
:103FB00080FB002900F099804FEA8B13DBB2099354
:103FC0000023ADF84630D3B2049303F00F030193FE
:103FD0004FEA9B0B019A4FF2A103D34003F0010378
:103FE0000B9394F828300393002B00F0AC81257FCD
:103FF000236A25B1029A03FB02F580352D0A94F855
:10400000E020009BD4F8DC7008922B4411464FF45A
:104010007A78384608FB03FA0A93FFF7D9FAD4F8FE
:10402000E43094F8E810079381461846FFF7D0FA79
:10403000089A0A9B0AF5004A082A4FEA1A4603F131
:1040400080020CBF02210321C04B002E63D1C4F8B3
:1040500040311F4612AA00212046FFF7C7FE129BDF
:10406000B6B2002B00F06D81BB422CBF00270127A8
:10407000002840F0108294F82A90B9F1000F00F067
:10408000718113AA02212046FFF7B0FE88B90122F0
:10409000FF212046FFF7C3FD58B90DF14602B621B6
:1040A0002046FFF767FD20B90246FF212046FFF7B3
:1040B000B6FDBDF846506B02139DC4F848311DB1E2
:1040C000AB4294BF00250125002800F04C814FF041
:1040D0000008C24665E1029D9BB26B43009D1B1226
:1040E0009D420CD1A1B948F6E02BD2B20023049234
:1040F00002F00F02ADF84630019209936AE7009D85
:1041000080B26843EB1AB0FBF3F31FFA83FB50E76E
:1041100042F2B82B50E781444FEAC92901FB09F16B
:1041200040F277604FEA122E01F5FA71B1FBF8F117
:10413000414301F5FA710F93B1FBF8F3089303FBC8
:104140000EFE069BDFF818920E9108FB03F000EAC2
:1041500009000EF1800EB0FBF6F67D480D925FEA85
:104160001E2E08BF4FF0010E864228BF06464FF4B0
:10417000167000FB06F30C2000FB0EF00A9306F00D
:104180006FF8460008FB05F0B0F5481F0AEA090A77
:1041900028BF4FF44810AAEB400000F5FA700AF56A
:1041A000FA7AB0FBF8F0BAFBF8F80002B0FBF8F8C6
:1041B00068480A9B4FEA0828C8F5803841F25C2518
:1041C00000FB0BF0B0FBF5F000FB08F000F5004041
:1041D000000C00F5803040084043800B4FF44878D5
:1041E00008FB00F808F5004803F500454FEA1848B9
:1041F00008FB08F82D0C05FB058006F031F8079B3D
:1042000000041F444FF0640E3230B0FBFEF040F665
:10421000B53EB0FBF6F641F288304FF47A790EFBEA
:10422000060607F5FA7742F210704FF4FA6EB6FB05
:10423000F0F6B7FBFEFEB6F5704F0EF5C81EB7FBE5
:10424000F9F7BEFBF7F028BF4FF4704606F008F808
:10425000000200F5FA70B0FBF9F0404306FB0600DF
:1042600005F0FEFF0F9B0E9909FB00F79F4228BF48
:104270001F46B4F85401D4F85831C4F8407103FB18
:1042800000F909F18009009B4FEA192909FB00F99F
:10429000002B54D00D9A304B03EA8223009A03EB93
:1042A0005203B3FBF2F303EB43035B4303F5004319
:1042B0001B0C06200335B5FBF0F5C5EBC505B5F5C0
:1042C000803F37BF0A9A254A0332B2FBF0F23FBF64
:1042D000C2EBC20202F50042120C52434FF4FA65DF
:1042E00009F12000B1FBF5F1884442440899B2FB82
:1042F000F1F280099203FE217F32B2FBF1F203FB5F
:1043000002F805F0ADFF4FF47A7A08F5FA78B8FBB9
:10431000FAF84FEA081808F5FA780646B8FBFAFAF0
:10432000BAF1000F04D0B8FBF5F5A944B9FBFAFACD
:10433000504605F095FF864228BF06468AE6009B58
:10434000B7E71F4694E6039F95E600BFAE878F024E
:10435000666666009A9906000000FCFF0000F0FF08
:104360000000FFFF4D4694F82B80B8F1000F74D089
:10437000029B002B6CD0009B4FEA032A029BBAFBE6
:10438000F3FA17AA03212046FFF730FD179B002BF5
:1043900061D0534594BF4FF0000A4FF0010A002846
:1043A0005CD00026B646039B002B00F0838007F00C
:1043B0000107019A94F8293084F82E70042A7BD0E2
:1043C000B3FA83F35B09B9F1000F08BF0125B8F117
:1043D000000F08BF4FF0010A05F001050AF0010ABD
:1043E00084F8305084F82F3084F831A004F150055F
:1043F0000FCD17AF0FC795E80700002387E8070028
:104400001893009B1A93069B1B93BDF80830ADF8D8
:1044100070309DF82430ADF866608DF874E0ADF82A
:1044200064B08DF873300DF15C0EBEE80F0004F13E
:1044300050060FC697E8070085E807002046FFF7FB
:1044400048FC054600283CD028461FB0BDE8F08F48
:10445000DDF808A095E79A46A1E7C2460B9B03BB8F
:10446000019B013B022B1FD9019B062B53D0092B2B
:1044700051D0049B03F00D03082B18D0012D16D04A
:10448000019B042B60D0BAF1010F50D0012F51D005
:10449000BA463D4685E74FF00008C146C24645464C
:1044A0007FE74FF0FF0E7EE74FF0050E7BE74FF002
:1044B000030E78E701277CE7012384E76FF01305FB
:1044C000C2E70122FF212046FFF7A9FB054600288D
:1044D000BAD10C9AB6212046FFF74CFB05460028BE
:1044E000B2D10246FF212046FFF799FB054600287E
:1044F000AAD1059A01212046FFF791FB0546002825
:10450000A2D19DF8143084F830319DE7474508BFAB
:104510006FF0060598E74FF0040E039B002B7FF425
:1045200046AF012294F8293084F82E2048E74FF056
:10453000020EF2E75546BE46EFE7012384F82E301F
:10454000039D4FF0020E3EE7039B002BF5D04FF08A
:10455000020E2CE708B506220B4690F85C01B0214C
:1045600004F021FD00280CBF6FF01300002008BDEF
:1045700013B502AA00230C4602F8013D0121FFF702
:104580000FFB78B99DF80730C3F300122270C3F314
:10459000C002A270C3F380026270C3F38012DB0911
:1045A000E270237102B010BD2DE9F04786B0037CA4
:1045B0000B700C4603AAF8210546FFF7DBFA064606
:1045C00028BB04AA04212846FFF7C2FA0646F0B920
:1045D000BDF80C201AB1049BB3FBF2F3A360A368EF
:1045E000AB610023237304AA20212846FFF7C2FAF7
:1045F000064660B9BDF810306BB92A6A22612B7784
:1046000004AA28212846FFF7B5FA064640B13046ED
:1046100006B0BDE8F087DB0023612B620123EEE7E3
:10462000BDF81030C3F30B03B3F5006F4FF0FA027F
:1046300026BFA3F5805313FB02F35343636104F1D8
:10464000240805F1280A04F1180900274246B9B2E6
:104650002846FFF7CBFB06460028D8D101371AF8C9
:10466000013B09F8013B062F08F10408EED104AA2A
:1046700001212846FFF794FA06460028C7D19DF885
:10468000103085F830311B064ABF012384F83C0006
:1046900084F83C3094F83C3085F84C304FF4FA63A1
:1046A00002930023039340F63633636004A928463F
:1046B000FFF75EFF06460028A9D19DF810302BB900
:1046C0009DF8113013B99DF81230CBB102AA022126
:1046D000284605F000FD00283ED19DF810302BB192
:1046E000029B03F24E226368134463609DF812300C
:1046F000DBB1029B03F2B222636803EB4203636007
:104700009DF813305BB103AA0321284605F0E3FCB2
:10471000039B03F52572636813446360E0B99DF859
:10472000143063B963686B6171E79DF81130002B39
:10473000E6D0029B03F5257263681344DFE701AA04
:104740000421284605F0C7FC019B03F2262263687A
:10475000134463600028E5D0064658E738B50446A0
:104760000D4601F07F0204308A21FFF758FA84F8E1
:10477000605138BDB34A2DE9F04F116842F20F7312
:10478000441A9C4289B040F2308113791060002BAA
:1047900047D0B2F906400A2C12DCD3689568536101
:1047A00000265362013400231561D66196611562BB
:1047B0009362D36253639363D36313645364D4806B
:1047C000B2F94840052C40F3D880B2F94A3002EBE8
:1047D000830501331BB2052B2E6DED6ED664C8BF69
:1047E0000023013C9566A2F84A30A2F84840D2ED79
:1047F000067A92ED137A37EE877AD2ED027A77EE67
:10480000C77A92ED1A7AC2ED217AD2ED077A37EEA5
:10481000877AD2ED037A77EEC77A0023C2ED227A47
:10482000137107EE900AB8EE677A07EE901AF8EE69
:10483000677A516B069177EE677A9FED837A916B79
:104840000491C7EE875A0023D16BA2F88C300291F5
:10485000156C516C01930393059307931F46D2ED9A
:10486000242A92ED253AD2ED263A92ED274A774A4C
:104870009FED772ADFED771ADFED774A02F1080026
:104880000090A2F11C09A2F1880C02F11004A2F11F
:10489000900EA2F180081846A2F1780BA2F1A00AAE
:1048A0001EB2022E74D0002D6CD05BF8237007EE80
:1048B000105A07EE907AF8EEC76AF8EEE77A87EEBC
:1048C000A67A84ED007AD4ED007A22EEA77AB4EECF
:1048D000E17AF1EE10FA58D4B4EE647AF1EE10FAFF
:1048E000C8BFB0EE647A012E84ED007A0DD10021AC
:1048F000CAF82810CAF82C10304601960291039687
:1049000004910596069107960D46B9EC016AD2ED21
:10491000007A009E66EE036A26EE235AE5EEA67A3A
:104920000133D6ED006AE2EC017AE5EE856A77EEB6
:10493000877A26EE045A9CED006AE4EC017A65EE73
:10494000A77AA5EE856AB6EE007AB0EE665AA7EEB3
:10495000875A9EED007AACEC016AA5EE857A76EE78
:10496000A77A36EE076AE6EC017A00960126AEECED
:10497000017AA8EC016A374692E71369D364536958
:10498000936634E784ED002A9DE79FED327AAAE72B
:104990002C4B0FB1A3F88C60079A02B11D64059AE5
:1049A0000AB1069A5A63039A0AB1049A9A63019A61
:1049B0000AB1029ADA6300B1596493F8B82001325F
:1049C000D2B2092A14D883F8B820D3ED2A7AFDEEA2
:1049D000E77A17EE902AD3ED2B7AA3F8BA20FDEEF2
:1049E000E77A17EE902AA3F8BC2009B0BDE8F08F53
:1049F0000022B3F9485083F8B820B3F84A20174C86
:104A0000D3F810E05F69A8B2111889B20EB2052E72
:104A1000CABF063926802180B4F9001003EB81015A
:104A2000052DC1F850E0CF6603DC0130A3F8480043
:104A3000CBE7013212B2052AC8BF0022A3F84A20F0
:104A4000C3E700BF84100020002474492411002013
:104A500000000000000048C4000048441600002088
:104A6000F8B5B74CD4F8C030013B062B00F2EC800F
:104A7000DFE813F007005D00940004012001460107
:104A8000CB01B04DD4F8C4202B689B1A40F6980295
:104A900093420DD9D4F8C83043F00803C4F8C830A5
:104AA0000023C4F8C0300120BDE8F84006F0E8BBA0
:104AB000A54FA64E012006F0E3FB3B684B221A717E
:104AC0005A71D4F8C83083F00803C4F8C830D4F859
:104AD000CC30632B03DC4FF4FA63F380F8BD012084
:104AE00006F0BEFB94F8D0206E2332B93A685371B9
:104AF0004FF47A737380022307E0012A0BD13A68DE
:104B000053714FF4FA6373800523C4F8C0302B68E7
:104B1000C4F8D430F8BD032A3A68137103D14FF4B6
:104B20007A733380E7E74FF4FA633380ECE7D4F825
:104B3000C830012083F00803C4F8C83006F090FBA9
:104B400094F8D0207F4B81494FF47A7052B9B4F970
:104B5000DA204880B2F5E17F07DD0322C4F8C020E7
:104B60001B68D5E7032A088012D00222C4F8C020AF
:104B70001B68D4F8D4209B1AB3F5FA6F64D30023D2
:104B8000C4F8C030C4F8D430BDE8F84007F000B82D
:104B9000B4F9D810B1F5E17FE7DDDFE794F8D03064
:104BA0009BB9B4F9DA30B3F5E17F4EDDD4F8C83003
:104BB000012083F00803C4F8C83006F051FB634BB2
:104BC00040F27E425A805F4BD2E7032B3CD1B4F9CE
:104BD000D830B3F5E17F18DDD4F8C830012083F078
:104BE0000803C4F8C83006F03BFB584B4FF483620F
:104BF0001A80544BD4F8D4201B689B1AB3F5FA6F73
:104C000022D30023C4F8C03082E79BB2B3F5E17F22
:104C10001AD8B4F8DA30FA339BB2B3F5FA7F13D866
:104C2000D4F8C830012043F00803C4F8C83006F0B7
:104C300027FB464B4FF483621A80424B1B68C4F833
:104C4000D4300423C4F8C030F8BD9BB2B3F5E17F83
:104C5000FAD8B4F8D830FA339BB2B3F5FA7FF3D868
:104C6000D4F8C830012043F00803C4F8C83006F077
:104C700007FB364B40F201425A80DEE7D4F8C830D9
:104C8000012043F00803C4F8C83006F0F9FA2F4BAE
:104C90004FF4FA62DA802C4B1B684B225A711A715E
:104CA000284BD4F8D4201B689B1A40F2DC52934264
:104CB000A7D8C6E7012006F0D3FA94F8D020214BFC
:104CC0002249012A09D14FF4FA624A80B4F9DA2064
:104CD00012F5E17F06DA062240E740F2B770022AB9
:104CE00008800AD00522C4F8C0201B68D4F8D4205C
:104CF0009B1AB3F5FA6F84D2F8BDB4F9D820E7E770
:104D000094F8D000012823D1B4F9DA3013F5E17F0B
:104D10005FDAD4F8C83083F00803C4F8C83006F06E
:104D20009FFA0A4B40F23A725A80064BD4F8D420CC
:104D30001B689B1AB3F5FA6FBFF463AFF8BD00BFF1
:104D400084100020501B0020581A0020D80F00208B
:104D500002287FF479AFB4F9D83013F5E17F16DA81
:104D6000D4F8C830012083F00803C4F8C83006F036
:104D700077FA384B40F2B7721A80374BD4F8D42008
:104D80001B689B1AB3F5FA6FBFF43BAFF8BD03F590
:104D9000E1739BB2B3F5C87F3FF656AFB4F8DA3093
:104DA000FA339BB2B3F5FA7F3FF64EAFD4F8C83072
:104DB000012043F00803C4F8C83006F061FA254B1F
:104DC00040F23A721A80244B1B68C4F8D43007238F
:104DD00038E703F5E1739BB2B3F5C87F3FF634AF14
:104DE000B4F8D830FA339BB2B3F5FA7F3FF62CAF64
:104DF000D4F8C83043F00803C4F8C83006F040FACD
:104E0000144B40F2B7725A80DDE7D4F8C830012065
:104E100043F00803C4F8C83006F032FA94F8D030F2
:104E2000012B0C4B4FF4FA621CBF4FF4AF61198099
:104E3000DA800A4B1B684B221A715A71064BD4F860
:104E4000D4201B689B1A40F2DC5293423FF6D9AE45
:104E5000BDE700BFD80F0020501B0020581A0020CB
:104E6000030F064BDA6A14BF22F4785222F4F87268
:104E7000DA62DA6A1043D862704700BF001002405D
:104E8000A84B5A6802F00C02042A2DE9F04100F008
:104E9000B880082A00F0B980A3490160002A40F0D8
:104EA000B2805968A14FC1F3031139448E7801686B
:104EB000F6B221FA06F444605D68C5F302253D446C
:104EC00095F802E024FA0EFEC0F808E05D68C5F32C
:104ED000C2253D44AD78EDB2EC40C460D3F82C80DF
:104EE0004FEA181808F00F0C07EB4C0C18F0100FD5
:104EF000BCF812C01FFA8CFC00F09C80BCF1000FC3
:104F000000F09880B2FBFCFCC0F810C0D3F82CC0B5
:104F10004FEA5C2C0CF00F0807EB48071CF0100F51
:104F20007F8ABFB200F08880002F00F08580B2FB3E
:104F3000F7F747611F6BFF065ABF7B4F876181619F
:104F40001F6BBF065ABF784FC761C1611F6B7F06D9
:104F50005ABF754F076201621F6BFF056ED58A420B
:104F60006CD1AE426AD1570047621F6BFF0467D510
:104F70008A4265D1AE4263D1570087621F6BBF057D
:104F800060D58A425ED1AE425CD15700C7621F6BCA
:104F90007F0559D58A4257D1AE4255D15700476453
:104FA0001F6B3F0552D58A4250D1AE424ED15700B9
:104FB00087641F6BBF044BD58A4249D1AE4247D1AB
:104FC0004A00C2641A6B920744D104631A6B12F44C
:104FD000403F56D1C0F834E01A6B12F4402F6AD12A
:104FE000C0F838E01A6B12F4401F7FD1C0F83CE0E3
:104FF0001A6B12F4400F40F09D80C0F840E0BDE80D
:10500000F081494A026000224BE75A685968C90397
:1050100049BFD96A4649444C01F00F01C2F38342AB
:1050200048BF013102F1020248BFB4FBF1F14A432B
:10503000026036E7016169E741617BE7446294E71A
:1050400084629BE7C462A2E74464A9E78464B0E792
:105050008464B7E71A6B02F00302012A01D10163ED
:10506000B4E71A6B02F00302022A03D14FF40042A4
:105070000263ABE71A6B02F00302032AA6D12A4AA5
:10508000F6E71A6B02F44032B2F5803F01D141637A
:10509000A2E71A6B02F44032B2F5003F03D14FF49D
:1050A0000042426398E71A6B02F44032B2F5403F87
:1050B00092D11D4AF5E71A6B02F44022B2F5802F17
:1050C00001D181638EE71A6B02F44022B2F5002F02
:1050D00003D14FF40042826384E71A6B02F440224A
:1050E000B2F5402F7FF47EAF0F4AF4E71A6B02F45B
:1050F0004012B2F5801F01D1C16379E71A6B02F447
:105100004012B2F5001F03D14FF40042C2636FE7B3
:105110001A6B02F44012B2F5401F7FF469AF024AE5
:10512000F4E700BF0010024000127A0016000020D1
:1051300000093D001A6B02F44002B2F5800F02D163
:105140000164BDE8F0811A6B02F44002B2F5000F71
:1051500004D14FF400430364BDE8F0811B6B03F4FA
:105160004003B3F5400FF7D1004BF4E700127A008B
:1051700038B52DED048B4A4C0368C4F8DE308388C3
:10518000A4F8E230023A0D46062A05D8DFE802F01C
:10519000545B6269747A8100B4F8DE300B80B4F835
:1051A000E0306B80B4F8E230AB803E4B93F83230A5
:1051B000002B3ED1B5F9003094ED3C0AD4ED397A9C
:1051C00009EE103AB5F9023008EE103AB8EEC88A86
:1051D000B5F90430B8EEC99A28EE000A08EE903A04
:1051E000A7EE890AF8EEE88AD4ED3F7AA7EEA80A7E
:1051F0000AF0E4FF94ED3D0AD4ED3A7A288028EED7
:10520000000AA9EE270AD4ED407AA8EEA70A0AF010
:10521000D5FF94ED3E0AD4ED3B7A688028EE000A73
:10522000A9EE270AD4ED417AA8EEA70A0AF0C6FF34
:10523000A880BDEC048B38BDB4F8E0300B80B4F826
:10524000DE305B42ADE7B4F8DE305B420B80B4F891
:10525000E030F6E7B4F8E0305B420B80B4F8DE30C3
:105260009FE7B4F8DE305B420B80B4F8E0306B802F
:10527000B4F8E2305B4297E7B4F8E0300B80B4F862
:10528000DE30F4E7B4F8DE300B80B4F8E0305B4297
:10529000EDE7B4F8E0305B420B80B4F8DE30F6E7BF
:1052A000841000201600002010B53C4C05F0ACFB2B
:1052B00094F80831032BB4F80A3129D10A2B1FDDE9
:1052C0000023282084F8083100F00DFA05F09CFB3B
:1052D000B4F80C0105F080FBD4F81021D37890FBD2
:1052E000F3F001300828A8BF0820537980B213FBDF
:1052F00000F3A4F81431137913FB00F0A4F816019D
:1053000094F80831012B1CD00DD3022B36D010BDE0
:105310000A2BF5DC032384F808310023A4F81431A8
:10532000A4F81631ECE7B4F81421B4F80A319A4223
:1053300032DD012384F808310820BDE8104000F078
:1053400069B994F81831B4F80A2123F0020384F8FB
:105350001831B4F81631934204DD022384F8083181
:10536000072016E0B4F8143101339A4210DD00230F
:1053700084F80831BDE8104001F0E8BEB4F81631F9
:10538000B4F80A2101339A42EADD012384F8083196
:10539000082000F03FF9EDE710BD00BF84100020A9
:1053A000044A536823B192F90020824200D1184781
:1053B000704700BFA8110020034B1B68DA79511C0D
:1053C000D9711344187A7047F01E002010B5FFF70A
:1053D000F3FF84B2FFF7F0FF04EB002080B210BDB2
:1053E000064B10B501460446986805F04FFE044B85
:1053F0001B689A7954409C7110BD00BFA811002011
:10540000F01E002010B50446C0B2FFF7E9FF200AE5
:10541000BDE81040E4E710B5044680B2FFF7F2FFA4
:10542000200CBDE81040EDE7024B0146986805F0FE
:105430002DBE00BFA81100202DE9F34188469DF83C
:1054400024E0184E11461A469DF8203005460C24DB
:105450000020042807460AD0013004FB006C1CF928
:105460000CCCAC45F5D104FB0764208908B10020C1
:1054700002E025B1012D11D002B0BDE8F0810A484B
:10548000CDF800E003F07EFA0028F5D00C2303FBF2
:1054900007660571A6F808807060EDE7CDF800E0BA
:1054A0000248EFE73C0A0020003801400044004079
:1054B00070B50E490E4A0B7B12680025032B05DDE3
:1054C00005B10B73002070BD2346F7E702EBC3065E
:1054D0005C1CB6883042E4B24FF00105F4D00C7386
:1054E0000820022110FB0310104470BDA8110020F9
:1054F000141F0020014B00221A73D9E7A8110020C5
:105500002DE9F0411D4D00240A274FF47A76827868
:105510001FFA82FEA4EB0E031BB2002B2ADDC2F1A0
:105520006402D2B290F8038003FB03FC08FB0CFC7E
:10553000C8F164080EEB8E0E12FB02F29CFBF2F235
:105540004244534393FBF7F303EB4E031BB26B80D0
:105550000A88B1F802E00A34AEEB020EA4B203FBF3
:105560000EF3782C93FBF6F3134425F8023FCED1CB
:10557000BDE8F08108BF0122D4E700BFB4110020CC
:1055800030B50C4C002340F6C415072B10D003FB9C
:1055900003F2A2F1190142784A4302F6C4120178DB
:1055A0005A434A4392FBF5F224F813200133ECE707
:1055B00030BD00BFCE1100200430104B10B533F9C0
:1055C00010200C7840F633039A42A8BF1A46B2F571
:1055D000617F4FF0190340F28330B8BF4FF461721E
:1055E00013FB0404944207DA497813FB010090424C
:1055F000B4BF0020012010BD002010BDD80F002036
:10560000034B002283F834209A639A871A64704708
:10561000A811002070B408B970BCF1E70E4A00234D
:105620000C25114605FB03F4A65C864209D10B4B01
:10563000186C50B1224455784278954205DB70BC15
:1056400070470133102BEDD1F9E700222144196492
:105650009A879A63F3E700BFD01F0108A8110020C2
:1056600040000C4A142870B4A8BF1420002302F193
:105670004401022614255E540233CC18984204F8E3
:10568000015CF8DC1344FF2283F844200F2070BC37
:10569000C0E700BFA811002010B50A490A480A68EF
:1056A000846800BF0B689A42F9D1084BD96D4FF45A
:1056B0007A7000FB01F31B1BB3FBF1F300FB02301C
:1056C00010BD00BF501B002010E000E0A81100201A
:1056D00038B50446FFF7E0FF0546FFF7DDFF401B46
:1056E000A042FAD338BD10B5044604B910BD4FF43A
:1056F0007A70FFF7EDFF013CF7E72DE987482D4C65
:1057000006460B27013FFCD04FF01E0B05254FF03E
:10571000020806F0400906F0200A00E00025B9F171
:10572000000F04D0A38A9BB283F48043A382BAF112
:10573000000F04D0A38A9BB283F40043A38216F027
:1057400002021FBFA38A9BB283F40053A382584670
:105750000192FFF7C8FF019AB9F1000F04D0A38AA4
:105760009BB283F48043A382BAF1000F04D0A38AD2
:105770009BB283F40043A38222B1A38A9BB283F439
:105780000053A3825846FFF7AEFF7DB1013DC6D15D
:105790004FF4FA70FFF7A7FF4FF0960BB8F1000F28
:1057A000BCD14FF47A70FFF79EFFABE708F1FF38EA
:1057B000F4E700BF00080048024A13680133136091
:1057C000704700BF501B00200920E9E52820E7E5CD
:1057D00006EE901AB8EEE66ADFED106A104B9FED08
:1057E000117AB3F8603026EE266AF7EE005AC5EE5D
:1057F000866A07EE903AF8EE677A67EE877A90ED60
:10580000007A76EEA76A30EE470A87EEA66AA6EE21
:10581000007AB0EE470A80ED007A7047DB0FC9408E
:10582000A8110020BD3786352DE9F74F244D254EB0
:10583000254F002495F86280E0B240450ADA56F818
:1058400020302BB10B2803DCDB6837F810109847A9
:105850000134EFE71D4B1B685B032DD50025194F65
:10586000DFF86CB029464FF0500A4FF028092A465D
:10587000EEB2B04520DD57F826305C688C4214D07B
:105880002046019203F02CF8EFF312838AF312887A
:10589000616A09FB00B001314162616941F00101B7
:1058A0006161DBB283F31188019A57F826301B68D7
:1058B00001351A602146DBE703B0BDE8F08F00BF79
:1058C000A8110020C4120020020A0020D40F0020DA
:1058D000601B00202DE9F04FF34BF44CD3F80090FF
:1058E000D4F868A0F24DDFF80C84F24FF24E2DEDA3
:1058F0000A8BD14583B0B0EE40BADFEDF08ADFED20
:10590000F09A9FEDF09A9FEDF0AA00F01483EF4B10
:10591000C4F868901A780193DFF8DCB3002A4ED1FE
:10592000BBF90230D5ED085AD5ED060A07EE903ADC
:10593000BBF9043000EE103AB8EEC07AF8EEE77A20
:1059400095ED070ABBF9003065EE876AB7EE006A8D
:10595000E7EE806A20EE470AA0EEE06AA7EEA50A0D
:1059600060EEE60A06EE903AF8EEE66AB1EE400A1C
:10597000E6EE260A0AF070FDDFEDD57AB4EEE70A0E
:10598000F1EE10FAB0EE401A00F1B182DFEDD17AFB
:10599000B4EE670AF1EE10FAC8BFB0EE671ACE4A4D
:1059A000D2ED010A92ED000A02F06AFC019BC8EDFB
:1059B000008A0122C8ED018AC8ED028A1A70BBF97B
:1059C0000030D5ED01AAD5ED006A07EE103ABBF91B
:1059D000023008EE103AB8EEC88AB8EEC77ABBF9C2
:1059E000043068EE2AAA07EE903AE7EE26AAF8EE0F
:1059F000E77AD5ED026AE7EEA6AAD5ED046AC4ED12
:105A00001BAA28EE268AD5ED036AA7EE268A95ED15
:105A1000057AA7EE878A28EE08CA84ED1C8AB0EEC4
:105A20004C0AAAEEAA0A0AF095FDCAEE80BAB0EEB8
:105A30004C0AABEEAB0A0AF08DFDDFEDA87AB0EEB2
:105A4000EB7AB4EE677AF1EE10FA09DCC8EE00AA40
:105A5000B0EEEA7AB4EE677AF1EE10FA40F36882BB
:105A6000DFED96AA97ED010A97ED007AD7ED027A5D
:105A7000D5ED08BA20EE000AA7EE070AA7EEA70A9E
:105A80000AF068FDD5ED097AF4EEE97AF1EE10FA44
:105A9000B4EEC90A48BFC5ED099AF1EE10FAB0EEAE
:105AA00040CA00F12782DFED957AB4EEE70AF1EE05
:105AB00010FA00F32282C0EE097A6BEEAABA95EDD5
:105AC000098A94ED1E0A6BEEA77A20EE000A27EEF3
:105AD000888AD4ED1D7AA7EEA70A0AF03BFDF1EE05
:105AE000007AB4EEE70AF1EE10FA9DBFF1EE027A09
:105AF00077EEC07A9FED7A0ADFED7A7A336898BF45
:105B000067EE807AD90768EE277A58BFB2EE007A3E
