:020000040800F2
:1000000000A0002099020108010301080103010872
:1000100001030108010301080103010800000000B9
:1000200000000000000000000000000001030108C3
:100030000103010800000000010301080D5600083B
:10004000010301080103010801030108010301087C
:10005000010301080103010801030108010301086C
:10006000010301081D5600080103010801030108EE
:100070000103010801030108259300080103010899
:10008000010301080103010801030108010301083C
:10009000010301080103010801030108010301082C
:1000A000F1A1000845A20008E1A100081392000890
:1000B00035A2000825A2000815A2000801030108C6
:1000C00001030108010301080103010801030108FC
:1000D000010301081D93000815930008010301089E
:1000E000215600080103010801030108010301086A
:1000F00011A200080103010801A200080103010880
:1001000000000000000000000000000001030108E2
:1001100001030108010301080103010801030108AB
:10012000010301080103010801030108010301089B
:1001300001030108010301080000000000000000A5
:100140000103010801030108010301080000000088
:10015000000000000000000000000000000000009F
:100160000000000000000000010301080103010875
:100170000103010800000000000000000000000072
:0801800000000000010301086A
:1001C0002DE9F04FB1B009F093FB18B909F0F6FC36
:1001D0000BF0D6F9BF4DC04C09F0B0FB2B7843F0C3
:1001E00001032B70BD4B4FF47002C3F8882000232D
:1001F000089309930A93236843F4803323602368A8
:1002000003F400330993089B01330893099B1BB93E
:10021000089BB3F5A04FF2D1236813F4003318BF45
:1002200001230993099B012B40F0798202230A9351
:10023000AB4B12221A606368636063686360636833
:1002400043F480636360636823F47C1363606368D2
:1002500043F4E8136360236843F0807323602368EA
:100260009901FCD5636823F003036360636843F07E
:1002700002036360636803F00C03082BFAD10A9B46
:10028000964F6B60974BFB60636A636ADFF89C82F2
:10029000DFF89CB2DFF89CA243F08073636263696D
:1002A00043F4FC0330AE636103238DF8723041F6F2
:1002B000FF7326F8503D4FF09040314606F026F887
:1002C0004FF6FF7331468848ADF8703006F01EF8DF
:1002D0003146404606F01AF83146844806F016F8D2
:1002E0003146834806F012F83146824806F00EF88F
:1002F000304607F093FC1C9B7F4AB3FBF2F37F4A26
:10030000DFF834E213607E4B7E4A4FF0000CC3F8F6
:1003100000C0C3F804C07C4B5A60F02287F8232049
:100320000722C3F808C01A60DBF80830CAF80030AA
:10033000BEE80F0037460FC7BEE80F000FC79EE8A4
:100340000F0087E80F00636943F40023636163696A
:1003500043F400236361636943F4002363616369C9
:1003600043F4003363614FF0904310221A8520223A
:100370001A8540221A854FF40043C8F818304FF40C
:100380008043C8F818304FF40053C8F81830674657
:10039000CDF80CA0391DF0593144083705F0B6FFEF
:1003A000302FF7D1039B594AD3F80090584BDFF810
:1003B0008C811A60574B04221A7000213A4640463D
:1003C00011F000FD0127002188F8001088F81810AE
:1003D00088F8241088F80C70142217A811F0F2FC89
:1003E00019F4802F08BF4C4BDFF8FC8008BF1F704A
:1003F0002B784A4FDFF8489143F004032B7006F046
:10040000C5F8474B1F60636943F480236361E36968
:1004100043F40013E361236B23F010032363236B86
:1004200043F010032363D8F8243023F00F03C8F8F7
:100430002430D8F8243043F00403C8F82430D8F826
:10044000243023F0F003C8F82430D8F8243043F0E7
:100450004003C8F8243002234FF0000A4FF48072A2
:100460008DF87430049331464FF0030340468DF805
:1004700075301C928DF876A08DF877A00AF01EFFDB
:100480004FF40072314640461C920AF017FF3A685A
:10049000039B22F001023A603968224A0A403A601E
:1004A000214A3A613A6842F001023A60C7F808A06E
:1004B000C7F80CA0C7F808A0BA6842F40042BA60B6
:1004C0003A683A607A6822F0784222F400427A6010
:1004D0003A6837E08C0700200010024000ED00E091
:1004E000002002400005FA0500040048000C004806
:1004F000001000480014004840420F00081100207E
:10050000AC1000203F19010010E000E0360C002084
:10051000141F00203C0A00206807002000540040FF
:100520008C0A0020FFE0CF007A25E0000008004898
:10053000A00A0020FC0F002018200108400A00201B
:10054000101E002042F001023A601F68102251463E
:10055000484611F037FC049B8DF851304FF6FF727E
:100560004FF0030307F0020713928DF852A08DF8A5
:1005700053A08DF8503087B130A9012741F8747D20
:1005800040460AF09BFE0C2389F80030072389F8C7
:1005900001A089F8033089F802704FF4D87007F091
:1005A0002DFB63695F4843F0805343F002036361AE
:1005B00007F024FB636943F0005343F002036361D7
:1005C000594C20460AF091FD30460AF063FD4FF485
:1005D0008072564B22924FF480621C932392544BAC
:1005E0001D93202200232046249231464FF40052CE
:1005F0001E932093219325922693ADF87C700AF0E8
:1006000056FD236843F0010323604A4CA36823F09E
:100610004053A360A36843F08053A3600A2004F012
:100620008CFFA36823F08043A360A368A360A36842
:1006300043F00043A360A368002BFCDBA3683E4AA1
:10064000DFF8F08023F04053A360A36843F0005329
:10065000A3609168394B0B4043F468339360E268C0
:10066000374B134043F40053E360236B013F23F007
:100670000F031F4327630122002409EB0403997829
:1006800041B1571CFFB2DB7819F8041040460AF05C
:10069000B9FD3A460434102CEFD1264B9A6842F04B
:1006A00001029A601A68D207FCD5DA6822F00202C9
:1006B000DA60DA6842F00202DA60DA6842F00102D7
:1006C000DA609A6842F004029A60BBF9E830002BC5
:1006D0003ED007EE903ADFED1B6ABBF9EA301A4ACA
:1006E000F8EEE77A07EE103A67EEA67ABBF9EC303F
:1006F000CDED1C7A07EE903AB8EEC77AF8EEE77ABD
:10070000002127EE267A67EEA67A117030460F494F
:100710008DED1D7ACDED1E7A0AF090FE20E00123CA
:100720000A93ACE500360010580402404004005023
:10073000201E00200004005000070050E010FCFFC5
:1007400007C0FFFD35FA8E3C8C000020A01400206D
:10075000BBF9EA20002ABCD1BBF9EC20002AB8D1B1
:10076000DFF85083BBF8F030DFF84CA3059300248A
:100770009BF8EF30C8F8004010222146C8F804402A
:10078000C8F80840BB4804932C729BF8F77011F02E
:1007900019FBB94BA5F809402320CAF80040CAF854
:1007A0000440CAF808401C6004F0C7FE0BAA0121EF
:1007B000752003F017F8D146F0B1B04BCAF80430F9
:1007C000AF4BCAF808300FAA4323012120468AF80C
:1007D000003003F007F89DF83C3003F07E038DF8FD
:1007E0003C30002800F0EE80682B40F0EB800123C5
:1007F0006B721D238AF800306A7AA24B069300219F
:10080000042A197040F0F5879A4B9F4A9F4C1A6052
:100810009F4A5A609F4ADA602268079142F00100BD
:1008200020609A464FF0010940F2022040F2FD1E7E
:10083000049B0A2B28BF002309FA03F111EA000CDC
:1008400040F0DD8711EA0E0F00F0D987924B83F854
:1008500000C0924BC8F8003042F00302904BC8F839
:100860000430226023689B0702D5D8F800309847EF
:10087000DAF800300598DFF8448298474FF0000915
:10088000CA4688F800A01FB1BB1E022B00F2DB8015
:100890003346012200210C208DF8709002F028FFD1
:1008A000002800F0D0809DF87030482B40F0CB80BD
:1008B0007C4B7D4A1A607D4A5A60062388F80030D6
:1008C000236843F0080323609BF8E4300BB1069AD9
:1008D00013709BF8E5300BB16F4A13709BF8E6304C
:1008E0000BB188F800309BF8F830042B00F2B2808E
:1008F000012404FA03F212F016085ED112F0090F77
:1009000000F0A6800A2004F018FE13AB2246A021B6
:10091000772002F0EDFE00284FD022461E217720DE
:1009200002F0E2FF4FF42F60614F04F0FBFDC1467F
:100930003C46A8F1600133460222C9B277208DF807
:1009400070908DF8719002F0D3FE9DF870209DF8A4
:10095000713043EA022328F8073008F10208B8F1A1
:10096000100FE6D1FA89002302F00F0602F47F424D
:10097000FA8119460127481034F81000002818BFE2
:10098000002711F0010F1ABFC0B2434083EA1023C1
:10099000082013F4004F18BF83F4C05301384FEA06
:1009A0004303F6D101311029E5D13243E28127B961
:1009B000C3F303339E4200F02D872B7A43F02003CC
:1009C0002B724CE09DF82C3003F07E03682B8DF8E1
:1009D0002C3033D1022306216B723246D9F8043011
:1009E000084698479DF875309DF873209B0052008B
:1009F00002F0020203F0040313439DF8712002F099
:100A000001021343DAB25BB1012A02D10023AB72B7
:100A1000F2E6022A01D10123F9E7022004F097FD52
:100A2000D9F8043013AA01210C2098479DF84C30C6
:100A300013F00F03F1D0042BEDD1E7E7702B04BFC7
:100A400004236B72D8E6012F7FF63EAF002718E72C
:100A5000012BB2D00D4A136843F0040313606B6896
:100A6000012B02BF2B7A43F040032B722C7A3CB34C
:100A70002046D3E714130020840A0020E53700083D
:100A8000FD380008F004002035360008D8090020A1
:100A90006935000890C1793D50050020DD36000819
:100AA000AD350008781000208D600008C95F00088F
:100AB000381A002044050020740A0020801000200D
:100AC0002B7843F002032B70A64D4FF480432B8507
:100AD0004FF40043AB611026013E15D0AB8A9BB2A8
:100AE00083F48043AB82AB8A9BB283F40043AB8236
:100AF000AB8A9BB283F40053AB82192004F01DFD36
:100B0000192004F01AFDE7E74FF40043AB614FF4FE
:100B10008043AB61944E4FF40053AB6132681007D1
:100B200005D5924B1B689847914B01221A70914B47
:100B3000DFED916A1B68914D1A7B914B1A80914BA6
:100B40001B8807EE103AB8EEC77A8F4BC6EE877A4D
:100B50001B22FF2128469FED8D7A67EE877AC3ED31
:100B6000007A11F02FF900222A703268884B012197
:100B700012F0020F1970284604D069700321197011
:100B80000221A970510704D519784D1C1D70032549
:100B9000455412F00A0F40F04E86039A1568AA06D3
:100BA00004D51A78511C1970072181549BF805202F
:100BB000082A01D00E2A04D11A78511C19700B2171
:100BC00081541A786F0702F101014FF00C06865428
:100BD000C9B248BF0232197042BF1A701022425483
:100BE0001A781226511CC9B286546E05197004D5A4
:100BF0009BF8B861002E40F02D86A90504D51A781F
:100C0000511C197015218154EA0504D51A78511C1C
:100C100019701A238354982200215E485D4DDFF835
:100C2000A0A111F0CFF8012004F08EFB4C2758B39F
:100C3000012C29DC07FB04F905EB090898F84A6048
:100C400016B10134E4B2F2E7037990F9000001969D
:100C50000AEB8303032200921B6B3246012104F04E
:100C600015FB834660B104FB07504C22314611F05E
:100C7000A9F801231C4445F809B088F84A30E4B2C9
:100C8000012004F03FFBD2E7434B2A681A60434B34
:100C9000434E444A1E60002313809370424ADFF89B
:100CA00024C113605360414ADFF81CE11468404AD4
:100CB0001660404AF0891370A6F59B76B6F8462177
:100CC000643204F17D0107B212B2A3F10805EDB25E
:100CD000022D394D94BF25F8132025F81370DCF848
:100CE000005005F516754EF823500133122BECD148
:100CF000324B03931D68304B15F4805F08BFB6F983
:100D00004A71DF80CD348C421DD00B788BB98A7844
:100D1000CB789A420DDA72B1013A02EB820202EB11
:100D2000820202F561734A78234F04329BB227F89E
:100D300012300431E7E7013303EB830303EB830352
:100D400003F56173EFE72B074DD596F83E21062A90
:100D500043D8DFE812F03B008E009100BB00D500C5
:100D6000EF00EF0000080048D809002078100020AC
:100D70009C100020F41A00200AE81C41DD09002024
:100D8000900500200E000020501400200000C842F2
:100D9000DC090020C4050020B410002074090020E4
:100DA000D60B0020A01A0020C41A00205C1A0020D4
:100DB000641A0020F708002000100020FC0F00201B
:100DC00018200108401B00208C09002045F2F05239
:100DD000754B1A8003F03AFA28B908200AF0C0FBD4
:100DE000724B734A1A60039B1A68724B12F4804F5D
:100DF00004D0122119706D496F48086042F2010059
:100E0000024202F4005140F02B851A786B4C6C4D75
:100E1000DFF8FCA1DFF8F491043A5A7004F066FBA5
:100E2000684B18607379052B02BF674B4FF4C8728B
:100E30001A8006F0BFF8654B4FF47A721A800023CF
:100E400023602B602368002B40F0E880232704F008
:100E50004DFB09F049F90A2004F06FFB013FF6D180
:100E600009F016F9DAF800302360D9F800302B6069
:100E7000E8E742F6F822ABE74B4B42F6F8221A803D
:100E8000534A0A23000190FBF3F00023A0F5B06061
:100E900042F823000133122BFAD1444A4D49116024
:100EA000444A4020137004F04FFA002895D00123E3
:100EB000072790F90000484A8DE88800474B4021F9
:100EC00004F0E4F9003018BF012085E7364B42F604
:100ED000F8221A80354B424A1A60364B10221A709B
:100EE000402004F031FA00283FF477AF01230025B9
:100EF00090F900003B4A8DE828004FF4E133DEE72B
:100F0000294B42F6F8221A80284B374A1A60294B9F
:100F100008221A70402004F017FA00283FF45DAF51
:100F20000123002490F90000304A8DE818004FF4A6
:100F3000E133C4E71C4B2E4D2E4C2F48DFF8D4C0B4
:100F4000DFF8D4E02D4F42F6F8211980194B0C211F
:100F50001970062A4FF000032B70237003701AD00B
:100F60001B238CF8003005238EF800103B704FF4E3
:100F7000E1340E4B224A1A60402004F0E5F90028C3
:100F80003FF42BAF0023012190F900001D4A8DE8AA
:100F90000A00234693E721238CF800308EF80010D6
:100FA0003A70194CE5E700BF5E06002010000020F3
:100FB00059AA00089C0A002031AA00084C130020FE
:100FC0004813002094050020101F002084090020F1
:100FD000141D0020FDA9000859AC0008A0860100DE
:100FE000E9A90008B5AB0008D1A900086DAB00085D
:100FF000A21C0020851D0020841D0020871D0020CC
:10100000FDA800085DAA000890D00300201B002066
:10101000241B0020861D0020A11C00200023DFF8D7
:10102000A093CF4F23602B604FF00F084FF0050ABD
:1010300004F05CFA09F058F80A2004F07EFABAF1DC
:10104000010AF5D109F024F82368D9F800202968AD
:101050001A443B6822600B44B8F101082B60E5D1CB
:101060000F2192FBF1F22260BE4A93FBF1F32B6059
:10107000137843F008031370BB4A137823F002037C
:101080001370039B1B6840F602021A420BD0B74B49
:10109000B74A1A60B74B03221A70B74BA3F8008007
:1010A000B64BA3F80080039AB368B54C1360B54AF9
:1010B000B54DDFF810A30123137022788DF872303C
:1010C000214662F07F024FF0020901F80C2B8DF8E7
:1010D00073906A69059342F480224FF480570DF1B2
:1010E000700B0491ADF8707059466A61504605F076
:1010F0000DF9CAF81870282004F01FFACAF8187001
:10110000484604F01AFAAAF82870484604F015FA7E
:10111000CAF81870484604F010FA002003F04EF8A0
:101120005A213A2003F02CF8052004F006FA48462C
:1011300003F044F8032003F041F8042003F03EF8E4
:10114000052003F03BF8062003F038F8059B18460D
:1011500004F0F3F902F0D6FB642004F0EEF98B4BB7
:10116000DFF864E24FF080421A60894B894A1A60C6
:10117000894B8A4A1A608A4A4FF4966353819EE8E3
:101180000F000DF12C0C8CE80F000EF110030FCBAB
:101190000DF13C0A8AE80F000EF120030FCB0DF190
:1011A0004C090EF1300E89E80F009EE80F008BE825
:1011B0000F0099E80F00049F87E80F009BE80F00DD
:1011C00004F11C0E8EE80F009AE80F0004F12C0EBB
:1011D0008EE80F009CE80F0004F13C0E8EE80F0033
:1011E0004FF4967004F0A9F900214FF48C726D4809
:1011F00010F0E8FDEB69DDF810A043F00703EB61A8
:10120000AB6943F4A523AB616B6943F4C0236B6105
:1012100004F1100104F1600E0F2710318E4540F0EB
:10122000378173790E2B40F04C8101238DF86630A5
:101230005D4B1968B8F1040F00F04C8108F101030F
:1012400001EBC30212F9062C022A40F041814FEA59
:10125000C8039A1C8A1800F03F810B449B88003316
:1012600018BF01238DF86130039B1A68C2F3400355
:101270008DF86230C2F380138DF86430C2F34033CE
:101280008DF85C30C2F3C0338DF85F3012F4006328
:1012900007D096F83231A3F1020EDEF1000343EBE2
:1012A0000E038DF86030C2F300438DF86530C2F351
:1012B000C003B6F8D4708DF85E30C2F38043ADF849
:1012C0006A708DF86330D704B6F8E030ADF8683056
:1012D00002F0010002F0080144BFB6F8DC20ADF8CE
:1012E0006A20B3F5FA7FC4BF0023ADF86A3096F8E0
:1012F000823184F84C300023A4F84D309DF86630DC
:101300008DF85D00002B14BF0222002200B901B14C
:101310000132264B234E03EB8203D3F890309F1EFD
:101320000633049337F8023F4FF6FF72934240F0C2
:10133000D5801F4BDFF894E01E4F04221A70002462
:10134000E3190FCB04EB0E061034402C86E80F0097
:10135000F6D1039B18481A68184B1E6838E000BF86
:10136000201B002081100020F01E00200C1E0020F9
:10137000C80B0020A8050020AA050020AC0500200D
:101380008C07002068070020001002405C14002039
:1013900058140020ABAAAA3F5414002026B4973E4C
:1013A00000100020501B0020141F002018200108EE
:1013B0000E110020B8200108F61E0020D81A0020C7
:1013C000241B00200004004868200108A806002013
:1013D000C74B02F480521C680023002A00F00682EA
:1013E000B4F9041020F8131001330C2BF5D10224AA
:1013F00001268DF872608DF873406B69BD4F4FF018
:10140000100843F48023ADF8708059466B6138466C
:1014100004F07CFFA7F828808DF872608DF8734087
:101420006B694FF090484FF0800943F40033ADF8FA
:10143000709059466B614FF0904004F067FFC8F818
:1014400018908DF872608DF873406B69ADF870403C
:1014500043F480236B615946384604F057FF3C85BE
:101460008DF872608DF873406B694FF4004743F458
:101470000033ADF8707059466B61404604F046FF8A
:10148000C8F818701E2004F058F831B0BDE8F08F8D
:1014900011F8063C11F8050C4FEAD30C03F00702D3
:1014A00051F8103C03EB8C039200D3F820C090401D
:1014B00007FA02F22CEA02021A621A6A1043186250
:1014C000ABE603F0EF03082B3FF4AFAE0023ADE62D
:1014D0009846AFE60023C5E61346C3E69DF86220B2
:1014E0005FFA83F81B0A4AB104EB081281481169BC
:1014F000814203D1928A012A00F06D81022B00F013
:101500006A81012B0AEB081040F03B819DF85D30A9
:10151000002B00F060814FEA0818774BE06504EB80
:1015200008090022FF211A705A609A60DA601A6472
:1015300083F8441083F8451083F8462083F8472049
:1015400099F8193084F850208DF87230B9F81420C9
:10155000D9F81000ADF87020022359468DF8733089
:1015600004F0D4FE94F84C2099F81630D9F80C0009
:10157000012A0CBF03220022002B40F09C80036A4A
:1015800023F0010303628369016A23F0F30343F04C
:10159000010321F00A0143EA021341F001018361D2
:1015A0000162836923F00C0383618369836104EB27
:1015B00008090021012207F033FED9F80C20138816
:1015C0009BB243F00103138099F817308DF8703007
:1015D0000022012358468DF871308DF87220069252
:1015E0008DF87330059302F015FD99F81710059BDF
:1015F000069A1B290BD1192158468DF870108DF8C9
:1016000071308DF872208DF8733002F003FDA04424
:101610003A4B2366D8F80C90394B63660023A366D7
:10162000484607F04BFE062800F3D58098F81620B0
:1016300034490A23434303EB920346F8231004334F
:10164000043146F8231091080222D9F80C308A4060
:1016500092B21A4303B203EB8303DB00C9F80C20F8
:1016600003F120023244EFF3128E502181F31288ED
:10167000103333440421D3F800C0BCF1000F03D071
:10168000C2F800C01A680432013903F10403F2D130
:1016900011605FFA8EFE8EF31188282303FB006031
:1016A000036A002B40F0F080D9F80C3023F00103DE
:1016B0001B041B0CECE0042B26D1036A23F010035F
:1016C0001B041B0C03628369016A21F0A00123F44F
:1016D0007343090443F48073090C43EA023341F075
:1016E000100183610162836923F440635CE700BFFA
:1016F000D41A00200004004864110020A95E0008EC
:10170000815F0008EC070020082B036A1ED123F438
:1017100080731B041B0C0362C369016A9BB223F034
:10172000F30343F001034FF2FF5E43EA021301EAC1
:101730000E0EC3614EF480730362C36923F00C0381
:101740001B041B0CC361C369C36130E723F48053DE
:101750001B041B0C0362C369016A23F440731B055D
:1017600021F400511B0D490443F48073490C43EAF2
:10177000023341F48051C3610162C36923F44063C1
:10178000DEE7032B27D19DF8633094F84E90DFF805
:1017900044814BB100234FF6FF72082104F0E0FDB5
:1017A0003D4B48F8290010E0BDF86820BDF86A30CC
:1017B000B2F5FA7F14DD3949B1FBF2F2242192B27D
:1017C00004F0CEFD364B48F82900C36094F84E3043
:1017D000013384F84E30049BBB427FF4A3ADA8E5EF
:1017E0003049B1FBF2F2012192B2D7E7B6F9041009
:1017F000F8E52B7A43F002032B72FFF774B800214F
:10180000012B04913FF614A8274B9DF81C201A7059
:10181000FFF728B8254B42F210721A805A80244AEA
:101820005A60244A9A60244ADA60244A1A61244A97
:101830005A61FFF70FB91A7804218154511CC9B2BB
:1018400005254554D11C0232D2B2197006218154AB
:10185000FFF7A3B902321A7013224254FFF7CDB931
:10186000184844F62064048021B1082119701649F3
:1018700016480860D2077FF5C8AA0C221A70124ACF
:1018800013491160FFF7C1BAD9F80C3043F00103D6
:10189000C9F80C309FE700BF915F00080051250296
:1018A000A55F000840420F0050050020281B0020C3
:1018B00073980008A798000869980008A598000880
:1018C000C99600085E060020100000204DAA0008FE
:1018D00041AA0008C8110020A9490A682DE9F04F63
:1018E00002F59C43A74C20332360A74B8BB01D7897
:1018F0000591002D3AD1A54FDFF8A082DFF8CCA2E8
:1019000097F80090E9B249450E4680F2A480072975
:10191000D8BFD8F800303846D8BF595CDAF8003064
:101920009847032E1DDCD8F8003006F10F0B03EBAF
:101930008B0133F82B204B8898B1811A4FF47A70C1
:101940009B1A484390FBF3F040F2EE2300F57A70C7
:101950009842B8BF184640F6CA039842A8BF184636
:1019600080B204EB46060135B080C9E788490968B2
:101970008A4201D9013D1D70864B00931A6812F40A
:10198000805F05D0844B1B68DD0701D40AF05AFA4A
:10199000059B1968814B1A68937A002B00F03481FB
:1019A000013B7F48127B30F913301AB1C3F53B631A
:1019B00008331BB2A3F57A73B3F57A7FA8BF4FF44F
:1019C0007A7323EAE37307EE903ADFED766AF8EE76
:1019D000E77A87EEA67A744ADFED747A67EE277AA3
:1019E000FCEEE77A17EE903A1380009BDFF8E09167
:1019F0001B6813F4807F00F054816D4B6D4D99424C
:101A000003D9AB78002B00F04F87AB78002B00F0A8
:101A10004881614F95F821603B6899F800B00297C2
:101A2000012E03F08063DFF894A1634F01930BF064
:101A3000040B14BF4FF003084FF0000895F8201076
:101A4000052900F22881DFE811F01B0193019901BB
:101A5000BC01D401F1014F4B1A68584B029342F27A
:101A60000101186800900A40039206D094F82930CA
:101A700084F82830524B5A781A7094F828601EB1B6
:101A80004F4B1E7886F001060F2384F82A30434B13
:101A900094F82BA01B6801930323BAFBF3F303EB29
:101AA0004303AAEB0303DBB25B000493009B454FA7
:101AB000DFF8ECB003F51673002507F1BC020693BE
:101AC00007F172084D4542DA690086B137F9150011
:101AD000019B9B8A80B29842C0F2CE86019BDB8A32
:101AE000984200F3C986069B42F8253003E0304651
:101AF000EEE73BF80100039B1BB92BF815000135FD
:101B0000E0E7314B062101FB053E049B2EF8030064
:101B100094F8743033B9BAF1020FEEDD4FF00103DF
:101B200084F874304FF0000128F815106B00002085
:101B30003EF8101033F808C001306144032823F840
:101B40000810F5D10BB293FBF0F080B2D5E794F812
:101B50002A300F2B174B3DD10F4A1268560139D44A
:101B6000029AD96812689A60521AC82A02D90122C8
:101B700083F8212094F82B30013384F82B30FBE6D6
:101B800064100020CC080020E41E00209C0A0020E5
:101B9000E01E0020FC0F002084140020641A0020A6
:101BA0000010002000007A44340A002000C07F4466
:101BB000404B4C00A01A00209C1A0020401B002023
:101BC0000B000020D0080020F808002010000020A2
:101BD000F01E0020B84AB94E012151701170029ACE
:101BE00099681268DA60521A59688A4284BF0022E2
:101BF00083F8212000254D45BCDAE8B209F0F2F95E
:101C000026F815000135F6E70098006800047FF516
:101C1000ECAED4F89000081A0028FFF6E6AE01F505
:101C20009C402030C4F89000A548D27A4579A54858
:101C3000A54E30F8150080B290FBF2F094F8942095
:101C4000013202F00F0284F89420224482F89500B9
:101C500018461A46855D01302A44102812B2F9D17F
:101C600092FBF0F212B2002A03DB642A1346A8BFEB
:101C7000642307EE903ADFED956AF8EEE77AA8E67E
:101C8000BBF1000F68D0012E05D0052009F040FC03
:101C90008F4B02221A70B8F1000F02D0404603F0B9
:101CA000E3FB8C4DB5F8DE0002F076FBAA46064653
:101CB00018B905F067F905F055F999F800305B0798
:101CC00008D5009B1B68DF0604D5834B1B78DD0617
:101CD00040F1F68500239AF88C819AF88D11BAF8B4
:101CE0004671BAF848E175481A4630F912509B0817
:101CF000BD42C4BF63F07F03DBB201327545B8BF9C
:101D000043F04003042AF0D194F8B1209A4240F005
:101D1000C18094F8B220F92A02DC013284F8B220A2
:101D20006E4F84F8B1303B786D4D002B40F0E98068
:101D30002B68D80740F1DC80002E40F0AD8099F888
:101D40000030DA0740F1DD805B0702D4012384F81C
:101D5000B3300AF02BF8D4E0019B4FF4806023B13C
:101D600009F0F0FB00232B6195E709F0DBFBF9E7B5
:101D7000012E7FF463AE052100F09EBD012E04BF4D
:101D8000052185F82010BBF1000F0CD0D4F8A81065
:101D9000B1F90E0049490880488088803868408839
:101DA000C8804FF00208DAF8000069698142C0F08B
:101DB0007F85BBF1000F00F07B85012E3FF43EAE26
:101DC00069E799F8001041F0020189F800100AF063
:101DD00039F8DAF80000E9690144A961042185F8BD
:101DE00020104FF4806009F09DFB052009F084FB72
:101DF00024E6012E14D1DAF80000A9698142BFF46B
:101E00004AAF364B197821B9029B1968CA073FF5CA
:101E100042AF99F8001021F0020189F80010AAE7FA
:101E2000DAF80020EB691344AB6134E73868DAF87C
:101E30000030C188642000FB01312961002185F850
:101E40002010E970CDE79AF88E317EB9002B00F0B2
:101E50003F85244B1A68D4F8AC309B1A002B80F2D3
:101E6000378509F0EFFF84F8B06033E73BB11D4AD6
:101E700012684FF47A7101FB0323C4F8AC3094F874
:101E8000B030002B3FF426AF03F0E4FA002384F8CF
:101E9000B0301FE7002241E7D4F8B4300A2B30DC21
:101EA000114B1B885E072CD4104B1B784BBB05F0E5
:101EB00069F805F057F84CE70B00002000100020EF
:101EC000101E0020201E0020610900200000C842D2
:101ED0000F1F0020A00A0020811000201400002005
:101EE00084140020401B0020E61E00200E1F00204E
:101EF00099F80030580704D594F82830002B40F0AA
:101F0000ED8494F8B230994E142B2ED13B78C3B1A6
:101F100094F8B1305F2B06D199F8003013F0040B20
:101F20006CD009F08FFFB8F1000F0AD094F8B130EF
:101F30007D2B06D199F8003013F0040B64D009F022
:101F400081FF99F8003013F004020ED194F8B130FB
:101F5000572B5FD14FF47A73A4F8B830844B1B68C9
:101F600013F0080301D1834A1380009B1B685807B4
:101F700025D594F8BA309BB199F8003059070FD5A0
:101F80007D4BB3F90620BAF846319A4208DD2B683A
:101F900013F0010301BF794A84F8BA30322111806D
:101FA0002B68DA0340F1A080754B1A782AB9754A7C
:101FB000127812B9714A3221118001221A703668E2
:101FC00000232B6006F17F0706F1CF084FF0010BCD
:101FD000B84500F098803A787B789A420CDA394616
:101FE00017F8010C03F012FA30B117F8023C2A6816
:101FF0000BFA03F313432B600437E9E70B2003F0DC
:1020000033FA84F8B2B08EE70B2003F02DFA84F88F
:10201000B2B096E700990968490740F167845A2BE6
:1020200040F06484574B197821B11A70564B012245
:102030001A709AE794F8BA3083F0010384F8BA3042
:102040001BB10C2003F010FA8FE70D20FAE75B2B91
:1020500000F051845E2B40F05C84032000F04CBC07
:10206000B8F1000F02D07E2B00F0608494F8B130FC
:10207000972B04D1454B4FF4C8721A8075E7A72BF4
:1020800005D1434A137843F0040313706DE700222F
:10209000BB2B099217D10223ADF826303368BDF867
:1020A0002410B3F85C200A44A3F85C20BDF8261085
:1020B000B3F85E200A44A3F85E2009F0F9FA002381
:1020C00084F8B23051E7B72B02D14FF6FE73E3E745
:1020D000BE2B03D10223ADF82430DFE7BD2B7FF404
:1020E00044AF4FF6FE73F6E7264A1378002B3FF411
:1020F00066AF99F8003013F004037FF460AF1370FB
:102100000122214B5AE7234F06F1CD054FF00C0871
:1021100006F215164FF0010BB5423FD06A78AB7846
:102120009A4221DA691C287803F070F9E0B16979E4
:10213000EB78194A95F804C008FB01FE013B07EB58
:102140000E0003EB43031344426893420CD04360F8
:102150000023836094F8BB3007F80EC00BFA01F13E
:1021600023EA010184F8BB100635D5E75C1A00208C
:10217000D8090020240A002000100020BA1E0020E8
:10218000DA1E0020DB1E0020DC1E0020101F0020B5
:1021900081100020681A002026210108C84AC94978
:1021A00094F82830D2F800800F68C74D01930026BC
:1021B0000292042E00F0C0826968002962D00A7879
:1021C000002A5FD0A868381A00280BDB07F5FA70E0
:1021D000A860012000FA06FE94F8BB0020EA0E0079
:1021E00084F8BB00019B002B4CD028784B7804303E
:1021F000C0B2002B40F06982B44B33F910E0BAF85A
:10220000440100F1C80CE64528DD91F802B094F8CD
:10221000BB103141CB0735D4BBF1000FCCBF02203E
:102220000120039203F046F9039A511E13293BD86B
:10223000DFE811F02B0042004F0061007A008200BD
:10224000E5005601BA01EB011A023A0061006D0087
:102250008200E5005601DC003C01B101C83886452A
:1022600004DA91F802B0CBF1000BD0E7012202FAB8
:1022700006F194F8BB2022EA010284F8BB2007F59E
:10228000FA72AA6001360C3593E798F8002093445F
:10229000BBF1FA0FA8BF4FF0FA0B2BEAEB7B88F8E3
:1022A00000B0404603F096F894F8BB100122B2400B
:1022B0000A4384F8BB20E5E798F801209344BBF17A
:1022C000640FA8BF4FF0640B2BEAEB7B88F801B0DA
:1022D000E7E798F803209344BBF1640FA8BF4FF0E1
:1022E000640B2BEAEB7B7A4A88F803B0116840460E
:1022F00003F030F8D8E798F8051059446429A8BFCE
:10230000642121EAE1710D2A88F80510CCD098F8F3
:1023100004209344BBF1640FA8BF4FF0640B2BEA79
:10232000EB7B88F804B0BFE798F8062093448BF362
:10233000080B88F806B0B7E76649096808780228EC
:102340003DD107EE90BAF8EEE76AB2EE047AC6EE37
:10235000877A91ED0A7A77EE877AF5EEC07AF1EE18
:1023600010FA29D49FED5C7AF4EE477AF1EE10FA78
:10237000C8BFF0EE477A0F2AC1ED0A7A94D007EE73
:1023800090BAF8EEE76AB2EE047AC6EE877A91ED7B
:10239000097A77EE877AF5EEC07AF1EE10FA2BD44F
:1023A0009FED4D7AF4EE477AF1EE10FAC8BFF0EEE9
:1023B000477AC1ED097A77E7DFED487ADBE788787D
:1023C0005844C828A8BFC82020EAE0700F2A8870A7
:1023D0003FF46AAF4A789344BBF1C80FA8BF4FF0EF
:1023E000C80B2BEAEB7B81F801B05DE7394A116835
:1023F0000A78022AC3D0EDE7DFED387AD9E735490C
:102400000968087802283AD107EE90BA9FED327A2F
:10241000F8EEE76AC6EE877AD1ED0D6A77EEA67A16
:10242000F5EEC07AF1EE10FA26D4F4EE477AF1EE2A
:1024300010FAC8BFF0EE477A102AC1ED0D7A3FF4CA
:1024400033AF07EE90BA9FED247AF8EEE76AC6EE56
:10245000877AD1ED0C6A77EEA67AF5EEC07AF1EEC6
:1024600010FA29D4F4EE477AF1EE10FAC8BFF0EE74
:10247000477AC1ED0C7A17E7DFED187ADCE7487B85
:102480005844C828A8BFC82020EAE070102A487322
:102490003FF40AAF0A7B9344BBF1C80FA8BF4FF0CB
:1024A000C80B2BEAEB7B81F80CB0FDE6094A1168FA
:1024B0000A78022AC5D0EDE7DFED087AD9E700BF38
:1024C000481A0020401B0020681A0020001000203D
:1024D000F40F0020F80F00200000C84200000000A8
:1024E000C0490968087802283ED107EE90BA9FEDEE
:1024F000BE7AF8EEE76AC6EE877A91ED107A77EE4B
:10250000877AF5EEC07AF1EE10FA2AD49FEDB77A09
:10251000F4EE477AF1EE10FAC8BFF0EE477A112ACE
:10252000C1ED107A3FF4C0AE07EE90BA9FEDAE7ADF
:10253000F8EEE76AC6EE877A91ED0F7A77EE877A42
:10254000F5EEC07AF1EE10FA2BD49FEDA87AF4EEF6
:10255000477AF1EE10FAC8BFF0EE477AC1ED0F7A74
:10256000A2E6DFEDA37ADAE7087E5844C828A8BFC0
:10257000C82020EAE070112A08763FF495AECA7DA3
:102580009344BBF1C80FA8BF4FF0C80B2BEAEB7BFD
:1025900081F817B088E6934A11680A78022AC3D0F6
:1025A000EDE7DFED937AD9E78E4A11680A78022ABF
:1025B0001FD107EE90BAF8EEE76AB2EE047AC6EEE3
:1025C000877A91ED0B7A77EE877AF5EEC07AF1EEA5
:1025D00010FA0BD49FED857AF4EE477AF1EE10FAFB
:1025E000C8BFF0EE477AC1ED0B7A5DE6DFED807A89
:1025F000F9E7CA789344BBF1C80FA8BF4FF0C80BE6
:102600002BEAEB7B81F803B04EE6764A11680A7834
:10261000022A1DD107EE90BA9FED747AF8EEE76AB0
:10262000C6EE877AD1ED0E6A77EEA67AF5EEC07A1D
:10263000F1EE10FA09D4F4EE477AF1EE10FAC8BFC1
:10264000F0EE477AC1ED0E7A2EE6DFED697AF9E712
:102650008A7B9344BBF1C80FA8BF4FF0C80B2BEA8D
:10266000EB7B81F80EB01FE65E4A11680A78022AF9
:102670001FD107EE90BA9FED5C7AF8EEE76AC6EEDE
:10268000877A91ED117A77EE877AF5EEC07AF1EEDE
:1026900010FA0BD49FED557AF4EE477AF1EE10FA6A
:1026A000C8BFF0EE477AC1ED117AFDE5DFED507A53
:1026B000F9E74A7E9344BBF1C80FA8BF4FF0C80B9F
:1026C0002BEAEB7B81F819B0EEE5012B7FF4ECAD42
:1026D0000C2A7FF4E9AD474B897833F910B0464BAB
:1026E00040F633008345A8BF8346BBF5617FB8BF82
:1026F0004FF4617B4FF4966090FBF1F01978ABF5E5
:10270000617B9BFBF0FB5FFA8BFB59453FF4CCAD43
:10271000BBF1030FD4BF59460221197002FB01A27D
:10272000029B02F22A521A6007F0BEF80BF1010078
:10273000C0B202F0BFFEB7E5304D314E2B6813F04A
:10274000020F06D1009B1B68DF0506D52D4BDB78F9
:102750001BB13368980700F1ED80012008F0E2FE1C
:10276000012704E004F00EFC012008F0EBFE2A68CB
:10277000510732D58FB3012008F0D4FE224B1B88BD
:102780009A0704D404F0FEFB022008F0DBFE99F85F
:1027900000305B0708D41C4B1B8803F044031BB1BB
:1027A0001A4B1A881A4B1A80336813F00A0F40F03C
:1027B000C9802B681A054FF480705AD508F0C2FE04
:1027C0009AF80530082B02D00E2B40F0C380402031
:1027D0000BB0BDE8F04F08F0A5BE022008F0A2FE45
:1027E000D5E700BFF80F002000007A440000C8427F
:1027F0000000000000100020601A00208414002057
:10280000D8090020A01A0020E81E0020240A002079
:10281000F21E0020514B1B885F0706D4042008F0ED
:1028200091FE4F4B1A884F4B1A802B689E061CD581
:102830004A4B1B88580602D4402008F083FE2B68C0
:10284000590641BF464A1188474A118013F00803D0
:1028500008D094F8BC30002BABD1414B1A88424BC6
:102860001A80012384F8BC30A3E7402008F05AFE08
:10287000E5E708F057FEA3E752F8253000988342B9
:102880003FF637A9E8B2079208F0ACFB032D079A90
:102890003FF731A994F82A100123AB4021EA030342
:1028A00084F82A30FFF727B90123AB70FFF7ADB8E2
:1028B00042F21071E961032185F82010FFF7BEB8DC
:1028C0002A4B1B78002B7FF4BEAA002E7FF4D7AAD8
:1028D000102002F0C9FD0123FFF7D9BA11B9002E6B
:1028E0007FF40FAB09F0AEFAFFF70BBB5D2B7FF463
:1028F000AEAB012000E00220C7B27B1E8AF828356B
:1029000008F03EFE07F01AF8384602F0D3FDFFF754
:102910002CBB562B01D108F0CBFE3B78002B3FF4AB
:10292000A5AB94F8B1306F2B7FF49AAB09F03EFA67
:10293000FFF71BBB094B1B8813F001073FF412AFD5
:10294000002714E72B68DB063FF564AF042008F08E
:10295000E9FD6AE70BB0BDE8F08F00BFE81E00207C
:10296000240A0020F21E0020900000201400002005
:1029700038B5044624200D4602F05CFC4D2002F0E0
:1029800059FC002C094C14BF21203E2002F052FCBF
:102990002368002228469A7102F04CFC236893F8C1
:1029A0004900BDE8384002F045BC00BFEC1E0020E5
:1029B00001460020DCE710B502F032FC044602F0CC
:1029C0002FFC04EB004010BD2DE9F84F4B282DEDF6
:1029D000048B00F0118500F2F080322800F0508561
:1029E0006BD8222800F040842BD8032800F0CE8238
:1029F00007D8012800F0AD82022800F0B78200203D
:102A0000C0E2042800F0C9820528F8D11A20FFF797
:102A1000CFFFC84D0024285D013402F00BFC0B2CC5
:102A2000F9D1C54D0024285D013402F003FC082CC7
:102A3000F9D100240020013402F0FCFB072CF9D16D
:102A40009FE2282800F0BF8413D8242800F0B08427
:102A50002628D4D1B94C0620FFF7AAFFB4F8E80025
:102A600002F0FAFBB4F8EA0002F0F6FBB4F8EC006E
:102A70004CE22A2800F0BA842C28C0D1AF4C0C209C
:102A8000FFF796FF94F83E0102F0D4FBB4F848013A
:102A900002F0E2FBB4F8440102F0DEFBB4F84601B8
:102AA00002F0DAFB94F83F0102F0C4FBB4F84A01EB
:102AB00002F0D2FBB4F84C0128E23D2800F0178365
:102AC00044D8382800F07A8433D8342800F0EF83D3
:102AD000362894D19A4D994C95F86400C0EBC0000B
:102AE000C0B2FFF765FF04F12006683594F998013C
:102AF00000230C33EA1812F90C2C824240F0D584E2
:102B0000C0B202F097FBB4F89A0102F0A5FB94F86A
:102B10009C0102F08FFB94F89D0102F08BFB94F86E
:102B20009F0102F087FB94F89E0102F083FB00F006
:102B3000BFBC3A2800F0D2823B287FF460AF01206E
:102B4000FFF736FF7F4B1B6818780CE2452800F032
:102B5000C18426D8402800F09A8442287FF44FAFE1
:102B6000764C1020FFF724FF607902F063FBA06829
:102B700002F07BFB94F83E0102F05CFBB4F8E80045
:102B800002F06AFBB4F8EA0002F066FBB4F8EC006D
:102B900002F062FBB4F82E0102F05EFBB4F83001E3
:102BA000B4E1462800F0898449287FF428AF022048
:102BB000FFF7FEFE614B9889A8E1732800F0C383FC
:102BC00000F256816C2800F0518200F2D180662814
:102BD00000F0168200F295804D2800F031846528BF
:102BE0007FF40DAF0B20FFF7E3FE574B544C1888D2
:102BF00002F032FB554B1A68554B9A420CBF554BAD
:102C0000554B188880B202F027FB2068C0F3C00340
:102C1000C0F380029B0043EA4203C0F34002134327
:102C2000C0F3401243EAC20300F01000184302F060
:102C300013FB4A4B26791A88494B1968494B1B7874
:102C400002F00100C3F3800343EA4003C2F34000F3
:102C500043EA800302F008000343C2F3800043EA22
:102C60000013C2F3801043EA401301F04000034315
:102C700001F08000034301F480700343C2F30010AD
:102C800043EA4023C2F3401043EA8023C2F300200A
:102C900043EAC02301F48050034301F4005003438E
:102CA00001F48040034301F40040034301F4803009
:102CB000034301F40030034301F48020034301F493
:102CC0000020034301F480100343C2F3402043EA91
:102CD000405301F00071C2F380220B43002043EA0D
:102CE0008263053402460125B24280F06681115D9F
:102CF00005FA01F119421CBF05FA02F1084301323D
:102D0000F2E7682800F0A68169287FF478AE164DB6
:102D1000164E2878400000F0FE00FFF749FE002420
:102D20002B789C4280F02D8136F8140002F094FA42
:102D30000134F5E78A24010896240108A00A00203E
:102D4000D80900205C1A0020E61E00208C0A002012
:102D500000540040700A0020720A0020E81E002083
:102D600084140020F01E00209C0A00200010002087
:102D70006F2800F0C78130D86D2800F086816E285A
:102D80007FF43DAE0720FFF713FEC54BC54C1888F6
:102D9000FF28A8BFFF20C0B202F04CFAA06D4FF68A
:102DA000FF75A842A8BF284620EAE07080B202F072
:102DB00053FAB4F85C0002F04FFABB4B93F833318E
:102DC000002B00F09081236E0A205843A842A8BF30
:102DD000284620EAE07080B298E0702800F0BA81BE
:102DE00072287FF40CAEB04C1620FFF7E1FDB4F86A
:102DF000440102F031FAB4F8D00002F02DFAB4F830
:102E0000D20002F029FAB4F8D40002F025FAB4F89E
:102E1000860102F021FA002002F00CFA002002F0F4
:102E200009FA002002F006FA94F8330102F002FADF
:102E300094F8400102F0FEF9002002F0FBF99B4BF0
:102E40001B68B3F95A000A2390FBF3F080B202F03A
:102E500003FA94F8280102F0EDF994F82C0102F03D
:102E6000E9F994F82B0102F0E5F994F82D017AE0E4
:102E7000A02800F08D8222D8772800F049820FD850
:102E8000742846D075287FF4BAAD2F20FFF790FD47
:102E9000874C14F8010F002873D002F0CBF9F8E743
:102EA0007B2800F026837C287FF4A9AD0320FFF760
:102EB0007FFD804B187802F0CFF97F4B44E6F02875
:102EC00000F059820AD8DD2800F01083DE287FF454
:102ED00096ADFFF770FDFFF76EFD52E0FE2800F0A3
:102EE0003D82FF287FF48BAD744A6E4C118800231D
:102EF00023840122114266D101339BB25200092B77
:102F000092B2F7D10220FFF753FD208C02F0A4F912
:102F100037E0644F00264FF0010ADFF8BC914FF014
:102F2000000B3B795B4540F3E981654B0C251BF8B1
:102F30000340002305FB03F202EB090012F809200D
:102F4000A24200F0DC8201331C2BF3D10BF1010B08
:102F5000E7E70320FFF72CFD002002F06BF90220C9
:102F600002F068F9002002F065F90AE00520FFF799
:102F70001FFD544D0024285D013402F05BF9052C3F
:102F8000F9D10120BDEC048BBDE8F88FFFF710FDEF
:102F9000022002F04FF90020E2E70B20FFF708FDC6
:102FA000072002F059F9484D0024285D013402F051
:102FB00041F9072CF9D10020A8E702F056F93A4B65
:102FC00093F82805CFE7013B072B05D8DFE803F08E
:102FD00007090B0E101214160123238492E7022313
:102FE000FBE74023F9E74FF48073F6E78023F4E72B
:102FF0002023F2E71023F0E70823EEE70423ECE7B1
:103000001220FFF7D5FC314B264C1B88B3F5806F9F
:10301000D4BF01260826002504F1220737F9150040
:1030200090FBF6F0013580B202F016F9032DF5D1D0
:10303000208D02F011F9608D02F00EF9A08D244C64
:1030400002F00AF9208802F007F9608802F004F91A
:10305000A0885BE71020FFF7ABFC1E4D0024285D25
:10306000013402F0E7F8102CF9D18AE70D4C062064
:10307000FFF79EFCB4F8460002F0EEF8B4F8480002
:1030800002F0EAF8B4F84C0040E7064C0620FFF7DF
:103090008FFC206D02F0E9F8B4F8540036E700BF69
:1030A000B81E0020D8090020A00A00205C1A0020C9
:1030B000612101080F1F002098000020E61E00205B
:1030C000DD0900207C240108822401080E00002074
:1030D00070100020060A0020002301080420FFF7DA
:1030E00067FC002061E1206E00F30F0073E6CA4C1C
:1030F0000220FFF75DFC94F88E0102F09BF894F833
:103100008D0130E7C54C0B20FFF752FC236818787F
:1031100002F090F82368587802F08CF800252368B4
:103120002B440135187902F085F8032DF7D1236877
:10313000D87902F07FF82368987802F07BF823684A
:10314000D87802F077F82368588902F085F8236868
:10315000187A08E7B24C2120FFF72AFC23681B7875
:10316000022B4FF000056CD19FEDAE9ADFEDAE8AD9
:10317000B2EE048A236803EB850393ED090A20EE7F
:10318000080A0DF007F980F30800C0B202F052F807
:10319000236803EB850393ED0C0A20EE090A0DF07A
:1031A000F9F880F30800C0B202F044F8236803EB9A
:1031B000850393ED0F0A20EE280A0DF0EBF880F35B
:1031C0000800C0B2013502F035F8032DD2D1072D29
:1031D000236829D193ED120A20EE080A0DF0DAF8DF
:1031E00080F30800C0B202F025F8236893ED130ABB
:1031F00020EE080A0DF0CEF880F30800C0B202F00D
:1032000019F8236893F8503000EE103AB8EE400AEF
:103210000DF0C0F8FF28A8BFFF20C0B2013502F0B2
:1032200009F80B2DD3D1ACE62B44587802F002F804
:1032300023682B44187B01F0FDFF23682B44D87DC5
:10324000ECE723682B44587801F0F4FF23682B4403
:10325000187B01F0EFFF23682B440135D87D01F086
:10326000E9FF0B2DEDD18CE65020FFF7A1FBDFF835
:10327000B0816E4E00250C27D8F8004004EB850481
:10328000013594F87D3007FB0363187A01F0D2FF13
:1032900094F87E0001F0CEFF94F87F0001F0CAFFA1
:1032A00094F8800001F0C6FF142DE5D169E64820AE
:1032B000FFF77EFB5A4F002506263C6806FB0544B7
:1032C000013594F8D20001F0B5FF94F8CD0001F07B
:1032D000B1FF94F8CE0001F0ADFF94F8CF0001F0FB
:1032E000A9FF94F8D00001F0A5FF94F8D10001F0F7
:1032F000A1FF0C2DE1D144E6464427E6BAF1000FC8
:103300003FF43FAEF0B2FFF753FB4FF0000A04E684
:10331000474C464D2079FFF74BFB0026671D4FF0C9
:103320000C0823799E42BFF42CAEF05D002308FB0D
:1033300003F25119525D824200F0F48001331C2BDC
:10334000F5D10136EDE70820FFF732FB0124E0B2AA
:10335000013401F06FFF092CF9D112E60820FFF7C4
:1033600027FB002001F078FF002001F075FF00200E
:1033700001F072FF1FE62A4C0420FFF719FB2368B7
:10338000B3F85E0001F068FF2368B3F85C00BDE5A8
:103390000C20FFF70DFB274B186801F066FF264B4A
:1033A000186801F062FF254B186801F05EFFE8E540
:1033B0000420FFF7FDFA184B9868F6E70420FFF7A2
:1033C000F7FA154C45E5144C0720FFF7F1FAB4F86D
:1033D0002E0101F041FFB4F8300101F03DFF94F8F7
:1033E000320101F027FFB4F834018FE50120FFF727
:1033F000DFFA094B5879B6E5074C0420FFF7D8FAF5
:1034000094F8840101F016FF94F8850101F012FF91
:10341000B4F886017AE500BFA00A0020481A00200F
:103420005C1A00200000C84200007A440023010812
:10343000D8090020ACF7FF1FB0F7FF1FB4F7FF1F3C
:103440003A4D3B4C287800EB4000C0B2FFF7B0FA91
:1034500000262B789E4204F10204BFF492AD14F8CA
:10346000020C01F0E7FE14F8010C00EB800000EB09
:10347000800000F2EE2080B201F0EEFE0136E8E7B7
:103480000120FFF795FA2B4B93F840016BE50820DC
:10349000FFF78EFA274D00246319013493F83601A3
:1034A00001F0C8FE082CF7D16BE5302B7FF421AB7F
:1034B0000834A6427FF41AAB63E50D20FFF778FAD3
:1034C000002001F0B7FE002001F0CFFE002001F047
:1034D000CCFE06E61320FFF76BFA174D0024285D9B
:1034E000013401F0A7FE0B2CF9D1EFE701F098FEB3
:1034F00047E50220FFF75CFA104B188806E545689F
:10350000284608F0DDFD8046BAF1000F7FF4F4AEE6
:103510002C46631B98457FF719AD14F8010B01F099
:1035200089FEF6E7087A01F085FE0AE79C0A00208A
:10353000EE0B0020A00A00208A2401089A00002037
:10354000074B084A98420BBF138853880133013355
:103550000BBF9BB29BB2138053800020704700BF0B
:1035600000540040700A002037B50F4B04469D6898
:1035700018796A460621A847A0B19DF800209DF859
:10358000013043EA022323809DF802209DF8033096
:1035900043EA022363809DF804209DF8053043EA46
:1035A0000223A38003B030BD700A002013B50F4B77
:1035B00004469B686A4606213B209847A0B19DF8C7
:1035C00000209DF8013043EA022323809DF8022069
:1035D0009DF8033043EA022363809DF804209DF8A0
:1035E000053043EA0223A38002B010BD700A002018
:1035F00013B50E4C237CB3B96369A3B11A681AB131
:103600000B49486902434A619A88ADF804200222B6
:103610008DF807209868002201A98DF8062002F095
:1036200075FE0123237402B010BD00BF700A002094
:103630000010024070B50446FFF7DAFFB4F5807F52
:103640003DD0BB2C3DDC612C3DDC292C3DDC132C1A
:103650003DDC092C3DDC002C0CBF002506251E4C52
:103660008021E3686B209847642001F066FFE368DF
:10367000072168209847642001F05FFFE36800217C
:103680006B209847642001F058FFE36818211B2045
:103690009847E36810211C209847E36829461A20C0
:1036A0009847E36804211D209847E368002119200A
:1036B0009847E36812213720BDE87040184700257D
:1036C000CDE70125CBE70225C9E70325C7E7042598
:1036D000C5E70525C3E700BF700A002008B5FFF75E
:1036E00087FF024B4FF480521A8008BD0E00002065
:1036F000F8B53A4C4000C6B24FF42045E069A561E8
:1037000087693F0413D56F1E6DB13D46F8E7E06948
:103710004FF420458669760751D5406A03F8010FBA
:103720000131C9B231E04FF0FF33A3614BE047688C
:1037300027F07F7727F4593727F47F7727F003079F
:1037400046F490353D4345604FF42045A5618769B7
:10375000BF0729D54FF420458162A5610021876903
:103760007F0626D501B1A56145681D4925F07F7505
:1037700025F4593525F47F7541EA024125F003050A
:10378000314329434160013B00219142BFD14FF4B5
:103790002043E069A36100228569AD0618D502B116
:1037A000A3612023C36111E06F1E002DBBD03D46F5
:1037B000CDE76F1E0121002DB5D03D46CFE715F1B5
:1037C000FF35A7D2A561FFF7BBFEC1B20846F8BD21
:1037D0005D1E0122002BA6D02B46DDE7700A0020DB
:1037E0000024000208B513460A4601466820FFF788
:1037F0007FFF003018BF012008BDF8B5394C4000EC
:10380000C5B24FF42046E069A66187693F0412D52E
:10381000771E66B13E46F8E74FF420418569AD0753
:1038200050D513F8011B8162013AD2B231E04FF05A
:10383000FF33A3614AE0476827F07F7727F45937C1
:1038400027F47F7745F0807627F0030746F490361B
:103850003E4346604FF42046A6618769BF0726D5E0
:1038600081624FF42041A161002687693F0623D57C
:1038700006B1A161416821F07F7121F4593121F431
:103880007F7145EA024521F0030145F000750D43C3
:103890004560002AC0D14FF42043A36181698906A5
:1038A0001AD502B1A3612023C3610120F8BD771EA0
:1038B000002EBCD03E46D0E74F1E01260029B6D0D0
:1038C0003946D2E711F1FF31A8D2A161FFF738FEE6
:1038D000003018BF0120F8BD591E0122002BA6D0D0
:1038E0000B46DBE7700A002007B502AB03F8012D99
:1038F0000122FFF782FF03B05DF804FB0A46014690
:103900006820F1E708B500217F2000F039FC012193
:10391000552000F035FC0721502000F031FC0E212D
:103920007F2000F02DFC1021432000F029FC022113
:10393000482000F025FC00217F2000F021FC7B21A5
:10394000512000F01DFC0021502000F019FC002146
:10395000552000F015FC00217F2000F011FCAD2166
:10396000612000F00DFC03217F2000F009FC002104
:10397000402000F005FC05217F2000F001FCB32170
:10398000412000F0FDFBF121432000F0F9FB142160
:10399000452000F0F5FB34215F2000F0F1FB082109
:1039A0007B2000F0EDFB34215E2000F0E9FB3221AA
:1039B0005B2000F0E5FB32216D2000F0E1FB1721D8
:1039C000452000F0DDFBE521702000F0D9FBE5216A
:1039D000712000F0D5FB06217F2000F0D1FB1B21D8
:1039E000442000F0CDFBBF21402000F0C9FB3F2167
:1039F0004E2000F0C5FB08217F2000F0C1FB4421D0
:103A0000662000F0BDFB2021652000F0B9FB3A21C3
:103A10006A2000F0B5FB0521612000F0B1FB052113
:103A2000622000F0ADFB09217F2000F0A9FBAF214F
:103A30004F2000F0A5FB8021482000F0A1FB802151
:103A4000492000F09DFB7721572000F099FB402191
:103A50005F2000F095FB7821602000F091FB782139
:103A6000612000F08DFB0821622000F089FB5021CD
:103A7000632000F085FB0A217F2000F081FB60219C
:103A8000452000F07DFB00217F2000F079FB112113
:103A90004D2000F075FB8021552000F071FB2121A5
:103AA000742000F06DFB1F21752000F069FB782168
:103AB0004A2000F065FB78214B2000F061FB0821D3
:103AC000442000F05DFB5021452000F059FBFE2111
:103AD000642000F055FB1F21652000F051FB0A21F6
:103AE000722000F04DFB0021732000F049FB0C21F7
:103AF0007F2000F045FB8421442000F041FB47215A
:103B0000652000F03DFB1821662000F039FB702194
:103B1000632000F035FB2C216F2000F031FB1521D4
:103B20007F2000F02DFB4821084600F029FB0721EB
:103B30007F2000F025FB0D21412000F021FB142106
:103B4000432000F01DFB0E214B2000F019FB0F213C
:103B5000452000F015FB4221442000F011FB80219C
:103B60004C2000F00DFB10217F2000F009FB032109
:103B70005B2000F005FB07217F2000F001FB4121C5
:103B8000402000F0FDFA0A2001F0D7FC00217F2040
:103B900000F0F6FA0021322000F0F2FA07217F202F
:103BA00000F0EEFA4021084600F0EAFA06217F20F4
:103BB00000F0E6FA7021682000F0E2FA01216920A5
:103BC00000F0DEFA0D217F2000F0DAFAC021482053
:103BD00000F0D6FAD5216F2000F0D2FA00217F2024
:103BE00000F0CEFAA0215B2000F0CAFAA8214E20F6
:103BF00000F0C6FA50215A2000F0C2FA802140207D
:103C000000F0BEFA1F21732000F0BAFA0A2001F07A
:103C100094FC00217320BDE8084000F0B1BA2DE902
:103C2000F0432F4C8BB00027064624200D4684F825
:103C3000207001F023FB442001F020FBBD42BABFFD
:103C40006D424FF00108B8468DF824700DF1230144
:103C50000A2095FBF0F200FB1253DBB2092BD4BF14
:103C600030333733DBB20F46154601F80139002AED
:103C7000EFD1304608F024FA8146384608F020FAA1
:103C800008F101054D440544EDB2284601F0F6FA6D
:103C900094F820004540304684F8205003F00EFC94
:103CA000092001F0EBFA94F8203083F0090384F83E
:103CB0002030B8F1000F08D02D2001F0DFFA94F881
:103CC000203083F02D0384F82030384603F0F6FBD3
:103CD00094F8200001F0D2FA0BB0BDE8F08300BFE9
:103CE000700A00202DE9F04FDFF8D4B28DB01F46E6
:103CF00082460023242016468BF820309DF8585029
:103D000001F0BCFA442001F0B9FA32463B46304695
:103D1000394608F0A3FE5C46002800F00B815046AF
:103D200008F0CEF90C30C4B2204601F0A7FA9BF897
:103D30002000444050468BF8204003F0BFFB092090
:103D400001F09CFA9BF82030954883F009038BF82A
:103D500020301FE14FF06042924B3046394608F068
:103D600073FE38B94FF060428F4B3046394608F049
:103D70004DFE10B3504608F0A3F90930C5B22846ED
:103D800001F07CFA94F820004540504684F8205019
:103D900003F094FB092001F071FA94F82030834875
:103DA00083F0090384F8203003F088FB94F82000A6
:103DB00001F064FA0DB0BDE8F08F00220023304618
:103DC000394608F023FE98B107F100431F464FF033
:103DD000010877494FF0000900205FFA89F3AB42F0
:103DE00009F1010906DA0022724B08F0C7FCF4E77A
:103DF0008046EEE70B4602463946304608F0E2F9C7
:103E00000F46064608F040FE0DF13009002309F880
:103E1000043D834603460A21B3FBF1F201FB123352
:103E2000303309F8013D1346002AF5D1504608F019
:103E300047F90190484608F043F9019B08F1010257
:103E40001A44C0B2D2B2002D72D06B1CDBB2024455
:103E50001344DBB21846019301F010FA94F82020C5
:103E6000019B5046534084F8203003F027FB092083
:103E700001F004FA94F8203083F0090384F820302C
:103E8000B8F1000F08D02D2001F0F8F994F8203097
:103E900083F02D0384F82030484603F00FFB002DFB
:103EA00084D0584608F0CAFA0B46024639463046D6
:103EB00008F086F906462E200F4601F0DFF994F847
:103EC0002030DFF8F09083F02E0384F820304FF09C
:103ED0000008002D3FF46AAF42464B463046394653
:103EE00008F022FB0F46064608F0CEFD5FFA80FA86
:103EF000BAF1090F94BF0AF1300A0AF1370A5FFAE2
:103F00008AFA504601F0BAF994F820308AEA03039D
:103F100084F82030504608F0A1FA02460B4630469D
:103F2000394608F04DF9013D06460F46EDB2D0E79F
:103F30002B468CE727F000494FF0FF321E4B3046EE
:103F4000494608F08BFD00287FF404AF4FF0FF32A4
:103F5000194B3046494608F063FD00287FF4FAAE5D
:103F6000504608F0ADF80830C4B2204601F086F99A
:103F70009BF82000444050468BF8204003F09EFA06
:103F8000092001F07BF99BF820300C4883F00903ED
:103F90008BF8203003F092FA9BF8200008E700BF6E
:103FA000B1240108FFFFEF41FFFFEFC1A824010882
:103FB0000000E03F00002440FFFFEF7F9F24010846
:103FC000700A0020104A40F2E933118989070AD5A6
:103FD0000E4A0D49107040F2E9330889C0070DD52B
:103FE0001078C0B27047013B9BB2002BEDD1084A5C
:103FF000138801339BB21380FF207047013B9BB2B3
:10400000002BEAD1F3E700BF003800400C38004035
:10401000940A00200C4B10B5DB6802780B48DB4398
:10402000C3F302230121C3F1040301FA03F384184B
:104030001B01DBB284F80033530902F01F0201FABE
:1040400002F240F8232010BD00ED00E000E100E0A6
:10405000084B4FF47A72594301F5FA714FF4FA6341
:10406000B1FBF3F3B1FBF2F102FB0030B0FBF1F076
:10407000704700BF002F3A00F0B54FF0FF33CF0874
:10408000136001F007014FEAC70E3D460026052DDB
:1040900000D806B1F0BD445DAF4203BF0C41E4B2AD
:1040A0000B46334614F0010F06D07344136001260B
:1040B00001350EF1080EEAE70133082B4FEA5404EC
:1040C000F0D1F5E72DE9F04F87B00DF11808109DFC
:1040D00048F80C5D294F1C4681468A4693460026C7
:1040E0000123119A964221D10026129B1D60CEB960
:1040F0002146484600F06EFF064698B904AD2B46AF
:104100000622B02199F85C01FFF7F2FA002808BFF7
:104110006FF013060023E15CEA5C91422AD101337F
:10412000062BF8D1304607B0BDE8F08F424629464D
:1041300058460193FFF7A0FF039A531C17D002F1D2
:10414000B401890957F82110003118BF01215145E8
:104150000DD1D108019B02F0070005299FBF03FA8A
:1041600000F5605C28436054551C0136B9E76FF0D8
:104170003106BAE76FF03106D4E700BF9421010899
:10418000F8B50D4C20250746258532200E4601F056
:10419000C9F947F08000FFF715FF322001F0C2F99E
:1041A0003046FFF70FFF322001F0BCF9A561C820AF
:1041B00001F0B8F90120F8BD000400481F4B20228F
:1041C00010B51A850446322001F0ACF904F07F00E6
:1041D000FFF7F8FE322001F0A5F9194A4FF6FF71FA
:1041E00093894FF47A73148914F002040CD0154AA1
:1041F0001348FF2111704FF6FF71048914F0010478
:1042000016D01478E4B208E0013B9BB28B42EAD1AD
:104210000D4A138801339BB21380322001F082F9DA
:10422000064B20229A61C82001F07CF9204610BD7F
:10423000013B9BB28B42E0D1EAE700BF000400489B
:10424000003800400C380040940A002007B51B4B92
:1042500003F108025A6093F84A2122B3012A09D1D6
:10426000032183F85C15072183F85E2583F85D152B
:104270000C221A72124B134A1A60402001F064F8A3
:1042800070B10122002390F9000040218DE80C005C
:104290004FF4E1330C4A00F0F9FF003018BF012061
:1042A00003B05DF804FB022183F85C15032183F859
:1042B0005E2583F85D150722DBE700BF940A002026
:1042C00010000020A5A9000825AB00080D4B03F144
:1042D000DC02C3F86025C3F8641500F1500398426E
:1042E00007D002781AB98178C278914207DB04308E
:1042F000F5E70023044A83F001031371704701239B
:10430000F8E700BF940A00201000002070B52222B8
:1043100000211248124E0DF055FD0022114B0521CF
:1043200001241046042A03F108030CD0955D03F81C
:10433000085C03F8041C03F8034C03F8010C03F8B1
:10434000021C0132EEE7084B0122A3F8A62102224B
:10435000A3F8AE21522283F8A22170BD360C0020B2
:10436000A4210108380C0020940A002010B506F0A2
:1043700035FF4FF43024012806D10CB9052010BDBB
:1043800006F02CFF013CF6E7002C08BF052010BD0D
:1043900000210120FEF7ECBA0B4AD2F8683513F47D
:1043A000805FB2F972350AD0B2F85021111A8B42EF
:1043B00008DD10448342B4BF002001207047B2F8EA
:1043C0005201F7E701207047940A0020164B194666
:1043D000002241F80C2F4A608A6019461A6041F8A1
:1043E000182F5A609A604A608A601946303393EDFC
:1043F000000A41F8242FB4EE400AF1EE10FA4A60A8
:104400008A6006D693ED021AB4EE411AF1EE10FA64
:1044100007D79FED061AF0EE410AB0EE410A04F00C
:104420001DBCD3ED010AFAE72810002000000000AF
:104430002DE9F041624CD4F8D035D4F8D4259A1A3D
:10444000002AC0F2848003F5C332A032C4F8D83504
:1044500004F2DC50D4F8E835C4F8D425984704F2C7
:10446000DC5194F8EC25084603F050FD94F8ED2556
:1044700012F0040F04F2DC501CD0D4F8D435C4F888
:10448000F035002384F8F43504F586759E4604F271
:10449000F65704F2FC5630F9131027F8131026F8DB
:1044A00013100133032B25F802EFF4D122F004029C
:1044B00084F8ED25D4F8F025DAB1D4F8D4354149A3
:1044C0009B1A414A934201F106064FF0000340D87F
:1044D00030F9132031F913705D009742775FC8BF40
:1044E00021F81320974203F10103B8BF7253032B45
:1044F000EED194F8083653B3B4F8DE05B4F81021C1
:10450000B4F8E035B4F80E11801AB4F8162112FB95
:1045100000F210B2B4F812219A1AB4F8183113FB51
:1045200002F3B4F8DC25511AB4F8142112FB01F29D
:104530001BB20A2112B293FBF1F392FBF1F2A4F841
:10454000E035A4F8DC2590FBF1F2A4F8DE25BDE807
:10455000F08101F10C07C4F8F035A1F2EA4C4FF0FC
:104560000208384631F913E036F913200EEB020544
:10457000A2EB0E0202EB820227F8132095FBF8F55E
:104580000133032B2CF8025FECD1B4F90426B4F903
:1045900002360E4E1344B4F906260A211344594339
:1045A0000022B518835E0232062A03EB430391FB17
:1045B000F3F3A5F80831F4D107F07AF899E700BFD2
:1045C000940A00208A1000207FC3C901A00A00209D
:1045D00013B5144601AB042290F85C01FFF788F88C
:1045E000019B00281BBA0CBF6FF013000020236052
:1045F00002B010BD13B5144601AB022290F85C0165
:10460000FFF776F89DF804209DF80530002843EA6E
:1046100002230CBF6FF013000020238002B010BDF6
:1046200008B5134690F85C010122FFF761F80028F5
:104630000CBF6FF01300002008BDF7B590F85C6167
:1046400015461C4601220DF1070330460F46FFF7C1
:104650004FF868B19DF807202A402243394630467A
:104660008DF80720FFF740F910B1002003B0F0BD2E
:104670006FF01300FAE707B502AB8DF80520120AB8
:1046800003F8042D90F85C010222FFF7B6F8002829
:104690000CBF6FF01300002003B05DF804FB08B5F9
:1046A00090F85C01FFF720F900280CBF6FF01300B1
:1046B000002008BD2DE9F3474FF0000A8846164652
:1046C000FF210122054699469DF828708DF807A024
:1046D000FFF7E5FF5246044651462846FFF7DFFF45
:1046E00052460443FF212846FFF7D9FF64B2044332
:1046F00064B2B9F1000F06D04246CB212846FFF73D
:104700008FFF044364B23FB10DF10702EE2128464A
:10471000FFF786FF044364B20122FF212846FFF71A
:10472000BEFF0122044300212846FFF7B8FF64B210
:1047300004430022FF212846FFF7B1FF64B29DF831
:104740000730204323F0100340B2337002B0BDE8BD
:10475000F08773B50646002501220B213046FFF78E
:104760009EFF002204460B213046FFF798FF0DF113
:104770000702044313213046FFF752FF9DF807302C
:1047800064B2204301355B0740B2EDB205D0032D82
:1047900008D00028E0D002B070BD032D08BF6FF034
:1047A0000B00F8E76FF00B00F5E7F0B54FF4FA6394
:1047B00085B000228DE80C0044F61F63994206463E
:1047C0000F4604D86FF00305284605B0F0BD02A9D6
:1047D00000F00EFC05460028F6D19DF80830A7F63B
:1047E00036342BB99DF8093013B99DF80A30FBB166
:1047F00001AA0221304605F0D4FDA8BB9DF808307F
:104800002BB1019B03F24E239C42DBD9E41A9DF8A5
:104810000A3033B99DF8093053B1019B03F5257374
:1048200003E0019B03F2B2235B00A342CAD2E41A65
:104830009DF80B305BB16A460321304605F0B1FDAF
:10484000009B03F52573A342BCD268B9E41A9DF816
:104850000C30002BB8D0A4F226220421304605F0FB
:104860001BFD77610546AFE70546ADE737B5044662
:10487000154605292CD8DFE801F0030717191B1B83
:10488000436B2B60002021E00DF106024421FFF76D
:10489000B1FED8B9BDF8062053029AB12B60A363CC
:1048A000012384F8293011E0C36BEAE7036CE8E7E1
:1048B0000DF106026421FFF79DFE38B9BDF8063000
:1048C0005B02DEE7A36B2B6084F8290003B030BDE8
:1048D0006FF00300FAE72DE9F04F9FB090F8303108
:1048E0000C91C022012104460593FFF7D8FE05462E
:1048F000002840F0E9822074012280212046FFF741
:10490000CEFE0122FF212046FFF7C9FE2A46294696
:104910002046FFF7C4FE94F83A2191212046FFF784
:10492000BEFE294601222046FFF7B9FE2A46FF2196
:104930002046FFF7B4FE2A4680212046FFF7AFFE4F
:10494000294601222046FFF7AAFE01238DF85C309C
:104950000546002840F0B882074644F620689DF8D6
:104960005C30DB0707F101070ED5002D40F00E8308
:10497000474502D16FF00605A6E2294617AA204650
:10498000FFF74EFE0546EAE74745F3D0002D40F01D
:104990009B82204605F0DFFD0546002840F094820A
:1049A000032384F832310C2214AB142194F85C01F7
:1049B000FEF79EFE002800F0C1829DF85A209DF867
:1049C0005B30B4F8520194F8311103EB02231FFA63
:1049D00083FB9DF856209DF8573003EB02239BB2D2
:1049E0005B029DF8582000939DF8593003EB022399
:1049F0009BB25B029DF8522006939DF8533003EB67
:104A000002239DF850209BB2B0F57A7F02934FEAC3
:104A1000E2020ED0257F0BFB00F04FF47A7300F515
:104A2000FA7090FBF3F0236A002D40F094801FFA97
:104A300080FB002900F099804FEA8B13DBB20993C9
:104A40000023ADF84630D3B2049303F00F03019373
:104A50004FEA9B0B019A4FF2A103D34003F00103ED
:104A60000B9394F828300393002B00F0AC81257F42
:104A7000236A25B1029A03FB02F580352D0A94F8CA
:104A8000E020009BD4F8DC7008922B4411464FF4D0
:104A90007A78384608FB03FA0A93FFF7D9FAD4F874
:104AA000E43094F8E810079381461846FFF7D0FAEF
:104AB000089A0A9B0AF5004A082A4FEA1A4603F1A7
:104AC00080020CBF02210321C04B002E63D1C4F829
:104AD00040311F4612AA00212046FFF7C7FE129B55
:104AE000B6B2002B00F06D81BB422CBF002701271E
:104AF000002840F0108294F82A90B9F1000F00F0DD
:104B0000718113AA02212046FFF7B0FE88B9012265
:104B1000FF212046FFF7C3FD58B90DF14602B6212B
:104B20002046FFF767FD20B90246FF212046FFF728
:104B3000B6FDBDF846506B02139DC4F848311DB157
:104B4000AB4294BF00250125002800F04C814FF0B6
:104B50000008C24665E1029D9BB26B43009D1B129B
:104B60009D420CD1A1B948F6E02BD2B200230492A9
:104B700002F00F02ADF84630019209936AE7009DFA
:104B800080B26843EB1AB0FBF3F31FFA83FB50E7E4
:104B900042F2B82B50E781444FEAC92901FB09F1E1
:104BA00040F277604FEA122E01F5FA71B1FBF8F18D
:104BB000414301F5FA710F93B1FBF8F3089303FB3E
:104BC0000EFE069BDFF818920E9108FB03F000EA38
:104BD00009000EF1800EB0FBF6F67D480D925FEAFB
:104BE0001E2E08BF4FF0010E864228BF06464FF426
:104BF000167000FB06F30C2000FB0EF00A9305F084
:104C000095FC460008FB05F0B0F5481F0AEA090AC2
:104C100028BF4FF44810AAEB400000F5FA700AF5DF
:104C2000FA7AB0FBF8F0BAFBF8F80002B0FBF8F83B
:104C300068480A9B4FEA0828C8F5803841F25C258D
:104C400000FB0BF0B0FBF5F000FB08F000F50040B6
:104C5000000C00F5803040084043800B4FF448784A
:104C600008FB00F808F5004803F500454FEA18482E
:104C700008FB08F82D0C05FB058005F057FC079B89
:104C800000041F444FF0640E3230B0FBFEF040F6DB
:104C9000B53EB0FBF6F641F288304FF47A790EFB60
:104CA000060607F5FA7742F210704FF4FA6EB6FB7B
:104CB000F0F6B7FBFEFEB6F5704F0EF5C81EB7FB5B
:104CC000F9F7BEFBF7F028BF4FF4704605F02EFC55
:104CD000000200F5FA70B0FBF9F0404306FB060055
:104CE00005F024FC0F9B0E9909FB00F79F4228BF9B
:104CF0001F46B4F85401D4F85831C4F8407103FB8E
:104D000000F909F18009009B4FEA192909FB00F914
:104D1000002B54D00D9A304B03EA8223009A03EB08
:104D20005203B3FBF2F303EB43035B4303F500438E
:104D30001B0C06200335B5FBF0F5C5EBC505B5F535
:104D4000803F37BF0A9A254A0332B2FBF0F23FBFD9
:104D5000C2EBC20202F50042120C52434FF4FA6554
:104D600009F12000B1FBF5F1884442440899B2FBF7
:104D7000F1F280099203FE217F32B2FBF1F203FBD4
:104D800002F805F0D3FB4FF47A7A08F5FA78B8FB0D
:104D9000FAF84FEA081808F5FA780646B8FBFAFA66
:104DA000BAF1000F04D0B8FBF5F5A944B9FBFAFA43
:104DB000504605F0BBFB864228BF06468AE6009BAC
:104DC000B7E71F4694E6039F95E600BFAE878F02C4
:104DD000666666009A9906000000FCFF0000F0FF7E
:104DE0000000FFFF4D4694F82B80B8F1000F74D0FF
:104DF000029B002B6CD0009B4FEA032A029BBAFB5C
:104E0000F3FA17AA03212046FFF730FD179B002B6A
:104E100061D0534594BF4FF0000A4FF0010A0028BB
:104E20005CD00026B646039B002B00F0838007F081
:104E30000107019A94F8293084F82E70042A7BD057
:104E4000B3FA83F35B09B9F1000F08BF0125B8F18C
:104E5000000F08BF4FF0010A05F001050AF0010A32
:104E600084F8305084F82F3084F831A004F15005D4
:104E70000FCD17AF0FC795E80700002387E807009D
:104E80001893009B1A93069B1B93BDF80830ADF84E
:104E900070309DF82430ADF866608DF874E0ADF8A0
:104EA00064B08DF873300DF15C0EBEE80F0004F1B4
:104EB00050060FC697E8070085E807002046FFF771
:104EC00048FC054600283CD028461FB0BDE8F08FBE
:104ED000DDF808A095E79A46A1E7C2460B9B03BB05
:104EE000019B013B022B1FD9019B062B53D0092BA1
:104EF00051D0049B03F00D03082B18D0012D16D0C0
:104F0000019B042B60D0BAF1010F50D0012F51D07A
:104F1000BA463D4685E74FF00008C146C2464546C1
:104F20007FE74FF0FF0E7EE74FF0050E7BE74FF077
:104F3000030E78E701277CE7012384E76FF0130570
:104F4000C2E70122FF212046FFF7A9FB0546002802
:104F5000BAD10C9AB6212046FFF74CFB0546002833
:104F6000B2D10246FF212046FFF799FB05460028F3
:104F7000AAD1059A01212046FFF791FB054600289A
:104F8000A2D19DF8143084F830319DE7474508BF21
:104F90006FF0060598E74FF0040E039B002B7FF49B
:104FA00046AF012294F8293084F82E2048E74FF0CC
:104FB000020EF2E75546BE46EFE7012384F82E3095
:104FC000039D4FF0020E3EE7039B002BF5D04FF000
:104FD000020E2CE708B506220B4690F85C01B021C2
:104FE000FEF70BFC00280CBF6FF01300002008BD7B
:104FF00013B502AA00230C4602F8013D0121FFF778
:105000000FFB78B99DF80730C3F300122270C3F389
:10501000C002A270C3F380026270C3F38012DB0986
:10502000E270237102B010BD2DE9F04786B0037C19
:105030000B700C4603AAF8210546FFF7DBFA06467B
:1050400028BB04AA04212846FFF7C2FA0646F0B995
:10505000BDF80C201AB1049BB3FBF2F3A360A36864
:10506000AB610023237304AA20212846FFF7C2FA6C
:10507000064660B9BDF810306BB92A6A22612B77F9
:1050800004AA28212846FFF7B5FA064640B1304663
:1050900006B0BDE8F087DB0023612B620123EEE759
:1050A000BDF81030C3F30B03B3F5006F4FF0FA02F5
:1050B00026BFA3F5805313FB02F35343636104F14E
:1050C000240805F1280A04F1180900274246B9B25C
:1050D0002846FFF7CBFB06460028D8D101371AF83F
:1050E000013B09F8013B062F08F10408EED104AAA0
:1050F00001212846FFF794FA06460028C7D19DF8FB
:10510000103085F830311B064ABF012384F83C007B
:1051100084F83C3094F83C3085F84C304FF4FA6316
:1051200002930023039340F63633636004A92846B4
:10513000FFF75EFF06460028A9D19DF810302BB975
:105140009DF8113013B99DF81230CBB102AA02219B
:10515000284605F026F900283ED19DF810302BB1E5
:10516000029B03F24E226368134463609DF8123081
:10517000DBB1029B03F2B222636803EB420363607C
:105180009DF813305BB103AA0321284605F009F905
:10519000039B03F52572636813446360E0B99DF8CF
:1051A000143063B963686B6171E79DF81130002BAF
:1051B000E6D0029B03F5257263681344DFE701AA7A
:1051C0000421284605F0EDF8019B03F226226368CE
:1051D000134463600028E5D0064658E738B5044616
:1051E0000D4601F07F0204308A21FFF758FA84F857
:1051F000605138BD044A536823B192F900208242BD
:1052000000D11847704700BFAC100020034B1B684B
:10521000DA79511CD9711344187A7047EC1E0020BA
:1052200010B5FFF7F3FF84B2FFF7F0FF04EB0020A7
:1052300080B210BD064B10B501460446986806F0D2
:1052400087F8044B1B689A7954409C7110BD00BFCD
:10525000AC100020EC1E002010B50446C0B2FFF7D1
:10526000E9FF200ABDE81040E4E710B5044680B22B
:10527000FFF7F2FF200CBDE81040EDE7024B0146BE
:10528000986806F065B800BFAC1000202DE9F34126
:1052900088469DF824E0184E11461A469DF82030A5
:1052A00005460C240020042807460AD0013004FBE0
:1052B000006C1CF90CCCAC45F5D104FB07642089CB
:1052C00008B1002002E025B1012D11D002B0BDE8E7
:1052D000F0810A48CDF800E004F042F80028F5D04B
:1052E0000C2303FB07660571A6F808807060EDE7E4
:1052F000CDF800E00248EFE7400A00200038014006
:105300000044004070B50E490E4A0B7B1268002520
:10531000032B05DD05B10B73002070BD2346F7E7B5
:1053200002EBC3065C1CB6883042E4B24FF00105C4
:10533000F4D00C730820022110FB0310104470BD40
:10534000AC100020141F0020014B00221A73D9E773
:10535000AC1000202DE9F0411D4D00240A274FF428
:105360007A7682781FFA82FEA4EB0E031BB2002B22
:105370002ADDC2F16402D2B290F8038003FB03FC81
:1053800008FB0CFCC8F164080EEB8E0E12FB02F257
:105390009CFBF2F24244534393FBF7F303EB4E03BF
:1053A0001BB26B800A88B1F802E00A34AEEB020E41
:1053B000A4B203FB0EF3782C93FBF6F3134425F809
:1053C000023FCED1BDE8F08108BF0122D4E700BF83
:1053D000B810002030B50C4C002340F6C415072B44
:1053E00010D003FB03F2A2F1190142784A4302F6FE
:1053F000C41201785A434A4392FBF5F224F8132071
:105400000133ECE730BD00BFD21000200430104B58
:1054100010B533F910200C7840F633039A42A8BF38
:105420001A46B2F5617F4FF0190340F28330B8BFDE
:105430004FF4617213FB0404944207DA497813FBBA
:1054400001009042B4BF0020012010BD002010BD1B
:1054500000100020034B002283F834209A639A87BF
:105460001A647047AC10002070B408B970BCF1E742
:105470000E4A00230C25114605FB03F4A65C864268
:1054800009D10B4B186C50B12244557842789542A3
:1054900005DB70BC70470133102BEDD1F9E700221A
:1054A000214419649A879A63F3E700BFA821010891
:1054B000AC10002040000C4A142870B4A8BF14207F
:1054C000002302F14401022614255E540233CC1855
:1054D000984204F8015CF8DC1344FF2283F844206E
:1054E0000F2070BCC0E700BFAC10002010B50A4907
:1054F0000A480A68846800BF0B689A42F9D1084BD1
:10550000D96D4FF47A7000FB01F31B1BB3FBF1F371
:1055100000FB023010BD00BF401B002010E000E087
:10552000AC10002038B50446FFF7E0FF0546FFF752
:10553000DDFF401BA042FAD338BD10B5044604B9C4
:1055400010BD4FF47A70FFF7EDFF013CF7E72DE94E
:1055500087482D4C06460B27013FFCD04FF01E0B11
:1055600005254FF0020806F0400906F0200A00E089
:105570000025B9F1000F04D0A38A9BB283F48043C5
:10558000A382BAF1000F04D0A38A9BB283F4004334
:10559000A38216F002021FBFA38A9BB283F40053BA
:1055A000A38258460192FFF7C8FF019AB9F1000F94
:1055B00004D0A38A9BB283F48043A382BAF1000F84
:1055C00004D0A38A9BB283F40043A38222B1A38AAE
:1055D0009BB283F40053A3825846FFF7AEFF7DB120
:1055E000013DC6D14FF4FA70FFF7A7FF4FF0960BBD
:1055F000B8F1000FBCD14FF47A70FFF79EFFABE714
:1056000008F1FF38F4E700BF00080048024A1368B9
:1056100001331360704700BF401B00200920E9E5FB
:105620002820E7E506EE901AB8EEE66ADFED106A8C
:10563000104B9FED117AB3F8603026EE266AF7EE34
:10564000005AC5EE866A07EE903AF8EE677A67EE82
:10565000877A90ED007A76EEA76A30EE470A87EEF9
:10566000A66AA6EE007AB0EE470A80ED007A70478F
:10567000DB0FC940AC100020BD3786352DE9F74F50
:10568000244D254E254F002495F86280E0B2404518
:105690000ADA56F820302BB10B2803DCDB6837F828
:1056A000101098470134EFE71D4B1B685B032DD5A5
:1056B0000025194FDFF86CB029464FF0500A4FF023
:1056C00028092A46EEB2B04520DD57F826305C683E
:1056D0008C4214D02046019203F0F0FDEFF31283C8
:1056E0008AF31288616A09FB00B001314162616985
:1056F00041F001016161DBB283F31188019A57F82F
:1057000026301B6801351A602146DBE703B0BDE88F
:10571000F08F00BFAC100020C8110020060A002046
:10572000FC0F0020501B00202DE9F04FF34BF44CF0
:10573000D3F80090D4F868A0F24DDFF80C84F24F53
:10574000F24E2DED0A8BD14583B0B0EE40BADFEDBD
:10575000F08ADFEDF09A9FEDF09A9FEDF0AA00F04D
:105760001483EF4BC4F868901A780193DFF8DCB328
:10577000002A4ED1BBF90230D5ED085AD5ED060A04
:1057800007EE903ABBF9043000EE103AB8EEC07A5A
:10579000F8EEE77A95ED070ABBF9003065EE876A07
:1057A000B7EE006AE7EE806A20EE470AA0EEE06AF4
:1057B000A7EEA50A60EEE60A06EE903AF8EEE66A73
:1057C000B1EE400AE6EE260A0AF032FFDFEDD57AA6
:1057D000B4EEE70AF1EE10FAB0EE401A00F1B18231
:1057E000DFEDD17AB4EE670AF1EE10FAC8BFB0EE81
:1057F000671ACE4AD2ED010A92ED000A03F02EFAA2
:10580000019BC8ED008A0122C8ED018AC8ED028A19
:105810001A70BBF90030D5ED01AAD5ED006A07EE8C
:10582000103ABBF9023008EE103AB8EEC88AB8EE6A
:10583000C77ABBF9043068EE2AAA07EE903AE7EE81
:1058400026AAF8EEE77AD5ED026AE7EEA6AAD5ED2C
:10585000046AC4ED1BAA28EE268AD5ED036AA7EEDA
:10586000268A95ED057AA7EE878A28EE08CA84ED88
:105870001C8AB0EE4C0AAAEEAA0A0AF057FFCAEE3A
:1058800080BAB0EE4C0AABEEAB0A0AF04FFFDFED88
:10589000A87AB0EEEB7AB4EE677AF1EE10FA09DC92
:1058A000C8EE00AAB0EEEA7AB4EE677AF1EE10FA2A
:1058B00040F36882DFED96AA97ED010A97ED007A32
:1058C000D7ED027AD5ED08BA20EE000AA7EE070A56
:1058D000A7EEA70A0AF02AFFD5ED097AF4EEE97AD5
:1058E000F1EE10FAB4EEC90A48BFC5ED099AF1EE1F
:1058F00010FAB0EE40CA00F12782DFED957AB4EEDF
:10590000E70AF1EE10FA00F32282C0EE097A6BEE9C
:10591000AABA95ED098A94ED1E0A6BEEA77A20EEDD
:10592000000A27EE888AD4ED1D7AA7EEA70A0AF0AE
:10593000FDFEF1EE007AB4EEE70AF1EE10FA9DBF3B
:10594000F1EE027A77EEC07A9FED7A0ADFED7A7A8D
:10595000336898BF67EE807AD90768EE277A58BF18
:10596000B2EE007AC8ED027A58BF67EE877AA9EBEB
:105970000A0358BFC8ED027A07EE903A9FED6F7A9E
:10598000F8EE677A67EE877AB0EE007AF4EEC77ABF
:10599000F1EE10FA05D5B4EECACAF1EE10FA00F134
:1059A0000982D4ED207AB4F88430F0EEEAAA7AEED7
:1059B000A7AA0133C4ED20AAA4F88430604AD5ED2B
:1059C00001BAB2F90030D5ED006AD5ED04AA5B4208
:1059D00007EE903AB2F902305B4208EE103AB8EEA8
:1059E000C88AB2F90430B8EEE77A68EE2BBA5B42A7
:1059F00007EE903AE6EE87BAF8EEE77AD5ED026A5E
:105A000068EE2AAAE6EEA7BAD5ED036AC4ED1DBA80
:105A1000E7EE26AAD5ED056AE7EEA6AAD5ED076A58
:105A2000C4ED1EAA28EE268AD5ED066AA7EE268AC0
:105A300095ED087AA7EE878AD4ED227A84ED1F8A45
:105A40003BEE27BADFED3F7A84ED22BA6AEEA7AAD1
:105A50006BEEA7BA6AEEAACA28EE278AB0EE6C0AE5
:105A6000ABEEAB0AA8EE080A0AF060FE8BEE80CA25
:105A7000B0EE6C0AACEE0C0AA8EE080A0AF056FE6C
:105A8000CAEE80BA2BEEAB0AACEE0C0AA8EE080AFE
:105A90000AF04CFE88EE000AB0EE4C8AA0EE288A8E
:105AA000B0EE6B7A90EE687AD5ED037AD5ED006AA8
:105AB000D5ED04AA97ED010A68EE277A68EEEBBAF5
:105AC000E7EE267AECEE28BAD5ED066AEBEEA67A7A
:105AD00068EE2AAAC4ED237AB0EE67CAD5ED017A42
:105AE000E7EE27AAD5ED077AEBEEA7AAD5ED057A62
:105AF000C4ED24AA28EE278A2CE000BF6C100020F9
:105B0000AC100020180000204C100020841400204D
