:020000040800F2
:1000000000A00020AD090108150A0108150A010821
:10001000150A0108150A0108150A01080000000068
:10002000000000000000000000000000150A0108A8
:10003000150A010800000000150A0108955600087D
:10004000150A0108150A0108150A0108150A010810
:10005000150A0108150A0108150A0108150A010800
:10006000150A0108A5560008150A0108150A010815
:10007000150A0108150A0108619B0008150A010804
:10008000150A0108150A0108150A0108150A0108D0
:10009000150A0108150A0108150A0108150A0108C0
:1000A0000DB1000861B10008FDB000084F9A0008CA
:1000B00051B1000841B1000831B10008150A01082A
:1000C000150A0108150A0108150A0108150A010890
:1000D000150A0108599B0008519B0008150A0108E0
:1000E000A9560008150A0108150A0108150A010891
:1000F0002DB10008150A01081DB10008150A0108F4
:10010000000000000000000000000000150A0108C7
:10011000150A0108150A0108150A0108150A01083F
:10012000150A0108150A0108150A0108150A01082F
:10013000150A0108150A010800000000000000006F
:10014000150A0108150A0108150A01080000000037
:10015000000000000000000000000000000000009F
:100160000000000000000000150A0108150A01083F
:10017000150A010800000000000000000000000057
:0801800000000000150A01084F
:1001C0002DE9F04FB1B00AF021FB18B90AF084FC18
:1001D0000BF00AFEBF4DC04C0AF03EFB2B7843F0FB
:1001E00001032B70BD4B4FF47002C3F8882000232D
:1001F000089309930A93236843F4803323602368A8
:1002000003F400330993089B01330893099B1BB93E
:10021000089BB3F5A04FF2D1236813F4003318BF45
:1002200001230993099B012B40F0798202230A9351
:10023000AB4B12221A606368636063686360636833
:1002400043F480636360636823F47C1363606368D2
:1002500043F4E8136360236843F0807323602368EA
:100260009901FCD5636823F003036360636843F07E
:1002700002036360636803F00C03082BFAD10A9B46
:10028000964F6B60974BFB60636A636ADFF89C82F2
:10029000DFF89CB2DFF89CA243F08073636263696D
:1002A00043F4FC0330AE636103238DF8723041F6F2
:1002B000FF7326F8503D4FF09040314606F06AF843
:1002C0004FF6FF7331468848ADF8703006F062F89B
:1002D0003146404606F05EF83146844806F05AF84A
:1002E0003146834806F056F83146824806F052F807
:1002F000304608F087FC1C9B7F4AB3FBF2F37F4A31
:10030000DFF834E213607E4B7E4A4FF0000CC3F8F6
:1003100000C0C3F804C07C4B5A60F02287F8232049
:100320000722C3F808C01A60DBF80830CAF80030AA
:10033000BEE80F0037460FC7BEE80F000FC79EE8A4
:100340000F0087E80F00636943F40023636163696A
:1003500043F400236361636943F4002363616369C9
:1003600043F4003363614FF0904310221A8520223A
:100370001A8540221A854FF40043C8F818304FF40C
:100380008043C8F818304FF40053C8F81830674657
:10039000CDF80CA0391DF0593144083705F0FAFFAB
:1003A000302FF7D1039B594AD3F80090584BDFF810
:1003B0008C811A60574B04221A7000213A4640463D
:1003C00012F088F80127002188F8001088F818102A
:1003D00088F8241088F80C70142217A812F07AF804
:1003E00019F4802F08BF4C4BDFF8FC8008BF1F704A
:1003F0002B784A4FDFF8489143F004032B7006F046
:1004000009F9474B1F60636943F480236361E36923
:1004100043F40013E361236B23F010032363236B86
:1004200043F010032363D8F8243023F00F03C8F8F7
:100430002430D8F8243043F00403C8F82430D8F826
:10044000243023F0F003C8F82430D8F8243043F0E7
:100450004003C8F8243002234FF0000A4FF48072A2
:100460008DF87430049331464FF0030340468DF805
:1004700075301C928DF876A08DF877A00BF052FBAA
:100480004FF40072314640461C920BF04BFB3A6829
:10049000039B22F001023A603968224A0A403A601E
:1004A000214A3A613A6842F001023A60C7F808A06E
:1004B000C7F80CA0C7F808A0BA6842F40042BA60B6
:1004C0003A683A607A6822F0784222F400427A6010
:1004D0003A6837E0341100200010024000ED00E0DF
:1004E000002002400005FA0500040048000C004806
:1004F000001000480014004840420F00C81A0020B5
:100500006C1A00203F19010010E000E03E150020A9
:10051000EC280020181A0020D40C002000540040C1
:100520000C240020FFE0CF007A25E00000080048FE
:10053000A813002004190020282701081C1A0020F5
:10054000E827002042F001023A601F68102251465D
:10055000484611F0BFFF049B8DF851304FF6FF72F3
:100560004FF0030307F0020713928DF852A08DF8A5
:1005700053A08DF8503087B130A9012741F8747D20
:1005800040460BF0CFFA0C2389F80030072389F896
:1005900001A089F8033089F802704FF4D87008F090
:1005A00021FB63695F4843F0805343F002036361BA
:1005B00008F018FB636943F0005343F002036361E2
:1005C000594C20460BF0C5F930460BF097F94FF423
:1005D0008072564B22924FF480621C932392544BAC
:1005E0001D93202200232046249231464FF40052CE
:1005F0001E932093219325922693ADF87C700BF0E7
:100600008AF9236843F0010323604A4CA36823F06E
:100610004053A360A36843F08053A3600A2004F012
:10062000D0FFA36823F08043A360A368A360A368FE
:1006300043F00043A360A368002BFCDBA3683E4AA1
:10064000DFF8F08023F04053A360A36843F0005329
:10065000A3609168394B0B4043F468339360E268C0
:10066000374B134043F40053E360236B013F23F007
:100670000F031F4327630122002409EB0403997829
:1006800041B1571CFFB2DB7819F8041040460BF05B
:10069000EDF93A460434102CEFD1264B9A6842F01B
:1006A00001029A601A68D207FCD5DA6822F00202C9
:1006B000DA60DA6842F00202DA60DA6842F00102D7
:1006C000DA609A6842F004029A60BBF9E830002BC5
:1006D0003ED007EE903ADFED1B6ABBF9EA301A4ACA
:1006E000F8EEE77A07EE103A67EEA67ABBF9EC303F
:1006F000CDED1C7A07EE903AB8EEC77AF8EEE77ABD
:10070000002127EE267A67EEA67A117030460F494F
:100710008DED1D7ACDED1E7A0BF0C4FA20E0012399
:100720000A93ACE500360010580402404004005023
:10073000F82700200004005000070050E010FCFFE4
:1007400007C0FFFD35FA8E3C42030020181F002031
:10075000BBF9EA20002ABCD1BBF9EC20002AB8D1B1
:10076000DFF85083BBF8F030DFF84CA3059300248A
:100770009BF8EF30C8F8004010222146C8F804402A
:10078000C8F80840BB4804932C729BF8F77011F02E
:10079000A1FEB94BA5F809402320CAF80040CAF8C9
:1007A0000440CAF808401C6004F00BFF0BAA0121AA
:1007B000752009F0F9FCD146F0B1B04BCAF804300D
:1007C000AF4BCAF808300FAA4323012120468AF80C
:1007D000003009F0E9FC9DF83C3003F07E038DF811
:1007E0003C30002800F0EE80682B40F0EB800123C5
:1007F0006B721D238AF800306A7AA24B069300219F
:10080000042A197041F0E2809A4B9F4A9F4C1A606B
:100810009F4A5A609F4ADA602268079142F00100BD
:1008200020609A464FF0010940F2022040F2FD1E7E
:10083000049B0A2B28BF002309FA03F111EA000CDC
:1008400041F0CA8011EA0E0F01F0C680924B83F886
:1008500000C0924BC8F8003042F00302904BC8F839
:100860000430226023689B0702D5D8F800309847EF
:10087000DAF800300598DFF8448298474FF0000915
:10088000CA4688F800A01FB1BB1E022B00F2DB8015
:100890003346012200210C208DF8709009F00AFCEB
:1008A000002800F0D0809DF87030482B40F0CB80BD
:1008B0007C4B7D4A1A607D4A5A60062388F80030D6
:1008C000236843F0080323609BF8E4300BB1069AD9
:1008D00013709BF8E5300BB16F4A13709BF8E6304C
:1008E0000BB188F800309BF8F830042B00F2B2808E
:1008F000012404FA03F212F016085ED112F0090F77
:1009000000F0A6800A2004F05CFE13AB2246A02172
:10091000772009F0CFFB00284FD022461E217720F8
:1009200009F0C4FC4FF42F60614F04F03FFEC14654
:100930003C46A8F1600133460222C9B277208DF807
:1009400070908DF8719009F0B5FB9DF870209DF8BE
:10095000713043EA022328F8073008F10208B8F1A1
:10096000100FE6D1FA89002302F00F0602F47F424D
:10097000FA8119460127481034F81000002818BFE2
:10098000002711F0010F1ABFC0B2434083EA1023C1
:10099000082013F4004F18BF83F4C05301384FEA06
:1009A0004303F6D101311029E5D13243E28127B961
:1009B000C3F303339E4201F033802B7A43F02003CC
:1009C0002B724CE09DF82C3003F07E03682B8DF8E1
:1009D0002C3033D1022306216B723246D9F8043011
:1009E000084698479DF875309DF873209B0052008B
:1009F00002F0020203F0040313439DF8712002F099
:100A000001021343DAB25BB1012A02D10023AB72B7
:100A1000F2E6022A01D10123F9E7022004F0DBFD0E
:100A2000D9F8043013AA01210C2098479DF84C30C6
:100A300013F00F03F1D0042BEDD1E7E7702B04BFC7
:100A400004236B72D8E6012F7FF63EAF002718E72C
:100A5000012BB2D00D4A136843F0040313606B6896
:100A6000012B02BF2B7A43F040032B722C7A3CB34C
:100A70002046D3E7D41C002004240020A9A10008AC
:100A8000C1A20008A0070020F99F0008B4190020A7
:100A90002D9F000890C1793D00080020A1A000080A
:100AA000719F00088019002015610008516000083E
:100AB00010240020F4070020F423002088190020CF
:100AC0002B7843F002032B70A74D4FF480432B8506
:100AD0004FF40043AB611026013E15D0AB8A9BB2A8
:100AE00083F48043AB82AB8A9BB283F40043AB8236
:100AF000AB8A9BB283F40053AB82192004F061FDF2
:100B0000192004F05EFDE7E74FF40043AB614FF4BA
:100B10008043AB61954E4FF40053AB6132681007D0
:100B200005D5934B1B689847924B01221A70924B44
:100B3000DFED926A1B68924D1A7B924B1A80924BA2
:100B40001B8807EE103AB8EEC77A904BC6EE877A4C
:100B50001B22FF2128469FED8E7A67EE877AC3ED30
:100B6000007A11F0B7FC00222A703268894B01210B
:100B700012F0020F1970284604D069700321197011
:100B80000221A970510704D519784D1C1D70032549
:100B9000455412F00A0F40F05487039A1568AA06CC
:100BA00004D51A78511C1970072181549BF805202F
:100BB000082A01D00E2A04D11A78511C19700B2171
:100BC00081541A786F0702F101014FF00C06865428
:100BD000C9B248BF0232197042BF1A701022425483
:100BE0001A781226511CC9B286546E05197004D5A4
:100BF0009BF8B861002E40F03387A90504D51A7818
:100C0000511C197015218154EA0504D51A78511C1C
:100C100019701A238354982200215F485E4DDFF833
:100C2000A0A111F057FC012004F0D2FB4C2758B3CF
:100C3000012C29DC07FB04F905EB090898F84A6048
:100C400016B10134E4B2F2E7037990F9000001969D
:100C50000AEB8303032200921B6B3246012104F04E
:100C600059FB834660B104FB07504C22314611F01A
:100C700031FC01231C4445F809B088F84A30E4B23D
:100C8000012004F083FBD2E7444B2A681A60444BEE
:100C9000444E454A1E60002313809370434ADFF898
:100CA000248113605360424ADFF81CC11468414A32
:100CB000DFF818E11660404AF0891370A6F59B76BC
:100CC000B6F84621643204F17D0107B212B2A3F1F5
:100CD0000805EDB2022DDCF8005098BF28F813206B
:100CE00005F5167588BF28F813704EF823500133A8
:100CF000122BECD1314B03931D6815F4805F08BFB4
:100D0000B6F94A71A8F80670CD348C421CD00B7825
:100D100083B98A78CB789A420CDA6AB1013A02EB4D
:100D2000820202EB820202F561734A7804329BB2BE
:100D300028F812300431E8E7013303EB830303EBB7
:100D4000830303F56173F0E72B074ED596F83E2138
:100D5000062A44D8DFE812F03C008F009200BC0065
:100D6000D600F000F00000BF00080048B4190020D1
:100D700080190020A4190020CC2400200AE81C417E
:100D8000B91900204008002044030020C81E00209C
:100D90000000C842B819002074080020741A00200E
:100DA0001C130020DE140020782400209C24002046
:100DB000342400203C2400209F120020041900202D
:100DC00028270108081900201825002034130020C6
:100DD00045F2F052754B1A8002F0AEFC28B908209B
:100DE0000AF0F2FF724B734A1A60039B1A68724B47
:100DF00012F4804F04D0122119706D496F480860B9
:100E000042F20100024202F4005140F02F861A78AB
:100E10006B4C6C4DDFF8F8A1DFF8F891043A5A708A
:100E200004F0A8FB684B18607379052B02BF674B71
:100E30004FF4C8721A8006F001F9654B4FF47A72CC
:100E40001A80002323602B602368002B40F0E88089
:100E5000232704F08FFB0AF0D5F80A2004F0B1FB39
:100E6000013FF6D10AF0A2F8DAF800302360D9F891
:100E700000302B60E8E742F6F822ABE74B4B42F636
:100E8000F8221A80534A0A23000190FBF3F0002352
:100E9000A0F5B06042F823000133122BFAD1444A86
:100EA0004D491160444A4020137004F091FA002823
:100EB00095D00123072790F90000484A8DE8880063
:100EC000474B402104F026FA003018BF012085E787
:100ED000364B42F6F8221A80354B424A1A60364B9E
:100EE00010221A70402004F073FA00283FF477AF04
:100EF0000123002590F900003B4A8DE828004FF4BB
:100F0000E133DEE7294B42F6F8221A80284B374AB4
:100F10001A60294B08221A70402004F059FA002860
:100F20003FF45DAF0123002490F90000304A8DE8C2
:100F300018004FF4E133C4E71C4B2E4D2E4C2F48C4
:100F4000DFF8D4C0DFF8D4E02D4F42F6F821198045
:100F5000194B0C211970062A4FF000032B702370D7
:100F600003701AD01B238CF8003005238EF8001074
:100F70003B704FF4E1340E4B224A1A60402004F0DB
:100F800027FA00283FF42BAF0023012190F900003D
:100F90001D4A8DE80A00234693E721238CF8003090
:100FA0008EF800103A70194CE5E700BF0E090020DA
:100FB00008010020C1B20008A413002099B2000863
:100FC0000C1D0020081D002044080020E8280020F7
:100FD0002C130020EC26002065B20008C1B40008E4
:100FE000A086010051B200081DB4000839B2000803
:100FF000D5B300087A2600205D2700205C2700205A
:101000005F27002065B10008C5B2000890D003003A
:10101000FC240020F82400205E27002079260020F0
:101020000023DFF8D8A3DFF8D89323602B600F27C5
:101030004FF0050B04F09EFA09F0E4FF0A2004F0DB
:10104000C0FABBF1010BF5D109F0B0FF2368DAF863
:10105000002029681A44D9F8003022600B44013F6F
:101060002B60E5D10F2192FBF1F22260CB4A93FB7A
:10107000F1F32B60137843F008031370C84A137818
:1010800023F002031370039B1B6840F602021A420E
:1010900009D0C44BC44A1A60C44B03221A70C44B13
:1010A0001F80C44B1F80039AB3681360C24AC349B0
:1010B000C34CDFF850A301231370C04A8DF872307F
:1010C0001278059362F07F0201F80C2B4FF00209B1
:1010D0008DF873904FF48052ADF8702062690491DE
:1010E00042F480220DF1700B62615946504605F0C2
:1010F00051F94FF48053CAF81830282004F061FAEF
:101100004FF48053CAF81830484604F05AFA4FF4A6
:101110008053AAF82830484604F053FA4FF480531D
:10112000CAF81830484604F04CFA002002F0BCFA25
:101130005A213A2002F09AFA052004F042FA484671
:1011400002F0B2FA032002F0AFFA042002F0ACFA87
:10115000052002F0A9FA062002F0A6FA059B18461F
:1011600004F02FFA09F0B0F8642004F02AFA954A46
:10117000059BDFF894E24FF080411160924A934959
:101180001160934A934911604FF49662A8F80A20BF
:10119000DFF8788288F8003088F801308E4B4FF401
:1011A0007A621A609EE80F000DF12C0C8CE80F009B
:1011B0000EF110030FCB0DF13C0989E80F000EF181
:1011C00020030FCB0DF14C0A0EF1300E8AE80F0010
:1011D0009EE80F008BE80F009AE80F00049D85E859
:1011E0000F00764B03F11C0E9BE80F008EE80F00FA
:1011F00099E80F000EF1100E8EE80F009CE80F002A
:101200000EF1100E8EE80F004FF4967004F0D9F92D
:1012100000214FF48C72714811F05CF9E36943F0DE
:101220000703E361A36943F4A523A361636943F45E
:10123000C0236361614B03F1100103F1600E1D4691
:10124000049B05934FF00F0C10318E4540F00B823C
:1012500073790E2B40F0208201238DF86630604BAD
:101260001A68042F00F021827B1C02EBC30111F9E4
:10127000061C022940F01782FF00BB1CD31804D0C3
:101280001744BB88003318BF01238DF86130039BDE
:101290001A68C2F340038DF86230C2F380138DF8F0
:1012A0006430C2F340338DF85C30C2F3C0338DF844
:1012B0005F3012F4006307D096F83231A3F1020ECA
:1012C000DEF1000343EB0E038DF86030C2F3004300
:1012D0008DF86530C2F3C003B6F8D4708DF85E3077
:1012E000C2F38043ADF86A708DF86330D704B6F866
:1012F000E030ADF8683002F0010002F0080144BFB0
:10130000B6F8DC20ADF86A20B3F5FA7FC4BF00233D
:10131000ADF86A3096F8823185F84C300023A5F894
:101320004D309DF866308DF85D00002B14BF022211
:10133000002200B901B101322A4BDFF8D4A003EB3F
:101340008203D3F890309F1E0633049337F8023F90
:101350004FF6FF72934240F0B781234BDFF8B4E0C1
:10136000224F04221A700025EB190FCB05EB0E0655
:101370001035402D86E80F00F6D1039B1C481A68F3
:101380001C4B1E681C4B02F480521D680023002A6F
:1013900000F01783B5F904103EE000BF8919002062
:1013A000C8280020E4270020D0140020580800207E
:1013B0005A0800205C080020D40C002034110020C2
:1013C00000100240D41E0020D01E0020ABAAAA3F6D
:1013D000CC1E002026B4973E0C00002028250020BB
:1013E000EC28002028270108CE1A0020C827010871
:1013F000CE280020B0240020AC240020FC240020B3
:10140000F824002000040048782701083109002052
:1014100094110020140C002020F8131001330C2B21
:10142000B5D1022501278DF872708DF8735063696C
:101430009F4E4FF0100943F48023ADF87090594649
:101440006361304604F0A6FFA6F828908DF872700C
:101450008DF8735063694FF0800A43F400334FF006
:101460009049ADF870A0594663614FF0904004F088
:1014700091FFC9F818A08DF872708DF873506369E8
:10148000ADF8705043F4802363615946304604F050
:1014900081FF35858DF872708DF8735063694FF454
:1014A000004A43F40033ADF870A0594663614846E2
:1014B00004F070FF98F80030C9F818A0A3B10A2012
:1014C00004F07FF88DF872708DF8735063694FF4F3
:1014D000005943F48023ADF870905946636130465B
:1014E00004F058FFA6F8289098F80130BBB10A2004
:1014F00004F067F801238DF8723002238DF8733001
:101500006369102543F40033ADF8705059466361A8
:101510004FF0904004F03EFF4FF090431D8598F847
:101520000230C3B10A2004F04CF801238DF8723068
:1015300002238DF8733063694FF4807543F40033F0
:10154000ADF87050594663614FF0904004F022FFAF
:101550004FF090431D8598F80330ABB10A2004F09A
:1015600030F801238DF8723002238DF873306369EF
:10157000082543F48023ADF8705063614C4C594604
:10158000204604F007FF258598F80030002B00F076
:101590001B821E2004F015F8454B4FF400529A614F
:1015A0001E2004F00EF8434800F08EFA1E2004F0CE
:1015B00008F82A213F480BF00DF92B2498F8013048
:1015C000ABB11E2003F0FDFF4FF0904310229A6153
:1015D0001E2003F0F6FF384800F076FA1E2003F0D4
:1015E000F0FF214634480BF0F5F80134E4B298F8E6
:1015F0000230B3B11E2003F0E4FF4FF090434FF4EC
:1016000080729A611E2003F0DCFF2C4800F05CFA27
:101610001E2003F0D6FF214628480BF0DBF80134EA
:10162000E4B298F8033093B11E2003F0CAFF204BB8
:1016300008229A611E2003F0C4FF214800F044FAFA
:101640001E2003F0BEFF21461D480BF0C3F898F89A
:10165000043013B11B4800F037FA1E2003F0B1FF2D
:1016600031B0BDE8F08F11F8063C11F8050C4FEAD7
:10167000D30903F0070251F8103C03EB89039200F1
:10168000D3F8209090400CFA02F229EA02021A6282
:101690001A6A10431862D7E503F0EF03082B3FF4F2
:1016A000DBAD0023D9E51F46DBE50023EDE500BFF8
:1016B0000004004838090020A00A0020C80F0020BC
:1016C000600E0020F80C00209DF86220DEB21B0A9C
:1016D0004AB105EB0612C6481169814203D1928ACC
:1016E000012A00F06381022B00F06081059A012B32
:1016F00002EB061040F031819DF85D30002B00F0C8
:1017000055813601BB4BE86505EB06090022FF2138
:101710001A705A609A60DA601A6483F8441083F889
:10172000451083F8462083F8472099F8193085F84A
:1017300050208DF87230B9F81420D9F81000ADF8A7
:101740007020022359468DF8733004F023FE95F87B
:101750004C2099F81630D9F80C00012A0CBF03224E
:101760000022002B40F0A080036A23F001030362F3
:101770008369016A23F0F30343F0010321F00A01B6
:1017800043EA021341F0010183610162836923F09E
:101790000C0383618369836105EB06090021012243
:1017A00008F05CF9D9F80C2013889BB243F00103D0
:1017B000138099F817308DF87030002201235846B5
:1017C0008DF871308DF8722007928DF87330069382
:1017D00001F0AAFE99F81710069B079A1B290BD156
:1017E000192158468DF870108DF871308DF87220DF
:1017F0008DF8733001F098FE05EB06097E4B2B66E1
:10180000D9F80C607D4B6B660023AB66304608F060
:1018100073F9062800F3CA8099F816E0784A7949E6
:101820000A23434303EB9E034FEA9E0E42F823A094
:10183000043342F823100221F36801FA0EF189B251
:10184000194303B203EB8303DB00F16003F12001D2
:101850001144EFF3128C4FF0500E8EF312881033B8
:1018600013444FF0040ED3F80090B9F1000F03D0E9
:10187000C1F8009019680431BEF1010E03F10403B0
:10188000F1D1C1F800E05FFA8CFC8CF311882823B9
:1018900003FB0020036A002B40F0FC80F36823F078
:1018A00001031B041B0CF8E0042B19D1036A23F07D
:1018B00010031B041B0C03628369016A21F0A00161
:1018C00023F47343090443F48073090C43EA02339D
:1018D00041F0100183610162836923F4406358E79A
:1018E000082B036A1ED123F480731B041B0C0362B4
:1018F000C369016A9BB223F0F30343F001034FF283
:10190000FF5E43EA021301EA0E0EC3614EF48073D8
:101910000362C36923F00C031B041B0CC361C3697E
:10192000C36139E723F480531B041B0C0362C369B2
:10193000016A23F440731B0521F400511B0D490477
:1019400043F48073490C43EA023341F48051C3618C
:101950000162C36923F44063DEE7032B26D19DF8BF
:10196000633095F84E90284E4BB100234FF6FF722E
:10197000082104F039FD254B46F8290010E0BDF898
:101980006820BDF86A30B2F5FA7F14DD2049B1FB5A
:10199000F2F2242192B204F027FD1E4B46F82900F2
:1019A000C36095F84E30013385F84E30049BBB423E
:1019B0007FF4CCACD1E41849B1FBF2F2012192B230
:1019C000D7E7B6F9041027E52A24F7E52B7A43F088
:1019D00002032B72FEF787BF0021012B04913EF614
:1019E00027AF0E4B9DF81C201A70FEF73BBF00BFBF
:1019F00000040048241B0020315F00080960000833
:101A00002825002098110020881B0020196000085C
:101A1000005125022D60000840420F000008002000
:101A20001F4B42F210721A805A801E4A5A601E4A98
:101A30009A601E4ADA601E4A1A611E4A5A61FFF70E
:101A400009B81A7804218154511CC9B2052545549E
:101A5000D11C0232D2B2197006218154FFF79DB811
:101A600002321A7013224254FFF7C7B8124844F6E4
:101A70002064048021B108211970104910480860C1
:101A8000D2077FF5C4A90C221A700C4A0D491160C7
:101A9000FFF7BDB9F36843F00103F36086E700BFC9
:101AA000002500208FA70008C3A7000885A700080D
:101AB000C1A70008E5A500080E09002008010020C4
:101AC000B5B20008A9B200082DE9F04F292380F82B
:101AD00060314FF4C8760123041D05469DB080F89F
:101AE0006131A0F8626100228821204602F07DF871
:101AF0004FF47A72A5F85621714AC5F85C2100238B
:101B0000704AA5F8586185F8F430C5F8D8206B62A2
:101B10000CA9204603F0BFFA0646A0B98DF83000A4
:101B20008DF831000DF1300EBEE80F0005F11407FD
:101B30000FC7BEE80F000FC7BEE80F000FC79EE833
:101B40000F0087E80F006423A5F838314FF4617364
:101B5000A5F83A314FF4FA730127A5F83C314FF458
:101B60002063A5F840313A46802185F8547120461B
:101B700002F03BF83A468046FF21204602F035F855
:101B8000002248EA000011460643204602F02DF8E4
:101B900076B20DF12808064342469121204601F015
:101BA000E5FF76B29DF8283085F83E3106433A4687
:101BB0000021204602F019F876B206430022FF21E8
:101BC000204602F012F876B2064300228021204619
:101BD00002F00BF876B2304340B20026002840F005
:101BE000DD81B3B2013B042B04D8DFE803F00B59CD
:101BF0005C5F660085F82C70AB194FF0000A83F823
:101C00002C700BE005EB860344219A6B2046C2F34F
:101C10004F2201F0D6FF82460028EDD00136062E75
:101C20005046DBD1BAF1000F56D185F82EA085F8C9
:101C30002FA00223FE226021204601F0A4FF82464D
:101C4000002849D185F830001023EF22602120467A
:101C500001F099FF824600283ED14FF49013AB6308
:101C600095F82D3085F8310073BB4FF48043EB635A
:101C70004FF40C132B6495F82F30002B40F08C811F
:101C8000FF226B6485F834210121204601F0ADFF6D
:101C9000012385F836318246F0B985F819A11BE099
:101CA00085F82E70A8E785F82F70A5E70023FE229F
:101CB0006021204601F067FFADE70023EF22F7E740
:101CC000856B0100A470090020224421204601F008
:101CD00078FF82460028C8D0B44F87F800A0BAF138
:101CE000000F40F01A81402251460CA810F0F2FB80
:101CF00095F8F490ADF81EA0B9F1070F8DF81BA070
:101D00008DF81CA0CDF820A000F0F28001228021E7
:101D1000204601F06AFF01220646FF21204601F01D
:101D200064FF524606435146204601F05EFF76B2FC
:101D300006430622FF21204601F057FF76B20643F4
:101D40000DF11D028321204601F010FF9DF81D209A
:101D500076B2064342F004028321204601F045FF9B
:101D600076B206430722FF21204601F03EFF76B2FD
:101D7000012281210643204601F037FF76B2064357
:101D80000A2003F01EFC01228021204601F02DFFD5
:101D900076B2064319F0010B76B240F001816B2256
:101DA0009421204601F021FF8246204607F047FBA0
:101DB0004AEA0000064309AA9021204601F07EFE6F
:101DC000099B76B2C3F3062294210643059220466E
:101DD0002422C3F3C03A01F008FF76B2064320463E
:101DE00007F02DFB76B2064309AA9021204601F0A8
:101DF00065FE099A8DF82B20110E8DF82810110C14
:101E00008DF8291076B2110A064325228DF82A1082
:101E10002046942101F0E9FE76B20643204607F001
:101E20000EFB76B2064309AA9021204601F046FE39
:101E3000099A76B2110E0643120C76B28DF82C1068
:101E40008DF82D2000228121204601F0CEFE0622B1
:101E50000643FF21204601F0C8FE76B206430DF18D
:101E60001D028321204601F081FE9DF81D2076B2DF
:101E7000064302F0FB028321204601F0B6FE76B253
:101E800006430122FF21204601F0AFFE76B2064351
:101E900001220021204601F0A8FE76B2064300226E
:101EA000FF21204601F0A1FE76B2064300228021E8
:101EB000204601F09AFE76B2304310F0FF0F17D1A2
:101EC000BBF1000F10D19DF8143085F8173185F85B
:101ED00018A105F5977318F80B2003F8012B0BF1E7
:101EE000010BBBF1060FF6D149F0010985F8F4901A
:101EF00095F81891B9F1010F05D895F817A152D1AD
:101F0000BAF1200F54D907AA08A9204607F060FBB0
:101F10000646002800F09A803E7097F900302BB9F1
:101F200008AA09A9204607F053FB387097F900303A
:101F300043B901230DF11D020DF11E01204607F0EA
:101F4000FFFA387097F9003013B901222A753B70F7
:101F500097F900301BB9012285F82C203B7097F9C6
:101F600000305BB9EA6B4421C2F34F22204601F0F6
:101F700028FE10B9012385F82D30387097F900300C
:101F8000002B40F06C8195F82D00002840F05E8118
:101F900041F69913EB6361E1002371E682469BE60B
:101FA000CDF814A04EE7BAF10C0FABE74C1A0020A5
:101FB0000122FF21204601F018FE0246A8B94F2158
:101FC000204601F012FE80B92C224E21204601F05D
:101FD0000CFE024648B9FF21204601F006FE20B95A
:101FE000B422B621204601F000FE002385F82831F6
:101FF00085F8293185F82A3185F82B3185F82C317F
:1020000085F82D31B9F1000F00F01B818E4903F1E5
:10201000B402920951F82220002A00F0DE818DE8F6
:102020000804CDF8088005F5947305F597724946C4
:10203000204601F0BDFA064600287FF46DAF01236B
:1020400085F8193185F817A185F8189195F854315C
:10205000002B40F0C781D5F85011204606F0F5FF5F
:10206000064600287FF458AF32460A21204601F088
:10207000BCFD064600287FF44FAF0346EF228421C3
:10208000204601F080FD064600287FF445AF85F824
:10209000DE00204601F003FE064600287FF43CAF38
:1020A0000122FF21204601F0A0FD0DF11E02814614
:1020B0008421204601F014FD324649EA0009FF213F
:1020C000204601F092FD4FFA89F949EA000046B234
:1020D000002E7FF421AFBDF81E301B01C5F8D830AB
:1020E0000CA9204602F0D7FF064600287FF414AF63
:1020F0000DF11B020921204601F038FD064600289B
:102100007FF40AAF9DF81B300DF1300E03F0010390
:1021100085F835318DF81B30BEE80F0005F1140647
:102120000FC6BEE80F000FC6BEE80F000FC69EE840
:102130000F0086E80F000DF11B020121204601F07F
:1021400015FD064600287FF4E7AE9DF81B308DF89C
:10215000280085F8343142460121204601F006FD71
:10216000064600287FF4D8AE9DF8283003F0EF092A
:102170004B450ED04A460121204601F036FD064669
:1021800000287FF4C9AE85F83491A969204607F08C
:10219000F5F800234246012120468DF8283001F051
:1021A000E5FC064600287FF4B7AE9DF8283003F022
:1021B000FB094B450ED04A460121204601F015FD92
:1021C000064600287FF4A8AE85F83491A969204618
:1021D00007F0D4F84FF0030985F8369109AA0021D9
:1021E000204606F08BFF064600287FF495AE9DF84A
:1021F000243085F8EC3009AA0121204606F07EFF44
:10220000064600287FF488AE9DF8243085F8E43037
:1022100042464946204607F00FF8064600287FF45C
:102220007BAE0A9BC5F8E83042460421204607F001
:1022300003F8064600287FF46FAE0A9BC5F8E0302D
:102240006AE64B46EBE600BF742801080C224421E5
:10225000204601F0B6FC00283FF49AAE387097F99A
:10226000003043B94FF47013AB6344F6206120464D
:1022700007F084F8387097F90030002B46D15022CF
:102280005721204601F0B1FC08225621204601F0DA
:10229000ACFCD0BB42460321204606F0CDFFB0B9CE
:1022A0000CAA0221204606F0C7FF80B9082250215F
:1022B000204601F09AFC50B90A9A0321204606F004
:1022C00036FF20B90C9A0221204606F030FF122377
:1022D00085F8EC30C8B9A969204607F04FF8A0B9D5
:1022E00002220121204695F8346101F07EFC60B99C
:1022F0000146204607F00CF938B932460121204644
:1023000001F073FC08B985F83461387097F90080E2
:10231000B8F1000F5ED148221146204601F065FC5D
:1023200008224721204601F060FC032206463221A4
:10233000204601F05AFC072206433021204601F0D6
:1023400054FC76B206430122FF21204601F04DFCE9
:1023500076B2064320223021204601F046FC76B2B8
:1023600006434246FF21204601F03FFC76B230434F
:1023700040B270BB0CAA0421204606F05DFF50B9A4
:1023800006227021204601F030FC20B90C9A04216D
:10239000204606F0CCFE0E2385F8E430C8B9A969C2
:1023A000204606F0EBFFA0B902220121204695F855
:1023B000346101F01AFC60B90146204607F0A8F824
:1023C00038B932460121204601F00FFC08B985F8E2
:1023D000346138701DB0BDE8F08F2C2B3FF41FAE78
:1023E000013314E6004938E611000020A9490A68C3
:1023F0002DE9F04F02F59C43A74C20332360A74BF7
:102400008BB01D780591002D3AD1A54FDFF8A08241
:10241000DFF8CCA297F80090E9B249450E4680F269
:10242000A4800729D8BFD8F800303846D8BF595CF7
:10243000DAF800309847032E1DDCD8F8003006F19A
:102440000F0B03EB8B0133F82B204B8898B1811ACB
:102450004FF47A709B1A484390FBF3F040F2EE235E
:1024600000F57A709842B8BF184640F6CA03984201
:10247000A8BF184680B204EB46060135B080C9E714
:10248000884909688A4201D9013D1D70864B009335
:102490001A6812F4805F05D0844B1B68DD0701D4F5
:1024A0000AF004F9059B1968814B1A68937A002B8E
:1024B00000F03481013B7F48127B30F913301AB1B0
:1024C000C3F53B6308331BB2A3F57A73B3F57A7F88
:1024D000A8BF4FF47A7323EAE37307EE903ADFED77
:1024E000766AF8EEE77A87EEA67A744ADFED747AB8
:1024F00067EE277AFCEEE77A17EE903A1380009B9E
:10250000DFF8E0911B6813F4807F00F054816D4B7D
:102510006D4D994203D9AB78002B00F04F87AB7813
:10252000002B00F04881614F95F821603B6899F8D5
:1025300000B00297012E03F08063DFF894A1634F8F
:1025400001930BF0040B14BF4FF003084FF0000889
:1025500095F82010052900F22881DFE811F01B0111
:1025600093019901BC01D401F1014F4B1A68584BFA
:10257000029342F20101186800900A40039206D0CB
:1025800094F8293084F82830524B5A781A7094F80D
:1025900028601EB14F4B1E7886F001060F2384F889
:1025A0002A30434B94F82BA01B6801930323BAFBFA
:1025B000F3F303EB4303AAEB0303DBB25B000493E7
:1025C000009B454FDFF8ECB003F51673002507F1CB
:1025D000BC02069307F172084D4542DA690086B1E4
:1025E00037F91500019B9B8A80B29842C0F2CE86D3
:1025F000019BDB8A984200F3C986069B42F825308E
:1026000003E03046EEE73BF80100039B1BB92BF8D3
:1026100015000135E0E7314B062101FB053E049B27
:102620002EF8030094F8743033B9BAF1020FEEDDDE
:102630004FF0010384F874304FF0000128F81510B2
:102640006B0000203EF8101033F808C001306144E0
:10265000032823F80810F5D10BB293FBF0F080B2F9
:10266000D5E794F82A300F2B174B3DD10F4A12684B
:10267000560139D4029AD96812689A60521AC82A47
:1026800002D9012283F8212094F82B30013384F8F9
:102690002B30FBE66C19002074120020BC280020AF
:1026A000A4130020B828002004190020FC1E0020DC
:1026B0003C2400200819002000007A44101A002051
:1026C00000C07F44404B4C0078240020742400203C
:1026D000182500200401002078120020A0120020FC
:1026E00008010020C8280020B84AB94E01215170C5
:1026F0001170029A99681268DA60521A59688A420F
:1027000084BF002283F8212000254D45BCDAE8B2C1
:1027100009F09CF826F815000135F6E700980068E6
:1027200000047FF5ECAED4F89000081A0028FFF6FC
:10273000E6AE01F59C402030C4F89000A548D27A5E
:102740004579A548A54E30F8150080B290FBF2F00F
:1027500094F89420013202F00F0284F8942022446D
:1027600082F8950018461A46855D01302A441028E3
:1027700012B2F9D192FBF0F212B2002A03DB642A02
:102780001346A8BF642307EE903ADFED956AF8EE92
:10279000E77AA8E6BBF1000F68D0012E05D005202E
:1027A00009F0EAFA8F4B02221A70B8F1000F02D03A
:1027B000404602F09DFE8C4DB5F8DE0001F062F857
:1027C000AA46064618B904F021FC04F00FFC99F85B
:1027D00000305B0708D5009B1B68DF0604D5834BE0
:1027E0001B78DD0640F1F68500239AF88C819AF873
:1027F0008D11BAF84671BAF848E175481A4630F9B1
:1028000012509B08BD42C4BF63F07F03DBB20132AC
:102810007545B8BF43F04003042AF0D194F8B120C5
:102820009A4240F0C18094F8B220F92A02DC0132C9
:1028300084F8B2206E4F84F8B1303B786D4D002B98
:1028400040F0E9802B68D80740F1DC80002E40F092
:10285000AD8099F80030DA0740F1DD805B0702D4E3
:10286000012384F8B33009F0D5FED4E0019B4FF486
:10287000806023B109F09AFA00232B6195E709F0F3
:1028800085FAF9E7012E7FF463AE052100F09EBDC5
:10289000012E04BF052185F82010BBF1000F0CD0DC
:1028A000D4F8A810B1F90E00494908804880888002
:1028B00038684088C8804FF00208DAF8000069697B
:1028C0008142C0F07F85BBF1000F00F07B85012EB7
:1028D0003FF43EAE69E799F8001041F0020189F833
:1028E000001009F0E3FEDAF80000E9690144A9618B
:1028F000042185F820104FF4806009F047FA052084
:1029000009F02EFA24E6012E14D1DAF80000A969A4
:102910008142BFF44AAF364B197821B9029B19683E
:10292000CA073FF542AF99F8001021F0020189F87B
:102930000010AAE7DAF80020EB691344AB6134E732
:102940003868DAF80030C188642000FB0131296161
:10295000002185F82010E970CDE79AF88E317EB914
:10296000002B00F03F85244B1A68D4F8AC309B1A3A
:10297000002B80F2378509F099FE84F8B06033E7C8
:102980003BB11D4A12684FF47A7101FB0323C4F86E
:10299000AC3094F8B030002B3FF426AF02F09EFD2F
:1029A000002384F8B0301FE7002241E7D4F8B430A8
:1029B0000A2B30DC114B1B885E072CD4104B1B7884
:1029C0004BBB04F023FB04F011FB4CE70401002097
:1029D00008190020E8270020F8270020091300200C
:1029E0000000C842E7280020A81300208919002011
:1029F0000C010020FC1E002018250020BE2800200D
:102A0000E628002099F80030580704D594F82830BB
:102A1000002B40F0ED8494F8B230994E142B2ED157
:102A20003B78C3B194F8B1305F2B06D199F80030F0
:102A300013F0040B6CD009F039FEB8F1000F0AD086
:102A400094F8B1307D2B06D199F8003013F0040BC7
:102A500064D009F02BFE99F8003013F004020ED177
:102A600094F8B130572B5FD14FF47A73A4F8B83093
:102A7000844B1B6813F0080301D1834A1380009B29
:102A80001B68580725D594F8BA309BB199F80030E7
:102A900059070FD57D4BB3F90620BAF846319A4253
:102AA00008DD2B6813F0010301BF794A84F8BA30BE
:102AB000322111802B68DA0340F1A080754B1A781F
:102AC0002AB9754A127812B9714A3221118001224D
:102AD0001A70366800232B6006F17F0706F1CF08D5
:102AE0004FF0010BB84500F098803A787B789A4215
:102AF0000CDA394617F8010C02F0CCFC30B117F8AB
:102B0000023C2A680BFA03F313432B600437E9E70E
:102B10000B2002F0EDFC84F8B2B08EE70B2002F03F
:102B2000E7FC84F8B2B096E700990968490740F1DC
:102B300067845A2B40F06484574B197821B11A707E
:102B4000564B01221A709AE794F8BA3083F00103C9
:102B500084F8BA301BB10C2002F0CAFC8FE70D20BC
:102B6000FAE75B2B00F051845E2B40F05C8403207D
:102B700000F04CBCB8F1000F02D07E2B00F0608456
:102B800094F8B130972B04D1454B4FF4C8721A809A
:102B900075E7A72B05D1434A137843F0040313705C
:102BA0006DE70022BB2B099217D10223ADF8263026
:102BB0003368BDF82410B3F85C200A44A3F85C2005
:102BC000BDF82610B3F85E200A44A3F85E2009F091
:102BD000A3F9002384F8B23051E7B72B02D14FF6A6
:102BE000FE73E3E7BE2B03D10223ADF82430DFE709
:102BF000BD2B7FF444AF4FF6FE73F6E7264A1378F9
:102C0000002B3FF466AF99F8003013F004037FF413
:102C100060AF13700122214B5AE7234F06F1CD0517
:102C20004FF00C0806F215164FF0010BB5423FD0DD
:102C30006A78AB789A4221DA691C287802F02AFC7B
:102C4000E0B16979EB78194A95F804C008FB01FEF8
:102C5000013B07EB0E0003EB43031344426893422E
:102C60000CD043600023836094F8BB3007F80EC09B
:102C70000BFA01F123EA010184F8BB100635D5E710
:102C800034240020B4190020001A00200819002064
:102C900092280020B2280020B3280020B428002069
:102CA000E828002089190020402400203628010847
:102CB000C84AC94994F82830D2F800800F68C74D37
:102CC000019300260292042E00F0C0826968002958
:102CD00062D00A78002A5FD0A868381A00280BDB77
:102CE00007F5FA70A860012000FA06FE94F8BB0010
:102CF00020EA0E0084F8BB00019B002B4CD0287802
:102D00004B780430C0B2002B40F06982B44B33F9E9
:102D100010E0BAF8440100F1C80CE64528DD91F84E
:102D200002B094F8BB103141CB0735D4BBF1000F92
:102D3000CCBF02200120039202F000FC039A511E36
:102D400013293BD8DFE811F02B0042004F0061004F
:102D50007A008200E5005601BA01EB011A023A003E
:102D600061006D008200E5005601DC003C01B1010C
:102D7000C838864504DA91F802B0CBF1000BD0E7F1
:102D8000012202FA06F194F8BB2022EA010284F83B
:102D9000BB2007F5FA72AA6001360C3593E798F864
:102DA00000209344BBF1FA0FA8BF4FF0FA0B2BEAB7
:102DB000EB7B88F800B0404602F050FB94F8BB1063
:102DC0000122B2400A4384F8BB20E5E798F80120CD
:102DD0009344BBF1640FA8BF4FF0640B2BEAEB7B6D
:102DE00088F801B0E7E798F803209344BBF1640F3B
:102DF000A8BF4FF0640B2BEAEB7B7A4A88F803B04C
:102E00001168404602F0EAFAD8E798F805105944EC
:102E10006429A8BF642121EAE1710D2A88F8051010
:102E2000CCD098F804209344BBF1640FA8BF4FF0B6
:102E3000640B2BEAEB7B88F804B0BFE798F8062018
:102E400093448BF3080B88F806B0B7E76649096826
:102E5000087802283DD107EE90BAF8EEE76AB2EEA4
:102E6000047AC6EE877A91ED0A7A77EE877AF5EEE4
:102E7000C07AF1EE10FA29D49FED5C7AF4EE477A2D
:102E8000F1EE10FAC8BFF0EE477A0F2AC1ED0A7AC8
:102E900094D007EE90BAF8EEE76AB2EE047AC6EE86
:102EA000877A91ED097A77EE877AF5EEC07AF1EEBE
:102EB00010FA2BD49FED4D7AF4EE477AF1EE10FA2A
:102EC000C8BFF0EE477AC1ED097A77E7DFED487ABF
:102ED000DBE788785844C828A8BFC82020EAE070FB
:102EE0000F2A88703FF46AAF4A789344BBF1C80F49
:102EF000A8BF4FF0C80B2BEAEB7B81F801B05DE770
:102F0000394A11680A78022AC3D0EDE7DFED387A32
:102F1000D9E735490968087802283AD107EE90BA0E
:102F20009FED327AF8EEE76AC6EE877AD1ED0D6A48
:102F300077EEA67AF5EEC07AF1EE10FA26D4F4EE2A
:102F4000477AF1EE10FAC8BFF0EE477A102AC1EDC9
:102F50000D7A3FF433AF07EE90BA9FED247AF8EE86
:102F6000E76AC6EE877AD1ED0C6A77EEA67AF5EEBF
:102F7000C07AF1EE10FA29D4F4EE477AF1EE10FAA5
:102F8000C8BFF0EE477AC1ED0C7A17E7DFED187A8B
:102F9000DCE7487B5844C828A8BFC82020EAE07076
:102FA000102A48733FF40AAF0A7B9344BBF1C80F61
:102FB000A8BF4FF0C80B2BEAEB7B81F80CB0FDE605
:102FC000094A11680A78022AC5D0EDE7DFED087AD0
:102FD000D9E700BF2024002018250020402400202D
:102FE00008190020FC180020001900200000C84229
:102FF00000000000C0490968087802283ED107EEA9
:1030000090BA9FEDBE7AF8EEE76AC6EE877A91ED48
:10301000107A77EE877AF5EEC07AF1EE10FA2AD4BC
:103020009FEDB77AF4EE477AF1EE10FAC8BFF0EEF2
:10303000477A112AC1ED107A3FF4C0AE07EE90BA7C
:103040009FEDAE7AF8EEE76AC6EE877A91ED0F7AD9
:1030500077EE877AF5EEC07AF1EE10FA2BD49FED79
:10306000A87AF4EE477AF1EE10FAC8BFF0EE477A8C
:10307000C1ED0F7AA2E6DFEDA37ADAE7087E5844C5
:10308000C828A8BFC82020EAE070112A08763FF4BB
:1030900095AECA7D9344BBF1C80FA8BF4FF0C80BD3
:1030A0002BEAEB7B81F817B088E6934A11680A781F
:1030B000022AC3D0EDE7DFED937AD9E78E4A116893
:1030C0000A78022A1FD107EE90BAF8EEE76AB2EE4C
:1030D000047AC6EE877A91ED0B7A77EE877AF5EE71
:1030E000C07AF1EE10FA0BD49FED857AF4EE477AB0
:1030F000F1EE10FAC8BFF0EE477AC1ED0B7A5DE64B
:10310000DFED807AF9E7CA789344BBF1C80FA8BF16
:103110004FF0C80B2BEAEB7B81F803B04EE6764A02
:1031200011680A78022A1DD107EE90BA9FED747AD1
:10313000F8EEE76AC6EE877AD1ED0E6A77EEA67AE8
:10314000F5EEC07AF1EE10FA09D4F4EE477AF1EE1A
:1031500010FAC8BFF0EE477AC1ED0E7A2EE6DFED29
:10316000697AF9E78A7B9344BBF1C80FA8BF4FF097
:10317000C80B2BEAEB7B81F80EB01FE65E4A1168A4
:103180000A78022A1FD107EE90BA9FED5C7AF8EE1A
:10319000E76AC6EE877A91ED117A77EE877AF5EED7
:1031A000C07AF1EE10FA0BD49FED557AF4EE477A1F
:1031B000F1EE10FAC8BFF0EE477AC1ED117AFDE5E5
:1031C000DFED507AF9E74A7E9344BBF1C80FA8BF00
:1031D0004FF0C80B2BEAEB7B81F819B0EEE5012B21
:1031E0007FF4ECAD0C2A7FF4E9AD474B897833F9D5
:1031F00010B0464B40F633008345A8BF8346BBF56D
:10320000617FB8BF4FF4617B4FF4966090FBF1F0A3
:103210001978ABF5617B9BFBF0FB5FFA8BFB5945A3
:103220003FF4CCADBBF1030FD4BF59460221197056
:1032300002FB01A2029B02F22A521A6007F0C2FAB4
:103240000BF10100C0B202F079F9B7E5304D314E13
:103250002B6813F0020F06D1009B1B68DF0506D513
:103260002D4BDB781BB13368980700F1ED8001200E
:1032700008F08CFD012704E003F0C8FE012008F0EF
:1032800095FD2A68510732D58FB3012008F07EFDE5
:10329000224B1B889A0704D403F0B8FE022008F0E2
:1032A00085FD99F800305B0708D41C4B1B8803F0A0
:1032B00044031BB11A4B1A881A4B1A80336813F057
:1032C0000A0F40F0C9802B681A054FF480705AD558
:1032D00008F06CFD9AF80530082B02D00E2B40F058
:1032E000C38040200BB0BDE8F04F08F04FBD022076
:1032F00008F04CFDD5E700BF0019002000007A441B
:103300000000C842000000000819002038240020F6
:10331000FC1E0020B419002078240020C0280020C2
:10332000001A0020CA280020514B1B885F0706D4D2
:10333000042008F03BFD4F4B1A884F4B1A802B6836
:103340009E061CD54A4B1B88580602D4402008F024
:103350002DFD2B68590641BF464A1188474A118006
:1033600013F0080308D094F8BC30002BABD1414BCC
:103370001A88424B1A80012384F8BC30A3E740200E
:1033800008F004FDE5E708F001FDA3E752F8253059
:10339000009883423FF637A9E8B2079208F056FA40
:1033A000032D079A3FF731A994F82A100123AB4067
:1033B00021EA030384F82A30FFF727B90123AB7011
:1033C000FFF7ADB842F21071E961032185F82010D2
:1033D000FFF7BEB82A4B1B78002B7FF4BEAA002E45
:1033E0007FF4D7AA102002F083F80123FFF7D9BA9F
:1033F00011B9002E7FF40FAB09F058F9FFF70BBBA2
:103400005D2B7FF4AEAB012000E00220C7B27B1E33
:103410008AF8283508F0E8FC07F01EFA384602F072
:103420008DF8FFF72CBB562B01D108F075FD3B78CA
:10343000002B3FF4A5AB94F8B1306F2B7FF49AAB1F
:1034400009F0E8F8FFF71BBB094B1B8813F00107D5
:103450003FF412AF002714E72B68DB063FF564AF9B
:10346000042008F093FC6AE70BB0BDE8F08F00BFC2
:10347000C0280020001A0020CA28002008030020CD
:103480000C010020104A40F2E933118989070AD55E
:103490000E4A0D49107040F2E9330889C0070DD576
:1034A0001078C0B27047013B9BB2002BEDD1084AA7
:1034B000138801339BB21380FF207047013B9BB2FE
:1034C000002BEAD1F3E700BF003800400C38004081
:1034D00080130020B0F5FA6FA8BF4FF4FA60B0F582
:1034E0007A7FB8BF4FF47A70044BA0F2DC5000B280
:1034F00001225880D8601A77704700BF80130020DF
:10350000084B4FF47A72594301F5FA714FF4FA639C
:10351000B1FBF3F3B1FBF2F102FB0030B0FBF1F0D1
:10352000704700BF002F3A000C4B10B5DB680278E3
:103530000B48DB43C3F302230121C3F1040301FA67
:1035400003F384181B01DBB284F80033530902F043
:103550001F0201FA02F240F8232010BD00ED00E046
:1035600000E100E0F0B54FF0FF33CF08136001F049
:1035700007014FEAC70E3D460026052D00D806B1CB
:10358000F0BD445DAF4203BF0C41E4B20B4633468D
:1035900014F0010F06D073441360012601350EF1BB
:1035A000080EEAE70133082B4FEA5404F0D1F5E79F
:1035B0002DE9F04F87B00DF11808109D48F80C5D0B
:1035C000294F1C4681468A46934600260123119ABC
:1035D000964221D10026129B1D60CEB92146484655
:1035E00001F02FFD064698B904AD2B460622B02106
:1035F00099F85C0106F05EFD002808BF6FF0130625
:103600000023E15CEA5C91422AD10133062BF8D118
:10361000304607B0BDE8F08F424629465846019330
:10362000FFF7A0FF039A531C17D002F1B4018909D8
:1036300057F82110003118BF012151450DD1D10893
:10364000019B02F0070005299FBF03FA00F5605CAB
:1036500028436054551C0136B9E76FF03106BAE7CC
:103660006FF03106D4E700BF74280108F8B50D4C9F
:1036700020250746258532200E4601F097FF47F0AA
:103680008000FFF7FFFE322001F090FF3046FFF789
:10369000F9FE322001F08AFFA561C82001F086FF03
:1036A0000120F8BD000400481F4B202210B51A85E8
:1036B0000446322001F07AFF04F07F00FFF7E2FEBB
:1036C000322001F073FF194A4FF6FF7193894FF4CE
:1036D0007A73148914F002040CD0154A1348FF21A0
:1036E00011704FF6FF71048914F0010416D014789C
:1036F000E4B208E0013B9BB28B42EAD10D4A138849
:1037000001339BB21380322001F050FF064B202280
:103710009A61C82001F04AFF204610BD013B9BB2D0
:103720008B42E0D1EAE700BF0004004800380040C7
:103730000C3800408013002007B51B4B03F1240216
:103740001A6293F866212AB3012A0AD1032183F869
:103750007815072183F87A2583F879150C2283F8E8
:103760002420124B124A1A60402001F031FE70B141
:103770000122002390F9000040218DE80C004FF455
:10378000E1330C4A01F0C6FD003018BF012003B040
:103790005DF804FB022183F87815032183F87A256C
:1037A00083F879150722DAE780130020080100204A
:1037B0000DB200088DB300080D4B03F1F802C3F8F9
:1037C0007C25C3F8801500F15003984207D0027899
:1037D0001AB98178C278914207DB0430F5E70023FB
:1037E000044A83F00103137170470123F8E700BF17
:1037F000801300200801002070B522220021124809
:10380000124E0EF067FE0022114B052101241046D6
:10381000042A03F108030CD0955D03F8085C03F853
:10382000041C03F8034C03F8010C03F8021C0132DA
:10383000EEE7084B0122A3F8C2210222A3F8CA2115
:10384000522283F8BE2170BD3E1500208428010855
:10385000401500208013002010B508F0F3F84FF455
:103860003024012806D10CB9052010BD08F0EAF873
:10387000013CF6E7002C08BF052010BD0021012007
:1038800000F03ABA0B4AD2F8843513F4805FB2F9EB
:103890008E350AD0B2F86C21111A8B4208DD104423
:1038A0008342B4BF002001207047B2F86E01F7E7F1
:1038B0000120704780130020164B1946002241F862
:1038C0000C2F4A608A6019461A6041F8182F5A6016
:1038D0009A604A608A601946303393ED000A41F8D5
:1038E000242FB4EE400AF1EE10FA4A608A6006D640
:1038F00093ED021AB4EE411AF1EE10FA07D79FEDDC
:10390000061AF0EE410AB0EE410A04F029BCD3EDEC
:10391000010AFAE730190020000000002DE9F0410B
:10392000624CD4F8EC35D4F8F0259A1A002AC0F28B
:10393000848003F5C332A032C4F8F43504F5BF60C7
:10394000D4F80436C4F8F025984704F5BF6194F81C
:103950000826084605F0CEFA94F8092612F0040F5E
:1039600004F5BF601CD0D4F8F035C4F80C36002341
:1039700084F8103604F594759E4604F2126704F537
:10398000C36630F9131027F8131026F8131001330B
:10399000032B25F802EFF4D122F0040284F8092663
:1039A000D4F80C26DAB1D4F8F03541499B1A414AD3
:1039B000934201F106064FF0000340D830F913207E
:1039C00031F913705D009742775FC8BF21F813206B
:1039D000974203F10103B8BF7253032BEED194F861
:1039E000243653B3B4F8FA05B4F82C21B4F8FC35F6
:1039F000B4F82A11801AB4F8322112FB00F210B286
:103A0000B4F82E219A1AB4F8343113FB02F3B4F847
:103A1000F825511AB4F8302112FB01F21BB20A2129
:103A200012B293FBF1F392FBF1F2A4F8FC35A4F887
:103A3000F82590FBF1F2A4F8FA25BDE8F08101F138
:103A40000C07C4F80C36A1F2EA4C4FF002083846D5
:103A500031F913E036F913200EEB0205A2EB0E024A
:103A600002EB820227F8132095FBF8F50133032BB4
:103A70002CF8025FECD1B4F92026B4F91E360E4EB4
:103A80001344B4F922260A21134459430022B518DD
:103A9000835E0232062A03EB430391FBF3F3A5F89E
:103AA0000831F4D108F038FA99E700BF80130020FC
:103AB000921900207FC3C901A813002013B5144632
:103AC00001AB042290F85C0106F0F4FA019B002897
:103AD0001BBA0CBF6FF013000020236002B010BDB2
:103AE00013B5144601AB022290F85C0106F0E2FA2D
:103AF0009DF804209DF80530002843EA02230CBFFE
:103B00006FF013000020238002B010BD73B590F851
:103B1000DA30013B022B054621D80DF106020E21B9
:103B2000FFF7DEFF0F4CBDF8066004EA4646A0B979
:103B30000DF106020C212846FFF7D2FFB6F57F0FE4
:103B4000BDF8063004D804EA4344B4F57F0F04D925
:103B500018B90549284605F078FA02B070BD002072
:103B6000FBE700BF0000FE1F0D01002008B5134653
:103B700090F85C01012206F09DFA00280CBF6FF05E
:103B80001300002008BDF7B590F85C6115461C468F
:103B900001220DF1070330460F4606F08BFA68B19B
:103BA0009DF807202A402243394630468DF80720E9
:103BB00006F07CFB10B1002003B0F0BD6FF01300E5
:103BC000FAE707B502AB8DF80520120A03F8042DB9
:103BD00090F85C01022206F0F2FA00280CBF6FF0A8
:103BE0001300002003B05DF804FB08B590F85C01F9
:103BF00006F05CFB00280CBF6FF01300002008BD2E
:103C00002DE9F3474FF0000A88461646FF210122AE
:103C1000054699469DF828708DF807A0FFF7E5FF47
:103C20005246044651462846FFF7DFFF52460443FA
:103C3000FF212846FFF7D9FF64B2044364B2B9F10B
:103C4000000F06D04246CB212846FFF78FFF0443E2
:103C500064B23FB10DF10702EE212846FFF786FF5F
:103C6000044364B20122FF212846FFF7BEFF012270
:103C7000044300212846FFF7B8FF64B20443002242
:103C8000FF212846FFF7B1FF64B29DF807302043BB
:103C900023F0100340B2337002B0BDE8F08773B573
:103CA0000646002501220B213046FFF79EFF002229
:103CB00004460B213046FFF798FF0DF1070204433D
:103CC00013213046FFF752FF9DF8073064B22043BE
:103CD00001355B0740B2EDB205D0032D08D00028B6
:103CE000E0D002B070BD032D08BF6FF00B00F8E705
:103CF0006FF00B00F5E700BF38B5044624200D46F1
:103D000001F0E4FA4D2001F0E1FA002C094C14BF57
:103D100021203E2001F0DAFA2368002228469A7119
:103D200001F0D4FA236893F84900BDE8384001F067
:103D3000CDBA00BFC428002001460020DCE710B542
:103D400001F0BAFA044601F0B7FA04EB004010BDE6
:103D50002DE9F84F4B282DED048B00F0118500F272
:103D6000F080322800F050856BD8222800F0408483
:103D70002BD8032800F0CE8207D8012800F0AD82AE
:103D8000022800F0B7820020C0E2042800F0C982B7
:103D90000528F8D11A20FFF7CFFFC84D0024285D71
:103DA000013401F093FA0B2CF9D1C54D0024285DA4
:103DB000013401F08BFA082CF9D1002400200134E1
:103DC00001F084FA072CF9D19FE2282800F0BF8483
:103DD00013D8242800F0B0842628D4D1B94C06206A
:103DE000FFF7AAFFB4F8E80001F082FAB4F8EA009D
:103DF00001F07EFAB4F8EC004CE22A2800F0BA8414
:103E00002C28C0D1AF4C0C20FFF796FF94F83E0150
:103E100001F05CFAB4F8480101F06AFAB4F8440120
:103E200001F066FAB4F8460101F062FA94F83F0135
:103E300001F04CFAB4F84A0101F05AFAB4F84C0116
:103E400028E23D2800F0178344D8382800F07A840F
:103E500033D8342800F0EF83362894D19A4D994C0A
:103E600095F86400C0EBC000C0B2FFF765FF04F135
:103E70002006683594F9980100230C33EA1812F9EA
:103E80000C2C824240F0D584C0B201F01FFAB4F885
:103E90009A0101F02DFA94F89C0101F017FA94F8B8
:103EA0009D0101F013FA94F89F0101F00FFA94F8C4
:103EB0009E0101F00BFA00F0BFBC3A2800F0D2825C
:103EC0003B287FF460AF0120FFF736FF7F4B1B6874
:103ED00018780CE2452800F0C18426D8402800F06C
:103EE0009A8442287FF44FAF764C1020FFF724FFCE
:103EF000607901F0EBF9A06801F003FA94F83E0153
:103F000001F0E4F9B4F8E80001F0F2F9B4F8EA00DD
:103F100001F0EEF9B4F8EC0001F0EAF9B4F82E0182
:103F200001F0E6F9B4F83001B4E1462800F08984E4
:103F300049287FF428AF0220FFF7FEFE614B9889E5
:103F4000A8E1732800F0C38300F256816C2800F0CA
:103F5000518200F2D180662800F0168200F295802E
:103F60004D2800F0318465287FF40DAF0B20FFF75A
:103F7000E3FE574B544C188801F0BAF9554B1A68B8
:103F8000554B9A420CBF554B554B188880B201F0E7
:103F9000AFF92068C0F3C003C0F380029B0043EA7E
:103FA0004203C0F340021343C0F3401243EAC2038A
:103FB00000F01000184301F09BF94A4B26791A884B
:103FC000494B1968494B1B7802F00100C3F3800389
:103FD00043EA4003C2F3400043EA800302F00800D2
:103FE0000343C2F3800043EA0013C2F3801043EAA4
:103FF000401301F04000034301F08000034301F44B
:1040000080700343C2F3001043EA4023C2F3401020
:1040100043EA8023C2F3002043EAC02301F4805026
:10402000034301F40050034301F48040034301F4CF
:104030000040034301F48030034301F400300343A4
:1040400001F48020034301F40020034301F48010B5
:104050000343C2F3402043EA405301F00071C2F32E
:1040600080220B43002043EA826305340246012587
:10407000B24280F06681115D05FA01F119421CBF60
:1040800005FA02F108430132F2E7682800F0A68140
:1040900069287FF478AE164D164E2878400000F05F
:1040A000FE00FFF749FE00242B789C4280F02D8112
:1040B00036F8140001F01CF90134F5E76E2B010805
:1040C0007A2B0108A8130020B41900203424002002
:1040D000BE2800200C24002000540040F0230020C3
:1040E000F2230020C0280020FC1E0020C828002049
:1040F000A4130020081900206F2800F0C78130D8D1
:104100006D2800F086816E287FF43DAE0720FFF712
:1041100013FEC54BC54C1888FF28A8BFFF20C0B2AE
:1041200001F0D4F8A06D4FF6FF75A842A8BF28464D
:1041300020EAE07080B201F0DBF8B4F85C0001F036
:10414000D7F8BB4B93F83331002B00F09081236EEE
:104150000A205843A842A8BF284620EAE07080B24F
:1041600098E0702800F0BA8172287FF40CAEB04C51
:104170001620FFF7E1FDB4F8440101F0B9F8B4F8F6
:10418000D00001F0B5F8B4F8D20001F0B1F8B4F8FD
:10419000D40001F0ADF8B4F8860101F0A9F80020D0
:1041A00001F094F8002001F091F8002001F08EF861
:1041B00094F8330101F08AF894F8400101F086F890
:1041C000002001F083F89B4B1B68B3F95A000A23C7
:1041D00090FBF3F080B201F08BF894F8280101F025
:1041E00075F894F82C0101F071F894F82B0101F0A6
:1041F0006DF894F82D017AE0A02800F08D8222D885
:10420000772800F049820FD8742846D075287FF4AB
:10421000BAAD2F20FFF790FD874C14F8010F00284E
:1042200073D001F053F8F8E77B2800F026837C2850
:104230007FF4A9AD0320FFF77FFD804B187801F0D4
:1042400057F87F4B44E6F02800F059820AD8DD2861
:1042500000F01083DE287FF496ADFFF770FDFFF7C6
:104260006EFD52E0FE2800F03D82FF287FF48BAD0A
:10427000744A6E4C1188002323840122114266D1B6
:1042800001339BB25200092B92B2F7D10220FFF703
:1042900053FD208C01F02CF837E0644F00264FF0DE
:1042A000010ADFF8BC914FF0000B3B795B4540F30E
:1042B000E981654B0C251BF80340002305FB03F245
:1042C00002EB090012F80920A24200F0DC8201335F
:1042D0001C2BF3D10BF1010BE7E70320FFF72CFDBB
:1042E000002000F0F3FF022000F0F0FF002000F0BB
:1042F000EDFF0AE00520FFF71FFD544D0024285D67
:10430000013400F0E3FF052CF9D10120BDEC048B52
:10431000BDE8F88FFFF710FD022000F0D7FF002066
:10432000E2E70B20FFF708FD072000F0E1FF484D12
:104330000024285D013400F0C9FF072CF9D10020CA
:10434000A8E700F0DEFF3A4B93F82805CFE7013BE2
:10435000072B05D8DFE803F007090B0E101214161F
:104360000123238492E70223FBE74023F9E74FF47C
:104370008073F6E78023F4E72023F2E71023F0E7C9
:104380000823EEE70423ECE71220FFF7D5FC314BBE
:10439000264C1B88B3F5806FD4BF01260826002564
:1043A00004F1220737F9150090FBF6F0013580B2D1
:1043B00000F09EFF032DF5D1208D00F099FF608D58
:1043C00000F096FFA08D244C00F092FF208800F0B2
:1043D0008FFF608800F08CFFA0885BE71020FFF75C
:1043E000ABFC1E4D0024285D013400F06FFF102C43
:1043F000F9D18AE70D4C0620FFF79EFCB4F8460081
:1044000000F076FFB4F8480000F072FFB4F84C00FA
:1044100040E7064C0620FFF78FFC206D00F071FF8F
:10442000B4F8540036E700BF90280020B4190020EB
:10443000A81300203424002087280108E728002042
:1044400046030020BE280020B9190020602B010877
:10445000662B01084403002078190020E21900208F
:10446000102A01080420FFF767FC002061E1206E9C
:1044700000F30F0073E6CA4C0220FFF75DFC94F8CE
:104480008E0100F023FF94F88D0130E7C54C0B201E
:10449000FFF752FC2368187800F018FF236858785B
:1044A00000F014FF002523682B440135187900F033
:1044B0000DFF032DF7D12368D87900F007FF23689B
:1044C000987800F003FF2368D87800F0FFFE236897
:1044D000588900F00DFF2368187A08E7B24C2120B4
:1044E000FFF72AFC23681B78022B4FF000056CD1E4
:1044F0009FEDAE9ADFEDAE8AB2EE048A236803EB3D
:10450000850393ED090A20EE080A0CF0CDFA80F33A
:104510000800C0B200F0DAFE236803EB850393EDD8
:104520000C0A20EE090A0CF0BFFA80F30800C0B2B2
:1045300000F0CCFE236803EB850393ED0F0A20EE19
:10454000280A0CF0B1FA80F30800C0B2013500F07F
:10455000BDFE032DD2D1072D236829D193ED120A78
:1045600020EE080A0CF0A0FA80F30800C0B200F0B8
:10457000ADFE236893ED130A20EE080A0CF094FABE
:1045800080F30800C0B200F0A1FE236893F8503019
:1045900000EE103AB8EE400A0CF086FAFF28A8BFE9
:1045A000FF20C0B2013500F091FE0B2DD3D1ACE657
:1045B0002B44587800F08AFE23682B44187B00F0C7
:1045C00085FE23682B44D87DECE723682B4458787C
:1045D00000F07CFE23682B44187B00F077FE2368F4
:1045E0002B440135D87D00F071FE0B2DEDD18CE60A
:1045F0005020FFF7A1FBDFF8B0816E4E00250C279D
:10460000D8F8004004EB8504013594F87D3007FBB1
:104610000363187A00F05AFE94F87E0000F056FE0C
:1046200094F87F0000F052FE94F8800000F04EFEF7
:10463000142DE5D169E64820FFF77EFB5A4F00258F
:1046400006263C6806FB0544013594F8D20000F0CC
:104650003DFE94F8CD0000F039FE94F8CE0000F055
:1046600035FE94F8CF0000F031FE94F8D00000F051
:104670002DFE94F8D10000F029FE0C2DE1D144E686
:10468000464427E6BAF1000F3FF43FAEF0B2FFF721
:1046900053FB4FF0000A04E6474C464D2079FFF7E4
:1046A0004BFB0026671D4FF00C0823799E42BFF498
:1046B0002CAEF05D002308FB03F25119525D8242DB
:1046C00000F0F48001331C2BF5D10136EDE7082012
:1046D000FFF732FB0124E0B2013400F0F7FD092CB2
:1046E000F9D112E60820FFF727FB002000F000FEBA
:1046F000002000F0FDFD002000F0FAFD1FE62A4C2E
:104700000420FFF719FB2368B3F85E0000F0F0FD0A
:104710002368B3F85C00BDE50C20FFF70DFB274BC9
:10472000186800F0EEFD264B186800F0EAFD254BF6
:10473000186800F0E6FDE8E50420FFF7FDFA184BE5
:104740009868F6E70420FFF7F7FA154C45E5144C96
:104750000720FFF7F1FAB4F82E0100F0C9FDB4F814
:10476000300100F0C5FD94F8320100F0AFFDB4F85F
:1047700034018FE50120FFF7DFFA094B5879B6E5E0
:10478000074C0420FFF7D8FA94F8840100F09EFD4E
:1047900094F8850100F09AFDB4F886017AE500BF2F
:1047A000A813002020240020342400200000C84248
:1047B00000007A44102A0108B4190020ACF7FF1F4A
:1047C000B0F7FF1FB4F7FF1F3A4D3B4C287800EBC2
:1047D0004000C0B2FFF7B0FA00262B789E4204F1E9
:1047E0000204BFF492AD14F8020C00F06FFD14F84F
:1047F000010C00EB800000EB800000F2EE2080B2A4
:1048000000F076FD0136E8E70120FFF795FA2B4B23
:1048100093F840016BE50820FFF78EFA274D00243E
:104820006319013493F8360100F050FD082CF7D1DC
:104830006BE5302B7FF421AB0834A6427FF41AAB32
:1048400063E50D20FFF778FA002000F03FFD00201F
:1048500000F057FD002000F054FD06E61320FFF79E
:104860006BFA174D0024285D013400F02FFD0B2C4E
:10487000F9D1EFE700F020FD47E50220FFF75CFAF1
:10488000104B188806E54568284608F059F8804618
:10489000BAF1000F7FF4F4AE2C46631B98457FF706
:1048A00019AD14F8010B00F011FDF6E7087A00F0DD
:1048B0000DFD0AE7A4130020F6140020A813002021
:1048C0006E2B01084803002037B50446154605291C
:1048D0002CD8DFE801F0030717191B1B436B2B6073
:1048E000002021E00DF106024421FFF7F9F8D8B9C4
:1048F000BDF8062053029AB12B60A363012384F80C
:10490000293011E0C36BEAE7036CE8E70DF106021A
:104910006421FFF7E5F838B9BDF806305B02DEE741
:10492000A36B2B6084F8290003B030BD6FF0030047
:10493000FAE72DE9F04F9DB004460D4612AB0C226C
:10494000142190F85C0105F0B5FB002800F0B3825B
:104950009DF852609DF853309DF84800002203EB0B
:104960000623AA752A606A609EB29DF84E209DF8C3
:104970004F3003EB02239BB25B02EB6003939DF885
:1049800051209DF8503002EB032292B252022A616C
:104990009DF84B309DF84A2003EB02239BB2049311
:1049A000BDF81030AB82B4F8523194F83111B3F540
:1049B0007A7F0CD07343267F4FF47A7203F5FA7333
:1049C00093FBF2F3226A002E40F092809EB20029FF
:1049D00000F09880B3082B81B301EB750023ADF88C
:1049E0003E30C308059303F00F030193019A4FF281
:1049F000A103D34003F001030C9394F828300293F1
:104A0000002B00F0A181267FEF6826B1AB8A266AD1
:104A10005E438036360ABB194FF47A7994F8E02069
:104A2000099309FB03FBD4F8DC30089211461846C1
:104A30000693FEF765FDD4F8E43094F8E810079388
:104A400082461846FEF75CFD089A099B0BF5004B61
:104A5000082A03F180034FEA1B480A930CBF022285
:104A60000322BA4BB8F1000F59D1C4F84031404687
:104A70009946688110AA00212046FFF725FF109F64
:104A80001FB14F452CBF00270127002840F00082AE
:104A900094F82A80B8F1000F00F0648111AA022175
:104AA0002046FFF711FF88B90122FF212046FFF7BA
:104AB0009CF858B90DF13E02B6212046FFF710F8D8
:104AC00020B90246FF212046FFF78FF8BDF83E606F
:104AD0007302119EC4F848311EB1B34294BF002640
:104AE0000126002800F03F814FF00009CA4658E136
:104AF000049E92B27243039E1212964205D159B996
:104B000048F6E0262E81002367E7039E9BB273439D
:104B1000B21AB3FBF2F359E742F2B8265AE78244DD
:104B20004FEACA2A02FB0AF240F2776102F5FA72F2
:104B3000B2FBF9F24A430D9302F5FA730893B3FB03
:104B4000F9F309930A9B2A698148DFF814A2190A2C
:104B5000099B59438031090A09FB02F208BF012170
:104B600002EA0A02B2FBF8F8804528BF80464FF4FB
:104B700016720C2002FB08F348430B9304F081FCEF
:104B800009FB06F1B1F5481F0BEA0A0B28BF4FF4E9
:104B900048112A7E0D9BABEB41014FEA400801F51D
:104BA000FA710BF5FA7BB1FBF9F12889BBFBF9F936
:104BB0000902B1FBF9F1002A40F0C380654A0902FD
:104BC000C1F58031424341F25C20B2FBF0F24A432E
:104BD00002F50042120C02F5803252085243920B49
:104BE0004FF4487B0BFB02FB0D930B9B0BF5004B2B
:104BF00003F5004A4FEA1B4B0BFB0BFB4FEA1A4A2B
:104C00000AFB0AB004F03DFC0004642240F6B53112
:104C10003230B0FBF2F041F28832B0FBF8F8069B7C
:104C200001FB082807990B444FF47A7942F210727D
:104C30004FF4FA61B8FBF2F803F5FA72B8F5704F69
:104C4000B2FBF9F0B2FBF1F101F5C811B1FBF0F0E4
:104C500028BF4FF4704804F014FC000200F5FA700D
:104C6000B0FBF9F0404308FB080004F00AFC0D9B80
:104C7000B4F8546109FB00F9994528BF9946D4F866
:104C80005831C4F8409103FB06F808F180084FEA58
:104C9000182808FB06F86FB12F4B0A9A03EA822303
:104CA00003EB5703B3FBF7F707EB47077F4307F522
:104CB00000473F0C06220AF1030ABAFBF2FACAEBDC
:104CC000CA0ABAF5803F37BF0B9B244B0333B3FBB3
:104CD000F2F33FBFC3EBC30303F500431B0C5B437D
:104CE0004FF4FA6A089AB2FBFAF208F120009344F2
:104CF0005B44099AB3FBF2F380099B03FE227F33E6
:104D0000B3FBF2F307FB03F604F0BBFB4FF47A7B33
:104D100006F5FA76B6FBFBF6360106F5FA76074697
:104D2000B6FBFBFBBBF1000F04D0B6FBFAF6B044B8
:104D3000B8FBFBFB584604F0A4FBB84228BF38463A
:104D400097E64FF480324BE7029FA1E6AE878F02D1
:104D5000666666009A9906000000FCFF0000F0FFFE
:104D60000000FFFF464694F82B90B9F1000F71D078
:104D7000049B002B69D0039B4FEA032A049BBAFBD8
:104D8000F3FA15AA03212046FFF79EFD159B002B81
:104D90005ED0534594BF4FF0000A4FF0010A00283F
:104DA00059D04FF0000EA5F80AE0029B002B7ED0F0
:104DB00007F00107019A94F8293084F82E70042A2C
:104DC00077D0B3FA83F35B09B8F1000F08BF01266F
:104DD000B9F1000F08BF4FF0010A06F001060AF012
:104DE000010A84F8306084F82F3084F831A004F18F
:104DF000500685F818E00FCE15AF0FC796E80700EC
:104E0000EB7DB5F80890B5F80A80B5F814C087E8CE
:104E10000700E9682A696868169015AD189119921B
:104E20008DF86B30ADF85C90ADF85E80ADF868C081
:104E30008DF86CE00FCD50340FC497E8070086E87A
:104E4000070000201DB0BDE8F08FDDF810A098E746
:104E50009A46A4E7CA460C9B03BB019B013B022B6D
:104E60001FD9019B062B29D0092B27D0059B03F0C6
:104E70000D03082B18D0012E16D0019B042B36D021
:104E8000BAF1010F26D0012F27D0BA463E4688E757
:104E90004FF00008C146C246464682E74FF0FF0E7B
:104EA00083E74FF0050E80E74FF0030E7DE7012703
:104EB00080E7012388E76FF01300C3E74FF0040E8B
:104EC000029B002B7FF474AF012294F8293084F800
:104ED0002E2076E74FF0020EF2E75646BE46EFE789
:104EE000012384F82E30029E4FF0020E6CE7029BE5
:104EF000002BF5D04FF0020E5AE773B5012204469D
:104F00008021057CFEF771FE0122FF212046FEF77D
:104F10006CFE002211462046FEF767FE94F83A2107
:104F200091212046FEF761FE012200212046FEF776
:104F30005CFE0022FF212046FEF757FE0022802162
:104F40002046FEF752FE012D2AD004D3032D36D081
:104F50006FF0070016E0012200212046FEF745FE13
:104F600001238DF8073068B9054644F620669DF8A0
:104F70000730DB0705F101050DD560B9B54203D156
:104F80006FF0060002B070BD01460DF10702204629
:104F9000FEF7ECFDEBE7B54208BF6FF00600F1E766
:104FA00010B92046FEF7B2FD022200212046FEF78E
:104FB0001CFE0028E6D1042384F83231E2E710B960
:104FC0002046FEF7A3FD0422EFE770B5C02288B0AB
:104FD0000E460121044690F83051FEF706FE70BBE4
:104FE00020742046FFF789FF48BB204604F05EFA94
:104FF00028BB032384F8323101A92046FFF799FC2E
:10500000E8B92046FEF74BFEC8B90122FF21204631
:10501000FEF7EBFD98B93246B6212046FEF760FD5B
:1050200068B90246FF212046FEF7DFFD38B92A465F
:1050300001212046FEF7D9FD08B984F8305108B0A7
:1050400070BD08B506220B4690F85C01B02105F052
:10505000B6F800280CBF6FF01300002008BD13B590
:1050600002AA00230C4602F8013D0121FEF77EFD55
:1050700078B99DF80730C3F300122270C3F3C00261
:10508000A270C3F380026270C3F38012DB09E27086
:10509000237102B010BD2DE9F04786B0037C0B7080
:1050A0000C4603AAF8210546FEF71AFD064628BB62
:1050B00004AA04212846FEF701FD0646F0B9BDF812
:1050C0000C201AB1049BB3FBF2F3A360A368AB619D
:1050D0000023237304AA20212846FEF701FD06467B
:1050E00060B9BDF810306BB92A6A22612B7704AA27
:1050F00028212846FEF7F4FC064640B1304606B0AB
:10510000BDE8F087DB0023612B620123EEE7BDF8E9
:105110001030C3F30B03B3F5006F4FF0FA0226BF54
:10512000A3F5805313FB02F35343636104F1240896
:1051300005F1280A04F1180900274246B9B22846A9
:10514000FFF7C2FB06460028D8D101371AF8013B09
:1051500009F8013B062F08F10408EED104AA012149
:105160002846FEF703FD06460028C7D19DF81030FB
:1051700085F830311B064ABF012384F83C0084F8CF
:105180003C3094F83C3085F84C304FF4FA6302938D
:105190000023039340F63633636004A92846FFF7E3
:1051A0005EFF06460028A9D19DF810302BB99DF866
:1051B000113013B99DF81230CBB102AA0221284652
:1051C00004F03AF800283ED19DF810302BB1029B34
:1051D00003F24E226368134463609DF81230DBB122
:1051E000029B03F2B222636803EB420363609DF803
:1051F00013305BB103AA0321284604F01DF8039B7A
:1052000003F52572636813446360E0B99DF81430B8
:1052100063B963686B6171E79DF81130002BE6D0CC
:10522000029B03F5257263681344DFE701AA04219A
:10523000284604F001F8019B03F226226368134418
:1052400063600028E5D0064658E738B50D4C94F960
:10525000003005461BB90430FFF74FFE207094F96B
:1052600000305BB90849281DFFF763FB237F2070DE
:1052700023B9A3892B80B5F9000038BD4FF69C7384
:10528000F8E700BF4C1A0020501A0020044A536867
:1052900023B192F90020824200D11847704700BF25
:1052A0006C1A0020034B1B68DA79511CD971134426
:1052B000187A7047C428002010B5FFF7F3FF84B2B6
:1052C000FFF7F0FF04EB002080B210BD064B10B5D5
:1052D00001460446986806F06FFC044B1B689A79F7
:1052E00054409C7110BD00BF6C1A0020C4280020DF
:1052F00010B50446C0B2FFF7E9FF200ABDE8104030
:10530000E4E710B5044680B2FFF7F2FF200CBDE8D9
:105310001040EDE72DE9F34188469DF824E0184E52
:1053200011461A469DF8203005460C24002004281A
:1053300007460AD0013004FB006C1CF90CCCAC45CC
:10534000F5D104FB0764208908B1002002E025B1F3
:10535000012D11D002B0BDE8F0810A48CDF800E07F
:1053600004F01CFC0028F5D00C2303FB0766057134
:10537000A6F808807060EDE7CDF800E00248EFE79E
:105380001C1A0020003801400044004070B50E494E
:105390000E4A0B7B12680025032B05DD05B10B734C
:1053A000002070BD2346F7E702EBC3065C1CB688FD
:1053B0003042E4B24FF00105F4D00C730820022112
:1053C00010FB0310104470BD6C1A0020EC28002064
:1053D000014B00221A73D9E76C1A00202DE9F04125
:1053E0001D4D00240A274FF47A7682781FFA82FE38
:1053F000A4EB0E031BB2002B2ADDC2F16402D2B271
:1054000090F8038003FB03FC08FB0CFCC8F1640864
:105410000EEB8E0E12FB02F29CFBF2F2424453435F
:1054200093FBF7F303EB4E031BB26B800A88B1F8D2
:1054300002E00A34AEEB020EA4B203FB0EF3782CAA
:1054400093FBF6F3134425F8023FCED1BDE8F0817B
:1054500008BF0122D4E700BF781A002030B50C4CF9
:10546000002340F6C415072B10D003FB03F2A2F172
:10547000190142784A4302F6C41201785A434A435A
:1054800092FBF5F224F813200133ECE730BD00BFA6
:10549000921A00200430104B10B533F910200C780C
:1054A00040F633039A42A8BF1A46B2F5617F4FF027
:1054B000190340F28330B8BF4FF4617213FB040448
:1054C000944207DA497813FB01009042B4BF0020F0
:1054D000012010BD002010BD08190020034B002240
:1054E00083F834209A639A871A6470476C1A0020F4
:1054F00070B408B970BCF1E70E4A00230C251146C0
:1055000005FB03F4A65C864209D10B4B186C50B125
:10551000224455784278954205DB70BC70470133D0
:10552000102BEDD1F9E70022214419649A879A6380
:10553000F3E700BFB82801086C1A002040000C4AAD
:10554000142870B4A8BF1420002302F144010226DD
:1055500014255E540233CC18984204F8015CF8DC40
:105560001344FF2283F844200F2070BCC0E700BF23
:105570006C1A002010B50A490A480A68846800BFFE
:105580000B689A42F9D1084BD96D4FF47A7000FB41
:1055900001F31B1BB3FBF1F300FB023010BD00BF96
:1055A0001825002010E000E06C1A002038B50446F1
:1055B000FFF7E0FF0546FFF7DDFF401BA042FAD3EF
:1055C00038BD10B5044604B910BD4FF47A70FFF72A
:1055D000EDFF013CF7E72DE987482D4C06460B27E8
:1055E000013FFCD04FF01E0B05254FF0020806F0DE
:1055F000400906F0200A00E00025B9F1000F04D0B0
:10560000A38A9BB283F48043A382BAF1000F04D033
:10561000A38A9BB283F40043A38216F002021FBF49
:10562000A38A9BB283F40053A38258460192FFF7EA
:10563000C8FF019AB9F1000F04D0A38A9BB283F48A
:105640008043A382BAF1000F04D0A38A9BB283F4F3
:105650000043A38222B1A38A9BB283F40053A382A6
:105660005846FFF7AEFF7DB1013DC6D14FF4FA7049
:10567000FFF7A7FF4FF0960BB8F1000FBCD14FF426
:105680007A70FFF79EFFABE708F1FF38F4E700BF41
:1056900000080048024A136801331360704700BFD6
:1056A000182500200920F1E52820EFE506EE901AE4
:1056B000B8EEE66ADFED106A104B9FED117AB3F891
:1056C000603026EE266AF7EE005AC5EE866A07EECF
:1056D000903AF8EE677A67EE877A90ED007A76EE88
:1056E000A76A30EE470A87EEA66AA6EE007AB0EE09
:1056F000470A80ED007A7047DB0FC9406C1A002022
:10570000BD3786352DE9F74F244D254E254F002412
:1057100095F86280E0B240450ADA56F820302BB1A5
:105720000B2803DCDB6837F8101098470134EFE7EB
:105730001D4B1B685B032DD50025194FDFF86CB09E
:1057400029464FF0500A4FF028092A46EEB2B045DC
:1057500020DD57F826305C688C4214D02046019238
:1057600004F0CAF9EFF312838AF31288616A09FB25
:1057700000B001314162616941F001016161DBB258
:1057800083F31188019A57F826301B6801351A6097
:105790002146DBE703B0BDE8F08F00BF6C1A0020A4
:1057A000881B0020E2190020041900202825002071
:1057B0002DE9F04FF34BF44CD3F80090D4F868A0E7
:1057C000F24DDFF80C84F24FF24E2DED0A8BD145ED
:1057D00083B0B0EE40BADFEDF08ADFEDF09A9FEDD6
:1057E000F09A9FEDF0AA00F01483EF4BC4F8689094
:1057F0001A780193DFF8DCB3002A4ED1BBF90230EE
:10580000D5ED085AD5ED060A07EE903ABBF90430FB
:1058100000EE103AB8EEC07AF8EEE77A95ED070A96
:10582000BBF9003065EE876AB7EE006AE7EE806A82
:1058300020EE470AA0EEE06AA7EEA50A60EEE60AAF
:1058400006EE903AF8EEE66AB1EE400AE6EE260A77
:105850000BF078FADFEDD57AB4EEE70AF1EE10FA44
:10586000B0EE401A00F1B182DFEDD17AB4EE670AF2
:10587000F1EE10FAC8BFB0EE671ACE4AD2ED010AB7
:1058800092ED000A02F06CFC019BC8ED008A012237
:10589000C8ED018AC8ED028A1A70BBF90030D5ED57
:1058A00001AAD5ED006A07EE103ABBF9023008EE06
:1058B000103AB8EEC88AB8EEC77ABBF9043068EE81
:1058C0002AAA07EE903AE7EE26AAF8EEE77AD5ED97
:1058D000026AE7EEA6AAD5ED046AC4ED1BAA28EE7B
:1058E000268AD5ED036AA7EE268A95ED057AA7EEFE
:1058F000878A28EE08CA84ED1C8AB0EE4C0AAAEE0C
:10590000AA0A0BF09DFACAEE80BAB0EE4C0AABEED2
:10591000AB0A0BF095FADFEDA87AB0EEEB7AB4EEB5
:10592000677AF1EE10FA09DCC8EE00AAB0EEEA7A66
:10593000B4EE677AF1EE10FA40F36882DFED96AAD2
:1059400097ED010A97ED007AD7ED027AD5ED08BA06
:1059500020EE000AA7EE070AA7EEA70A0BF070FADE
:10596000D5ED097AF4EEE97AF1EE10FAB4EEC90A4F
:1059700048BFC5ED099AF1EE10FAB0EE40CA00F149
:105980002782DFED957AB4EEE70AF1EE10FA00F324
:105990002282C0EE097A6BEEAABA95ED098A94EDDF
:1059A0001E0A6BEEA77A20EE000A27EE888AD4ED55
:1059B0001D7AA7EEA70A0BF043FAF1EE007AB4EED7
:1059C000E70AF1EE10FA9DBFF1EE027A77EEC07AA7
:1059D0009FED7A0ADFED7A7A336898BF67EE807AB6
:1059E000D90768EE277A58BFB2EE007AC8ED027A7E
:1059F00058BF67EE877AA9EB0A0358BFC8ED027A51
:105A000007EE903A9FED6F7AF8EE677A67EE877A45
:105A1000B0EE007AF4EEC77AF1EE10FA05D5B4EEE6
:105A2000CACAF1EE10FA00F10982D4ED207AB4F876
:105A30008430F0EEEAAA7AEEA7AA0133C4ED20AAD8
:105A4000A4F88430604AD5ED01BAB2F90030D5ED42
:105A5000006AD5ED04AA5B4207EE903AB2F9023033
:105A60005B4208EE103AB8EEC88AB2F90430B8EEDC
:105A7000E77A68EE2BBA5B4207EE903AE6EE87BA19
:105A8000F8EEE77AD5ED026A68EE2AAAE6EEA7BA42
:105A9000D5ED036AC4ED1DBAE7EE26AAD5ED056A79
:105AA000E7EEA6AAD5ED076AC4ED1EAA28EE268A5F
:105AB000D5ED066AA7EE268A95ED087AA7EE878AC5
:105AC000D4ED227A84ED1F8A3BEE27BADFED3F7AD0
:105AD00084ED22BA6AEEA7AA6BEEA7BA6AEEAACA4A
:105AE00028EE278AB0EE6C0AABEEAB0AA8EE080AE5
:105AF0000BF0A6F98BEE80CAB0EE6C0AACEE0C0A85
:105B0000A8EE080A0BF09CF9CAEE80BA2BEEAB0A9D
