:020000040800F2
:1000000000A000200D0B0108750B0108750B0108FD
:10001000750B0108750B0108750B01080000000045
:10002000000000000000000000000000750B010847
:10003000750B010800000000750B0108A9560008A7
:10004000750B0108750B0108750B0108750B01088C
:10005000750B0108750B0108750B0108750B01087C
:10006000750B0108B9560008750B0108750B0108DE
:10007000750B0108750B0108C1A20008750B01087A
:10008000750B0108750B0108750B0108750B01084C
:10009000750B0108750B0108750B0108750B01083C
:1000A0008DB10008E1B100087DB10008AFA10008E2
:1000B000D1B10008C1B10008B1B10008750B010849
:1000C000750B0108750B0108750B0108750B01080C
:1000D000750B0108B9A20008B1A20008750B010850
:1000E000BD560008750B0108750B0108750B01085A
:1000F000ADB10008750B01089DB10008750B010832
:10010000000000000000000000000000750B010866
:10011000750B0108750B0108750B0108750B0108BB
:10012000750B0108750B0108750B0108750B0108AB
:10013000750B0108750B01080000000000000000AD
:10014000750B0108750B0108750B01080000000014
:10015000000000000000000000000000000000009F
:100160000000000000000000750B0108750B01087D
:10017000750B0108000000000000000000000000F6
:0801800000000000750B0108EE
:1001C0002DE9F04FB1B00AF061FB18B90AF0C4FC98
:1001D0000BF04AFEBF4DC04C0AF07EFB2B7843F07B
:1001E00001032B70BD4B4FF47002C3F8882000232D
:1001F000089309930A93236843F4803323602368A8
:1002000003F400330993089B01330893099B1BB93E
:10021000089BB3F5A04FF2D1236813F4003318BF45
:1002200001230993099B012B40F0798202230A9351
:10023000AB4B12221A606368636063686360636833
:1002400043F480636360636823F47C1363606368D2
:1002500043F4E8136360236843F0807323602368EA
:100260009901FCD5636823F003036360636843F07E
:1002700002036360636803F00C03082BFAD10A9B46
:10028000964F6B60974BFB60636A636ADFF89C82F2
:10029000DFF89CB2DFF89CA243F08073636263696D
:1002A00043F4FC0330AE636103238DF8723041F6F2
:1002B000FF7326F8503D4FF09040314607F020FF85
:1002C0004FF6FF7331468848ADF8703007F018FFDD
:1002D0003146404607F014FF3146844807F010FFCE
:1002E0003146834807F00CFF3146824807F008FF8B
:1002F000304608F057FC1C9B7F4AB3FBF2F37F4A61
:10030000DFF834E213607E4B7E4A4FF0000CC3F8F6
:1003100000C0C3F804C07C4B5A60F02287F8232049
:100320000722C3F808C01A60DBF80830CAF80030AA
:10033000BEE80F0037460FC7BEE80F000FC79EE8A4
:100340000F0087E80F00636943F40023636163696A
:1003500043F400236361636943F4002363616369C9
:1003600043F4003363614FF0904310221A8520223A
:100370001A8540221A854FF40043C8F818304FF40C
:100380008043C8F818304FF40053C8F81830674657
:10039000CDF80CA0391DF0593144083707F0B0FEF4
:1003A000302FF7D1039B594AD3F80090584BDFF810
:1003B0008C811A60574B04221A7000213A4640463D
:1003C00012F038F90127002188F8001088F8181079
:1003D00088F8241088F80C70142217A812F02AF953
:1003E00019F4802F08BF4C4BDFF8FC8008BF1F704A
:1003F0002B784A4FDFF8489143F004032B7007F045
:10040000BFFF474B1F60636943F480236361E36967
:1004100043F40013E361236B23F010032363236B86
:1004200043F010032363D8F8243023F00F03C8F8F7
:100430002430D8F8243043F00403C8F82430D8F826
:10044000243023F0F003C8F82430D8F8243043F0E7
:100450004003C8F8243002234FF0000A4FF48072A2
:100460008DF87430049331464FF0030340468DF805
:1004700075301C928DF876A08DF877A00BF092FB6A
:100480004FF40072314640461C920BF08BFB3A68E9
:10049000039B22F001023A603968224A0A403A601E
:1004A000214A3A613A6842F001023A60C7F808A06E
:1004B000C7F80CA0C7F808A0BA6842F40042BA60B6
:1004C0003A683A607A6822F0784222F400427A6010
:1004D0003A6837E05C1100200010024000ED00E0B7
:1004E000002002400005FA0500040048000C004806
:1004F000001000480014004840420F00D41A0020A9
:10050000781A00203F19010010E000E0E2150020F9
:10051000042900200C140020FC0C00200054004092
:10052000781F0020FFE0CF007A25E0000008004897
:100530004C140020A819002088280108101400205D
:100540000028002042F001023A601F681022514644
:10055000484612F06FF8049B8DF851304FF6FF7249
:100560004FF0030307F0020713928DF852A08DF8A5
:1005700053A08DF8503087B130A9012741F8747D20
:1005800040460BF00FFB0C2389F80030072389F855
:1005900001A089F8033089F802704FF4D87008F090
:1005A000F1FA63695F4843F0805343F002036361EB
:1005B00008F0E8FA636943F0005343F00203636113
:1005C000594C20460BF005FA30460BF0D7F94FF4A2
:1005D0008072564B22924FF480621C932392544BAC
:1005E0001D93202200232046249231464FF40052CE
:1005F0001E932093219325922693ADF87C700BF0E7
:10060000CAF9236843F0010323604A4CA36823F02E
:100610004053A360A36843F08053A3600A2004F012
:10062000DAFFA36823F08043A360A368A360A368F4
:1006300043F00043A360A368002BFCDBA3683E4AA1
:10064000DFF8F08023F04053A360A36843F0005329
:10065000A3609168394B0B4043F468339360E268C0
:10066000374B134043F40053E360236B013F23F007
:100670000F031F4327630122002409EB0403997829
:1006800041B1571CFFB2DB7819F8041040460BF05B
:100690002DFA3A460434102CEFD1264B9A6842F0DA
:1006A00001029A601A68D207FCD5DA6822F00202C9
:1006B000DA60DA6842F00202DA60DA6842F00102D7
:1006C000DA609A6842F004029A60BBF9E830002BC5
:1006D0003ED007EE903ADFED1B6ABBF9EA301A4ACA
:1006E000F8EEE77A07EE103A67EEA67ABBF9EC303F
:1006F000CDED1C7A07EE903AB8EEC77AF8EEE77ABD
:10070000002127EE267A67EEA67A117030460F494F
:100710008DED1D7ACDED1E7A0BF004FB20E0012358
:100720000A93ACE500360010580402404004005023
:10073000102800200004005000070050E010FCFFCB
:1007400007C0FFFD35FA8E3C3A0300202C1F002025
:10075000BBF9EA20002ABCD1BBF9EC20002AB8D1B1
:10076000DFF85083BBF8F030DFF84CA3059300248A
:100770009BF8EF30C8F8004010222146C8F804402A
:10078000C8F80840BB4804932C729BF8F77011F02E
:1007900051FFB94BA5F809402320CAF80040CAF818
:1007A0000440CAF808401C6004F015FF0BAA0121A0
:1007B000752008F05DFDD146F0B1B04BCAF80430A9
:1007C000AF4BCAF808300FAA4323012120468AF80C
:1007D000003008F04DFD9DF83C3003F07E038DF8AD
:1007E0003C30002800F0EE80682B40F0EB800123C5
:1007F0006B721D238AF800306A7AA24B069300219F
:10080000042A197041F0DC809A4B9F4A9F4C1A6071
:100810009F4A5A609F4ADA602268079142F00100BD
:1008200020609A464FF0010940F2022040F2FD1E7E
:10083000049B0A2B28BF002309FA03F111EA000CDC
:1008400041F0C48011EA0E0F01F0C080924B83F892
:1008500000C0924BC8F8003042F00302904BC8F839
:100860000430226023689B0702D5D8F800309847EF
:10087000DAF800300598DFF8448298474FF0000915
:10088000CA4688F800A01FB1BB1E022B00F2DB8015
:100890003346012200210C208DF8709008F06EFC88
:1008A000002800F0D0809DF87030482B40F0CB80BD
:1008B0007C4B7D4A1A607D4A5A60062388F80030D6
:1008C000236843F0080323609BF8E4300BB1069AD9
:1008D00013709BF8E5300BB16F4A13709BF8E6304C
:1008E0000BB188F800309BF8F830042B00F2B2808E
:1008F000012404FA03F212F016085ED112F0090F77
:1009000000F0A6800A2004F066FE13AB2246A02168
:10091000772008F033FC00284FD022461E21772094
:1009200008F028FD4FF42F60614F04F049FEC146E6
:100930003C46A8F1600133460222C9B277208DF807
:1009400070908DF8719008F019FC9DF870209DF85A
:10095000713043EA022328F8073008F10208B8F1A1
:10096000100FE6D1FA89002302F00F0602F47F424D
:10097000FA8119460127481034F81000002818BFE2
:10098000002711F0010F1ABFC0B2434083EA1023C1
:10099000082013F4004F18BF83F4C05301384FEA06
:1009A0004303F6D101311029E5D13243E28127B961
:1009B000C3F303339E4201F02D802B7A43F02003D2
:1009C0002B724CE09DF82C3003F07E03682B8DF8E1
:1009D0002C3033D1022306216B723246D9F8043011
:1009E000084698479DF875309DF873209B0052008B
:1009F00002F0020203F0040313439DF8712002F099
:100A000001021343DAB25BB1012A02D10023AB72B7
:100A1000F2E6022A01D10123F9E7022004F0E5FD04
:100A2000D9F8043013AA01210C2098479DF84C30C6
:100A300013F00F03F1D0042BEDD1E7E7702B04BFC7
:100A400004236B72D8E6012F7FF63EAF002718E72C
:100A5000012BB2D00D4A136843F0040313606B6896
:100A6000012B02BF2B7A43F040032B722C7A3CB34C
:100A70002046D3E7881B0020701F002071920008D9
:100A80008993000898070020C1900008A81300204F
:100A9000F58F000890C1793DF807002069910008A2
:100AA00039900008241A0020F17E00082D7E0008ED
:100AB00024240020EC070020601F00202C1A0020B6
:100AC0002B7843F002032B70A74D4FF480432B8506
:100AD0004FF40043AB611026013E15D0AB8A9BB2A8
:100AE00083F48043AB82AB8A9BB283F40043AB8236
:100AF000AB8A9BB283F40053AB82192004F06BFDE8
:100B0000192004F068FDE7E74FF40043AB614FF4B0
:100B10008043AB61954E4FF40053AB6132681007D0
:100B200005D5934B1B689847924B01221A70924B44
:100B3000DFED926A1B68924D1A7B924B1A80924BA2
:100B40001B8807EE103AB8EEC77A904BC6EE877A4C
:100B50001B22FF2128469FED8E7A67EE877AC3ED30
:100B6000007A11F067FD00222A703268894B01215A
:100B700012F0020F1970284604D069700321197011
:100B80000221A970510704D519784D1C1D70032549
:100B9000455412F00A0F40F04E87039A1568AA06D2
:100BA00004D51A78511C1970072181549BF805202F
:100BB000082A01D00E2A04D11A78511C19700B2171
:100BC00081541A786F0702F101014FF00C06865428
:100BD000C9B248BF0232197042BF1A701022425483
:100BE0001A781226511CC9B286546E05197004D5A4
:100BF0009BF8B861002E40F02D87A90504D51A781E
:100C0000511C197015218154EA0504D51A78511C1C
:100C100019701A238354982200215F485E4DDFF833
:100C2000A0A111F007FD012004F0DCFB4C2758B314
:100C3000012C29DC07FB04F905EB090898F84A6048
:100C400016B10134E4B2F2E7037990F9000001969D
:100C50000AEB8303032200921B6B3246012104F04E
:100C600063FB834660B104FB07504C22314611F010
:100C7000E1FC01231C4445F809B088F84A30E4B28D
:100C8000012004F08DFBD2E7444B2A681A60444BE4
:100C9000444E454A1E60002313809370434ADFF898
:100CA000248113605360424ADFF81CC11468414A32
:100CB000DFF818E11660404AF0891370A6F59B76BC
:100CC000B6F84621643204F17D0107B212B2A3F1F5
:100CD0000805EDB2022DDCF8005098BF28F813206B
:100CE00005F5167588BF28F813704EF823500133A8
:100CF000122BECD1314B03931D6815F4805F08BFB4
:100D0000B6F94A71A8F80670CD348C421CD00B7825
:100D100083B98A78CB789A420CDA6AB1013A02EB4D
:100D2000820202EB820202F561734A7804329BB2BE
:100D300028F812300431E8E7013303EB830303EBB7
:100D4000830303F56173F0E72B074ED596F83E2138
:100D5000062A44D8DFE812F03C008F009200BC0065
:100D6000D600F000F00000BF00080048A8130020E3
:100D7000241A0020481A0020E02400200AE81C4120
:100D8000AD130020380800203C030020DC1E0020AA
:100D90000000C842AC1300206C080020801A00201C
:100DA00044130020821500208C240020B024002051
:100DB0004824002050240020C7120020A819002039
:100DC00088280108AC1900202C2500205C13002085
:100DD00045F2F052754B1A8003F098FA28B90820B2
:100DE0000BF032F8724B734A1A60039B1A68724B0D
:100DF00012F4804F04D0122119706D496F480860B9
:100E000042F20100024202F4005140F029861A78B1
:100E10006B4C6C4DDFF8F8A1DFF8F891043A5A708A
:100E200004F0B2FB684B18607379052B02BF674B67
:100E30004FF4C8721A8005F0FDFC654B4FF47A72CE
:100E40001A80002323602B602368002B40F0E88089
:100E5000232704F099FB0AF015F90A2004F0BBFBE4
:100E6000013FF6D10AF0E2F8DAF800302360D9F851
:100E700000302B60E8E742F6F822ABE74B4B42F636
:100E8000F8221A80534A0A23000190FBF3F0002352
:100E9000A0F5B06042F823000133122BFAD1444A86
:100EA0004D491160444A4020137004F09BFA002819
:100EB00095D00123072790F90000484A8DE8880063
:100EC000474B402104F030FA003018BF012085E77D
:100ED000364B42F6F8221A80354B424A1A60364B9E
:100EE00010221A70402004F07DFA00283FF477AFFA
:100EF0000123002590F900003B4A8DE828004FF4BB
:100F0000E133DEE7294B42F6F8221A80284B374AB4
:100F10001A60294B08221A70402004F063FA002856
:100F20003FF45DAF0123002490F90000304A8DE8C2
:100F300018004FF4E133C4E71C4B2E4D2E4C2F48C4
:100F4000DFF8D4C0DFF8D4E02D4F42F6F821198045
:100F5000194B0C211970062A4FF000032B702370D7
:100F600003701AD01B238CF8003005238EF8001074
:100F70003B704FF4E1340E4B224A1A60402004F0DB
:100F800031FA00283FF42BAF0023012190F9000033
:100F90001D4A8DE80A00234693E721238CF8003090
:100FA0008EF800103A70194CE5E700BF06090020E2
:100FB0000001002041B300084814002019B30008C4
:100FC000C01B0020BC1B00203C0800200029002082
:100FD0005413002004270020E5B2000841B50008A2
:100FE000A0860100D1B200089DB40008B9B2000883
:100FF00055B4000892260020752700207427002091
:1010000077270020E5B1000845B3000890D0030021
:10101000102500200C250020762700209126002096
:101020000023DFF8CCA3DFF8CC9323602B600F27DD
:101030004FF0050B04F0A8FA0AF024F80A2004F097
:10104000CAFABBF1010BF5D109F0F0FF2368DAF819
:10105000002029681A44D9F8003022600B44013F6F
:101060002B60E5D10F2192FBF1F22260C94A93FB7C
:10107000F1F32B60137843F008031370C64A13781A
:1010800023F002031370039B1B6840F602021A420E
:1010900009D0C24BC24A1A60C24B03221A70C24B1B
:1010A0001F80C24B1F80039AB3681360C04AC149B6
:1010B000C14CDFF844A301231370BE4A8DF872308F
:1010C0001278059362F07F0201F80C2B4FF00209B1
:1010D0008DF873904FF48052ADF8702062690491DE
:1010E00042F480220DF1700B62615946504607F0C0
:1010F00007F84FF48053CAF81830282004F06BFA30
:101100004FF48053CAF81830484604F064FA4FF49C
:101110008053AAF82830484604F05DFA4FF4805313
:10112000CAF81830484604F056FA002003F0A6F832
:101130005A213A2003F084F8052004F04CFA48467E
:1011400003F09CF8032003F099F8042003F096F8CC
:10115000052003F093F8062003F090F8059B18464D
:1011600004F039FA08F014F9642004F034FA934AD0
:10117000DFF888E2059B4FF080411160904A914969
:101180001160914A914911604FF49662A8F80A20C3
:10119000DFF86C8288F8003088F801309EE80F0094
:1011A0000DF12C0C8CE80F000EF110030FCB0DF19C
:1011B0003C0989E80F000EF120030FCB0DF14C0A1A
:1011C0000EF1300E8AE80F009EE80F008BE80F004A
:1011D0009AE80F00049D85E80F00764B03F11C0E82
:1011E0009BE80F008EE80F0099E80F000EF1100E3B
:1011F0008EE80F009CE80F000EF1100E8EE80F0035
:101200004FF4967004F0E7F900214FF48C727048A7
:1012100011F010FAE36943F00703E361A36943F4B3
:10122000A523A361636943F4C0236361614B03F1A8
:10123000100103F1600E1D46049B05934FF00F0C47
:1012400010318E4540F0098273790E2B40F01E82DA
:1012500001238DF866305F4B1A68042F00F01F825F
:101260007B1C02EBC30111F9061C022940F0158218
:10127000FF00BB1CD31804D01744BB88003318BF31
:1012800001238DF86130039B1A68C2F340038DF887
:101290006230C2F380138DF86430C2F340338DF8AE
:1012A0005C30C2F3C0338DF85F3012F4006307D0B6
:1012B00096F83231A3F1020EDEF1000343EB0E0388
:1012C0008DF86030C2F300438DF86530C2F3C0037F
:1012D000B6F8D4708DF85E30C2F38043ADF86A7012
:1012E0008DF86330D704B6F8E030ADF8683002F01E
:1012F000010002F0080144BFB6F8DC20ADF86A2016
:10130000B3F5FA7FC4BF0023ADF86A3096F8823196
:1013100085F84C300023A5F84D309DF866308DF8E7
:101320005D00002B14BF0222002200B901B101327E
:10133000294BDFF8D0A003EB8203D3F890309F1E37
:101340000633049337F8023F4FF6FF72934240F0A2
:10135000B581224BDFF8B0E0214F04221A7000253E
:10136000EB190FCB05EB0E061035402D86E80F006C
:10137000F6D1039B1B481A681B4B1E681B4B02F4DB
:1013800080521D680023002A00F01583B5F904106F
:101390003CE000BF2D1A0020E0280020FC270020A0
:1013A0007415002050080020520800205408002026
:1013B000FC0C00205C11002000100240E81E002000
:1013C000E41E0020ABAAAA3FE01E002026B4973EF0
:1013D0003C2500200429002088280108DA1A002072
:1013E00028290108E6280020C4240020C024002069
:1013F000102500200C25002000040048D8280108F2
:1014000029090020BC1100203C0C002020F81310FA
:1014100001330C2BB7D1022501278DF872708DF89E
:10142000735063699F4E4FF0100943F48023ADF869
:10143000709059466361304606F062FEA6F8289027
:101440008DF872708DF8735063694FF0800A43F421
:1014500000334FF09049ADF870A0594663614FF0EA
:10146000904006F04DFEC9F818A08DF872708DF806
:1014700073506369ADF8705043F48023636159463B
:10148000304606F03DFE35858DF872708DF873504C
:1014900063694FF4004A43F40033ADF870A0594635
:1014A0006361484606F02CFE98F80030C9F818A091
:1014B000A3B10A2004F08FF88DF872708DF8735084
:1014C00063694FF4005943F48023ADF87090594696
:1014D0006361304606F014FEA6F8289098F80130B3
:1014E000BBB10A2004F077F801238DF87230022393
:1014F0008DF873306369102543F40033ADF87050F4
:10150000594663614FF0904006F0FAFD4FF090436A
:101510001D8598F80230C3B10A2004F05CF801235D
:101520008DF8723002238DF8733063694FF4807543
:1015300043F40033ADF87050594663614FF090406A
:1015400006F0DEFD4FF090431D8598F80330ABB1F7
:101550000A2004F040F801238DF8723002238DF840
:1015600073306369082543F48023ADF870506361DC
:101570004C4C5946204606F0C3FD258598F80030AE
:10158000002B00F01B821E2004F025F8454B4FF481
:1015900000529A611E2004F01EF8434800F08EFAB3
:1015A0001E2004F018F82A213F480BF053F92B2491
:1015B00098F80130ABB11E2004F00DF84FF09043C5
:1015C00010229A611E2004F006F8384800F076FADE
:1015D0001E2004F000F8214634480BF03BF901349A
:1015E000E4B298F80230B3B11E2003F0F4FF4FF0DC
:1015F00090434FF480729A611E2003F0ECFF2C4858
:1016000000F05CFA1E2003F0E6FF214628480BF0AC
:1016100021F90134E4B298F8033093B11E2003F0AD
:10162000DAFF204B08229A611E2003F0D4FF2148E4
:1016300000F044FA1E2003F0CEFF21461D480BF0B7
:1016400009F998F8043013B11B4800F037FA1E204E
:1016500003F0C1FF31B0BDE8F08F11F8063C11F87E
:10166000050C4FEAD30903F0070251F8103C03EBD5
:1016700089039200D3F8209090400CFA02F229EAF4
:1016800002021A621A6A10431862D9E503F0EF03E6
:10169000082B3FF4DDAD0023DBE51F46DDE500232D
:1016A000EFE500BF0004004830090020A00A002038
:1016B000F00F0020880E0020200D00209DF86220F1
:1016C000DEB21B0A4AB105EB0612C6481169814217
:1016D00003D1928A012A00F06381022B00F060811D
:1016E000059A012B02EB061040F031819DF85D3028
:1016F000002B00F055813601BB4BE86505EB060970
:101700000022FF211A705A609A60DA601A6483F826
:10171000441083F8451083F8462083F8472099F851
:10172000193085F850208DF87230B9F81420D9F8A6
:101730001000ADF87020022359468DF8733006F082
:10174000DFFC95F84C2099F81630D9F80C00012AE6
:101750000CBF03220022002B40F0A080036A23F07C
:10176000010303628369016A23F0F30343F0010379
:1017700021F00A0143EA021341F001018361016291
:10178000836923F00C0383618369836105EB060998
:101790000021012208F012FDD9F80C2013889BB219
:1017A00043F00103138099F817308DF87030002250
:1017B000012358468DF871308DF8722007928DF80C
:1017C0007330069302F09AFC99F81710069B079A5B
:1017D0001B290BD1192158468DF870108DF87130E6
:1017E0008DF872208DF8733002F088FC05EB060945
:1017F0007E4B2B66D9F80C607D4B6B660023AB6685
:10180000304608F029FD062800F3CA8099F816E052
:10181000784A79490A23434303EB9E034FEA9E0E1D
:1018200042F823A0043342F823100221F36801FA9E
:101830000EF189B2194303B203EB8303DB00F160BD
:1018400003F120011144EFF3128C4FF0500E8EF390
:101850001288103313444FF0040ED3F80090B9F1FE
:10186000000F03D0C1F8009019680431BEF1010ED9
:1018700003F10403F1D1C1F800E05FFA8CFC8CF3B2
:101880001188282303FB0020036A002B40F0FC8012
:10189000F36823F001031B041B0CF8E0042B19D19F
:1018A000036A23F010031B041B0C03628369016AA3
:1018B00021F0A00123F47343090443F48073090C5D
:1018C00043EA023341F0100183610162836923F42A
:1018D000406358E7082B036A1ED123F480731B046E
:1018E0001B0C0362C369016A9BB223F0F30343F04C
:1018F00001034FF2FF5E43EA021301EA0E0EC361D9
:101900004EF480730362C36923F00C031B041B0CA9
:10191000C361C369C36139E723F480531B041B0C03
:101920000362C369016A23F440731B0521F400516B
:101930001B0D490443F48073490C43EA023341F41C
:101940008051C3610162C36923F44063DEE7032B66
:1019500026D19DF8633095F84E90284E4BB1002368
:101960004FF6FF72082106F0F5FB254B46F82900DB
:1019700010E0BDF86820BDF86A30B2F5FA7F14DDDA
:101980002049B1FBF2F2242192B206F0E3FB1E4B98
:1019900046F82900C36095F84E30013385F84E3083
:1019A000049BBB427FF4CEACD3E41849B1FBF2F206
:1019B000012192B2D7E7B6F9041027E52A24F7E50A
:1019C0002B7A43F002032B72FEF78DBF0021012B0F
:1019D00004913EF62DAF0E4B9DF81C201A70FEF7B9
:1019E00041BF00BF00040048F41C00200D7D00082A
:1019F000E57D00083C250020C0110020581D002076
:101A0000F57D000800512502097E000840420F00C4
:101A1000F80700201F4B42F210721A805A801E4AAB
:101A20005A601E4A9A601E4ADA601E4A1A611E4AAD
:101A30005A61FFF70FB81A7804218154511CC9B2BA
:101A400005254554D11C0232D2B2197006218154A9
:101A5000FFF7A3B802321A7013224254FFF7CDB831
:101A6000124844F62064048021B1082119701049FD
:101A700010480860D2077FF5CAA90C221A700C4AD8
:101A80000D491160FFF7C3B9F36843F00103F36038
:101A900086E700BF142500200FA8000843A800080F
:101AA00005A8000841A8000865A60008060900204E
:101AB0000001002035B3000829B300082DE9F04FDC
:101AC000292380F860314FF4C8760123041D0546B0
:101AD0009DB080F86131A0F8626100228821204623
:101AE00002F06DFE4FF47A72A5F85621714AC5F8DE
:101AF0005C210023704AA5F8586185F8F430C5F8D8
:101B0000D8206B620CA9204603F0C7FA0646A0B99C
:101B10008DF830008DF831000DF1300EBEE80F0069
:101B200005F114070FC7BEE80F000FC7BEE80F008E
:101B30000FC79EE80F0087E80F006423A5F838312F
:101B40004FF46173A5F83A314FF4FA730127A5F801
:101B50003C314FF42063A5F840313A46802185F8A6
:101B60005471204602F02BFE3A468046FF21204663
:101B700002F025FE002248EA0000114606432046F6
:101B800002F01DFE76B20DF128080643424691216F
:101B9000204602F0D5FD76B29DF8283085F83E311A
:101BA00006433A460021204602F009FE76B206437B
:101BB0000022FF21204602F002FE76B206430022F8
:101BC0008021204602F0FBFD76B2304340B2002671
:101BD000002840F0DD81B3B2013B042B04D8DFE8DC
:101BE00003F00B595C5F660085F82C70AB194FF061
:101BF000000A83F82C700BE005EB860344219A6BF6
:101C00002046C2F34F2202F0C6FD82460028EDD0E6
:101C10000136062E5046DBD1BAF1000F56D185F8B9
:101C20002EA085F82FA00223FE226021204602F07C
:101C300094FD8246002849D185F830001023EF2218
:101C40006021204602F089FD824600283ED14FF4F3
:101C50009013AB6395F82D3085F8310073BB4FF4CA
:101C60008043EB634FF40C132B6495F82F30002B5B
:101C700040F08C81FF226B6485F8342101212046DD
:101C800002F09DFD012385F836318246F0B985F8D2
:101C900019A11BE085F82E70A8E785F82F70A5E73D
:101CA0000023FE226021204602F057FDADE700230D
:101CB000EF22F7E7856B0100A47009002022442180
:101CC000204602F068FD82460028C8D0B44F87F84D
:101CD00000A0BAF1000F40F01A81402251460CA832
:101CE00010F0A8FC95F8F490ADF81EA0B9F1070F1C
:101CF0008DF81BA08DF81CA0CDF820A000F0F2807C
:101D000001228021204602F05AFD01220646FF21D1
:101D1000204602F054FD524606435146204602F04A
:101D20004EFD76B206430622FF21204602F047FD13
:101D300076B206430DF11D028321204602F000FD1C
:101D40009DF81D2076B2064342F00402832120460E
:101D500002F035FD76B206430722FF21204602F04D
:101D60002EFD76B2012281210643204602F027FD96
:101D700076B206430A2003F02EFC01228021204681
:101D800002F01DFD76B2064319F0010B76B240F069
:101D900001816B229421204602F011FD82462046EB
:101DA00007F0FDFE4AEA0000064309AA90212046FA
:101DB00002F06EFC099B76B2C3F30622942106431F
:101DC000059220462422C3F3C03A02F0F8FC76B212
:101DD0000643204607F0E3FE76B2064309AA9021A7
:101DE000204602F055FC099A8DF82B20110E8DF833
:101DF0002810110C8DF8291076B2110A06432522FD
:101E00008DF82A102046942102F0D9FC76B20643C0
:101E1000204607F0C4FE76B2064309AA9021204668
:101E200002F036FC099A76B2110E0643120C76B215
:101E30008DF82C108DF82D2000228121204602F0F3
:101E4000BEFC06220643FF21204602F0B8FC76B213
:101E500006430DF11D028321204602F071FC9DF81E
:101E60001D2076B2064302F0FB028321204602F0D9
:101E7000A6FC76B206430122FF21204602F09FFC19
:101E800076B2064301220021204602F098FC76B289
:101E900006430022FF21204602F091FC76B2064361
:101EA00000228021204602F08AFC76B2304310F0F6
:101EB000FF0F17D1BBF1000F10D19DF8143085F83A
:101EC000173185F818A105F5977318F80B2003F85A
:101ED000012B0BF1010BBBF1060FF6D149F0010903
:101EE00085F8F49095F81891B9F1010F05D895F897
:101EF00017A152D1BAF1200F54D907AA08A9204638
:101F000007F016FF0646002800F09A803E7097F909
:101F100000302BB908AA09A9204607F009FF38703C
:101F200097F9003043B901230DF11D020DF11E0197
:101F3000204607F0B5FE387097F9003013B901223A
:101F40002A753B7097F900301BB9012285F82C20C7
:101F50003B7097F900305BB9EA6B4421C2F34F2222
:101F6000204602F018FC10B9012385F82D30387096
:101F700097F90030002B40F06C8195F82D00002877
:101F800040F05E8141F69913EB6361E1002371E655
:101F900082469BE6CDF814A04EE7BAF10C0FABE7F2
:101FA000581A00200122FF21204602F008FC0246B8
:101FB000A8B94F21204602F002FC80B92C224E2104
:101FC000204602F0FCFB024648B9FF21204602F001
:101FD000F6FB20B9B422B621204602F0F0FB002324
:101FE00085F8283185F8293185F82A3185F82B3193
:101FF00085F82C3185F82D31B9F1000F00F01B81E7
:102000008E4903F1B402920951F82220002A00F00F
:10201000DE818DE80804CDF8088005F5947305F598
:1020200097724946204602F0ADF8064600287FF434
:102030006DAF012385F8193185F817A185F818913E
:1020400095F85431002B40F0C781D5F85011204647
:1020500007F0ABFB064600287FF458AF32460A2152
:10206000204602F0ACFB064600287FF44FAF034643
:10207000EF228421204602F070FB064600287FF400
:1020800045AF85F8DE00204602F0F3FB0646002847
:102090007FF43CAF0122FF21204602F090FB0DF1BE
:1020A0001E0281468421204602F004FB324649EAA2
:1020B0000009FF21204602F082FB4FFA89F949EA24
:1020C000000046B2002E7FF421AFBDF81E301B0188
:1020D000C5F8D8300CA9204602F0DFFF06460028DC
:1020E0007FF414AF0DF11B020921204602F028FBFA
:1020F000064600287FF40AAF9DF81B300DF1300E24
:1021000003F0010385F835318DF81B30BEE80F0070
:1021100005F114060FC6BEE80F000FC6BEE80F009B
:102120000FC69EE80F0086E80F000DF11B0201218B
:10213000204602F005FB064600287FF4E7AE9DF836
:102140001B308DF8280085F83431424601212046A5
:1021500002F0F6FA064600287FF4D8AE9DF8283043
:1021600003F0EF094B450ED04A460121204602F00C
:1021700026FB064600287FF4C9AE85F83491A9698C
:10218000204607F0ABFC00234246012120468DF893
:10219000283002F0D5FA064600287FF4B7AE9DF845
:1021A000283003F0FB094B450ED04A46012120465A
:1021B00002F005FB064600287FF4A8AE85F83491AE
:1021C000A969204607F08AFC4FF0030985F836918B
:1021D00009AA0021204607F041FB064600287FF4AB
:1021E00095AE9DF8243085F8EC3009AA01212046EF
:1021F00007F034FB064600287FF488AE9DF82430B3
:1022000085F8E43042464946204607F0C5FB0646BD
:1022100000287FF47BAE0A9BC5F8E83042460421D3
:10222000204607F0B9FB064600287FF46FAE0A9BF4
:10223000C5F8E0306AE64B46EBE600BF042A010829
:102240000C224421204602F0A6FA00283FF49AAE60
:10225000387097F9003043B94FF47013AB6344F60C
:102260002061204607F03AFC387097F90030002BC7
:1022700046D150225721204602F0A1FA08225621C9
:10228000204602F09CFAD0BB42460321204607F0CC
:1022900083FBB0B90CAA0221204607F07DFB80B970
:1022A00008225021204602F08AFA50B90A9A0321E6
:1022B000204607F0ECFA20B90C9A0221204607F0DC
:1022C000E6FA122385F8EC30C8B9A969204607F070
:1022D00005FCA0B902220121204695F8346102F0E4
:1022E0006EFA60B90146204607F0C2FC38B93246A2
:1022F0000121204602F063FA08B985F8346138708C
:1023000097F90080B8F1000F5ED1482211462046AF
:1023100002F055FA08224721204602F050FA032223
:1023200006463221204602F04AFA072206433021AF
:10233000204602F044FA76B206430122FF212046ED
:1023400002F03DFA76B2064320223021204602F008
:1023500036FA76B206434246FF21204602F02FFAB3
:1023600076B2304340B270BB0CAA0421204607F07D
:1023700013FB50B906227021204602F020FA20B942
:102380000C9A0421204607F082FA0E2385F8E430E7
:10239000C8B9A969204607F0A1FBA0B90222012112
:1023A000204695F8346102F00AFA60B901462046E9
:1023B00007F05EFC38B932460121204602F0FFF9F1
:1023C00008B985F8346138701DB0BDE8F08F2C2B4A
:1023D0003FF41FAE013314E6004938E60B0000203D
:1023E000A9490A682DE9F04F02F59C43A74C203318
:1023F0002360A74B8BB01D780591002D3AD1A54FD6
:10240000DFF8A082DFF8CCA297F80090E9B2494546
:102410000E4680F2A4800729D8BFD8F8003038468D
:10242000D8BF595CDAF800309847032E1DDCD8F885
:10243000003006F10F0B03EB8B0133F82B204B8898
:1024400098B1811A4FF47A709B1A484390FBF3F0CD
:1024500040F2EE2300F57A709842B8BF184640F675
:10246000CA039842A8BF184680B204EB460601355D
:10247000B080C9E7884909688A4201D9013D1D70C9
:10248000864B00931A6812F4805F05D0844B1B685A
:10249000DD0701D40AF04AF9059B1968814B1A68D7
:1024A000937A002B00F03481013B7F48127B30F996
:1024B00013301AB1C3F53B6308331BB2A3F57A732B
:1024C000B3F57A7FA8BF4FF47A7323EAE37307EE7C
:1024D000903ADFED766AF8EEE77A87EEA67A744AEC
:1024E000DFED747A67EE277AFCEEE77A17EE903A22
:1024F0001380009BDFF8E0911B6813F4807F00F0ED
:1025000054816D4B6D4D994203D9AB78002B00F08F
:102510004F87AB78002B00F04881614F95F8216020
:102520003B6899F800B00297012E03F08063DFF852
:1025300094A1634F01930BF0040B14BF4FF00308F9
:102540004FF0000895F82010052900F22881DFE8F7
:1025500011F01B0193019901BC01D401F1014F4B12
:102560001A68584B029342F20101186800900A4021
:10257000039206D094F8293084F82830524B5A78C8
:102580001A7094F828601EB14F4B1E7886F0010631
:102590000F2384F82A30434B94F82BA01B68019337
:1025A0000323BAFBF3F303EB4303AAEB0303DBB20E
:1025B0005B000493009B454FDFF8ECB003F5167306
:1025C000002507F1BC02069307F172084D4542DA77
:1025D000690086B137F91500019B9B8A80B2984249
:1025E000C0F2CE86019BDB8A984200F3C986069B27
:1025F00042F8253003E03046EEE73BF80100039B4C
:102600001BB92BF815000135E0E7314B062101FB22
:10261000053E049B2EF8030094F8743033B9BAF1E8
:10262000020FEEDD4FF0010384F874304FF000012B
:1026300028F815106B0000203EF8101033F808C081
:1026400001306144032823F80810F5D10BB293FB45
:10265000F0F080B2D5E794F82A300F2B174B3DD11C
:102660000F4A1268560139D4029AD96812689A60E2
:10267000521AC82A02D9012283F8212094F82B305B
:10268000013384F82B30FBE6101A00209C12002046
:10269000D428002048140020D0280020A8190020A9
:1026A000101F002050240020AC19002000007A44A4
:1026B0000414002000C07F44404B4C008C240020B8
:1026C000882400202C250020FE000020A0120020DD
:1026D000C812002000010020E0280020B84AB94EAE
:1026E000012151701170029A99681268DA60521AC9
:1026F00059688A4284BF002283F8212000254D4575
:10270000BCDAE8B209F0E2F826F815000135F6E780
:102710000098006800047FF5ECAED4F89000081A29
:102720000028FFF6E6AE01F59C402030C4F890008A
:10273000A548D27A4579A548A54E30F8150080B253
:1027400090FBF2F094F89420013202F00F0284F82A
:102750009420224482F8950018461A46855D01307F
:102760002A44102812B2F9D192FBF0F212B2002AD8
:1027700003DB642A1346A8BF642307EE903ADFED1B
:10278000956AF8EEE77AA8E6BBF1000F68D0012E53
:1027900005D0052009F030FB8F4B02221A70B8F1EA
:1027A000000F02D0404602F0ADFE8C4DB5F8DE00C1
:1027B00001F052FEAA46064618B904F023F804F0C8
:1027C00011F899F800305B0708D5009B1B68DF06FD
:1027D00004D5834B1B78DD0640F1F68500239AF87B
:1027E0008C819AF88D11BAF84671BAF848E17548AB
:1027F0001A4630F912509B08BD42C4BF63F07F03F4
:10280000DBB201327545B8BF43F04003042AF0D172
:1028100094F8B1209A4240F0C18094F8B220F92A8D
:1028200002DC013284F8B2206E4F84F8B1303B787C
:102830006D4D002B40F0E9802B68D80740F1DC801B
:10284000002E40F0AD8099F80030DA0740F1DD80CD
:102850005B0702D4012384F8B33009F01BFFD4E0F6
:10286000019B4FF4806023B109F0E0FA00232B6153
:1028700095E709F0CBFAF9E7012E7FF463AE052165
:1028800000F09EBD012E04BF052185F82010BBF18C
:10289000000F0CD0D4F8A810B1F90E0049490880F7
:1028A0004880888038684088C8804FF00208DAF88D
:1028B000000069698142C0F07F85BBF1000F00F024
:1028C0007B85012E3FF43EAE69E799F8001041F098
:1028D000020189F8001009F029FFDAF80000E9691F
:1028E0000144A961042185F820104FF4806009F0AB
:1028F0008DFA052009F074FA24E6012E14D1DAF8D5
:102900000000A9698142BFF44AAF364B197821B95A
:10291000029B1968CA073FF542AF99F8001021F0F1
:10292000020189F80010AAE7DAF80020EB691344E5
:10293000AB6134E73868DAF80030C188642000FB06
:1029400001312961002185F82010E970CDE79AF85E
:102950008E317EB9002B00F03F85244B1A68D4F8E5
:10296000AC309B1A002B80F2378509F0DFFE84F82B
:10297000B06033E73BB11D4A12684FF47A7101FB36
:102980000323C4F8AC3094F8B030002B3FF426AFEA
:1029900002F0AEFD002384F8B0301FE7002241E7CB
:1029A000D4F8B4300A2B30DC114B1B885E072CD4D2
:1029B000104B1B784BBB03F025FF03F013FF4CE7D4
:1029C000FE000020AC190020002800201028002064
:1029D000311300200000C842FF2800204C140020C2
:1029E0002D1A002004010020101F00202C2500209B
:1029F000D6280020FE28002099F80030580704D57A
:102A000094F82830002B40F0ED8494F8B230994EC1
:102A1000142B2ED13B78C3B194F8B1305F2B06D183
:102A200099F8003013F0040B6CD009F07FFEB8F178
:102A3000000F0AD094F8B1307D2B06D199F8003000
:102A400013F0040B64D009F071FE99F8003013F014
:102A500004020ED194F8B130572B5FD14FF47A7342
:102A6000A4F8B830844B1B6813F0080301D1834AE3
:102A70001380009B1B68580725D594F8BA309BB18A
:102A800099F8003059070FD57D4BB3F90620BAF8F5
:102A900046319A4208DD2B6813F0010301BF794AE1
:102AA00084F8BA30322111802B68DA0340F1A0801B
:102AB000754B1A782AB9754A127812B9714A3221BF
:102AC000118001221A70366800232B6006F17F07FF
:102AD00006F1CF084FF0010BB84500F098803A7826
:102AE0007B789A420CDA394617F8010C02F0DCFCCC
:102AF00030B117F8023C2A680BFA03F313432B603A
:102B00000437E9E70B2002F0FDFC84F8B2B08EE751
:102B10000B2002F0F7FC84F8B2B096E70099096840
:102B2000490740F167845A2B40F06484574B197869
:102B300021B11A70564B01221A709AE794F8BA30F4
:102B400083F0010384F8BA301BB10C2002F0DAFCE8
:102B50008FE70D20FAE75B2B00F051845E2B40F0ED
:102B60005C84032000F04CBCB8F1000F02D07E2B37
:102B700000F0608494F8B130972B04D1454B4FF4AA
:102B8000C8721A8075E7A72B05D1434A137843F022
:102B9000040313706DE70022BB2B099217D10223A7
:102BA000ADF826303368BDF82410B3F85C200A4431
:102BB000A3F85C20BDF82610B3F85E200A44A3F801
:102BC0005E2009F0E9F9002384F8B23051E7B72B11
:102BD00002D14FF6FE73E3E7BE2B03D10223ADF81B
:102BE0002430DFE7BD2B7FF444AF4FF6FE73F6E7EA
:102BF000264A1378002B3FF466AF99F8003013F0A3
:102C000004037FF460AF13700122214B5AE7234F76
:102C100006F1CD054FF00C0806F215164FF0010B2A
:102C2000B5423FD06A78AB789A4221DA691C28789D
:102C300002F03AFCE0B16979EB78194A95F804C0E2
:102C400008FB01FE013B07EB0E0003EB43031344BB
:102C5000426893420CD043600023836094F8BB30F9
:102C600007F80EC00BFA01F123EA010184F8BB104A
:102C70000635D5E748240020A8130020F4130020CF
:102C8000AC190020AA280020CA280020CB28002048
:102C9000CC280020002900202D1A002054240020D8
:102CA00096290108C84AC94994F82830D2F800800A
:102CB0000F68C74D019300260292042E00F0C082D7
:102CC0006968002962D00A78002A5FD0A868381A9B
:102CD00000280BDB07F5FA70A860012000FA06FE59
:102CE00094F8BB0020EA0E0084F8BB00019B002B87
:102CF0004CD028784B780430C0B2002B40F0698269
:102D0000B44B33F910E0BAF8440100F1C80CE645C1
:102D100028DD91F802B094F8BB103141CB0735D4CF
:102D2000BBF1000FCCBF02200120039202F010FC87
:102D3000039A511E13293BD8DFE811F02B00420003
:102D40004F0061007A008200E5005601BA01EB01F4
:102D50001A023A0061006D008200E5005601DC00B5
:102D60003C01B101C838864504DA91F802B0CBF1D4
:102D7000000BD0E7012202FA06F194F8BB2022EA08
:102D8000010284F8BB2007F5FA72AA6001360C35FF
:102D900093E798F800209344BBF1FA0FA8BF4FF0D7
:102DA000FA0B2BEAEB7B88F800B0404602F060FBA0
:102DB00094F8BB100122B2400A4384F8BB20E5E737
:102DC00098F801209344BBF1640FA8BF4FF0640B47
:102DD0002BEAEB7B88F801B0E7E798F803209344EF
:102DE000BBF1640FA8BF4FF0640B2BEAEB7B7A4A70
:102DF00088F803B01168404602F0FAFAD8E798F86C
:102E0000051059446429A8BF642121EAE1710D2A03
:102E100088F80510CCD098F804209344BBF1640FD7
:102E2000A8BF4FF0640B2BEAEB7B88F804B0BFE738
:102E300098F8062093448BF3080B88F806B0B7E7A0
:102E400066490968087802283DD107EE90BAF8EE85
:102E5000E76AB2EE047AC6EE877A91ED0A7A77EEE7
:102E6000877AF5EEC07AF1EE10FA29D49FED5C7AFC
:102E7000F4EE477AF1EE10FAC8BFF0EE477A0F2A67
:102E8000C1ED0A7A94D007EE90BAF8EEE76AB2EE96
:102E9000047AC6EE877A91ED097A77EE877AF5EEB5
:102EA000C07AF1EE10FA2BD49FED4D7AF4EE477A0A
:102EB000F1EE10FAC8BFF0EE477AC1ED097A77E774
:102EC000DFED487ADBE788785844C828A8BFC820D7
:102ED00020EAE0700F2A88703FF46AAF4A78934482
:102EE000BBF1C80FA8BF4FF0C80B2BEAEB7B81F8F2
:102EF00001B05DE7394A11680A78022AC3D0EDE7CC
:102F0000DFED387AD9E735490968087802283AD1DF
:102F100007EE90BA9FED327AF8EEE76AC6EE877A4E
:102F2000D1ED0D6A77EEA67AF5EEC07AF1EE10FAE1
:102F300026D4F4EE477AF1EE10FAC8BFF0EE477AE5
:102F4000102AC1ED0D7A3FF433AF07EE90BA9FED32
:102F5000247AF8EEE76AC6EE877AD1ED0C6A77EE4E
:102F6000A67AF5EEC07AF1EE10FA29D4F4EE477A9B
:102F7000F1EE10FAC8BFF0EE477AC1ED0C7A17E710
:102F8000DFED187ADCE7487B5844C828A8BFC82082
:102F900020EAE070102A48733FF40AAF0A7B93449A
:102FA000BBF1C80FA8BF4FF0C80B2BEAEB7B81F831
:102FB0000CB0FDE6094A11680A78022AC5D0EDE78F
:102FC000DFED087AD9E700BF342400202C2500204B
:102FD00054240020AC190020A0190020A4190020BE
:102FE0000000C84200000000C049096808780228B3
:102FF0003ED107EE90BA9FEDBE7AF8EEE76AC6EED4
:10300000877A91ED107A77EE877AF5EEC07AF1EE55
:1030100010FA2AD49FEDB77AF4EE477AF1EE10FA5F
:10302000C8BFF0EE477A112AC1ED107A3FF4C0AE66
:1030300007EE90BA9FEDAE7AF8EEE76AC6EE877AB1
:1030400091ED0F7A77EE877AF5EEC07AF1EE10FA0D
:103050002BD49FEDA87AF4EE477AF1EE10FAC8BFB0
:10306000F0EE477AC1ED0F7AA2E6DFEDA37ADAE758
:10307000087E5844C828A8BFC82020EAE070112A5A
:1030800008763FF495AECA7D9344BBF1C80FA8BF44
:103090004FF0C80B2BEAEB7B81F817B088E6934A18
:1030A00011680A78022AC3D0EDE7DFED937AD9E7F9
:1030B0008E4A11680A78022A1FD107EE90BAF8EEFC
:1030C000E76AB2EE047AC6EE877A91ED0B7A77EE74
:1030D000877AF5EEC07AF1EE10FA0BD49FED857A7F
:1030E000F4EE477AF1EE10FAC8BFF0EE477AC1ED80
:1030F0000B7A5DE6DFED807AF9E7CA789344BBF19D
:10310000C80FA8BF4FF0C80B2BEAEB7B81F803B0C8
:103110004EE6764A11680A78022A1DD107EE90BA67
:103120009FED747AF8EEE76AC6EE877AD1ED0E6A03
:1031300077EEA67AF5EEC07AF1EE10FA09D4F4EE45
:10314000477AF1EE10FAC8BFF0EE477AC1ED0E7A79
:103150002EE6DFED697AF9E78A7B9344BBF1C80F6D
:10316000A8BF4FF0C80B2BEAEB7B81F80EB01FE62F
:103170005E4A11680A78022A1FD107EE90BA9FEDC5
:103180005C7AF8EEE76AC6EE877A91ED117A77EE0F
:10319000877AF5EEC07AF1EE10FA0BD49FED557AEE
:1031A000F4EE477AF1EE10FAC8BFF0EE477AC1EDBF
:1031B000117AFDE5DFED507AF9E74A7E9344BBF1E1
:1031C000C80FA8BF4FF0C80B2BEAEB7B81F819B0F2
:1031D000EEE5012B7FF4ECAD0C2A7FF4E9AD474B13
:1031E000897833F910B0464B40F633008345A8BFC9
:1031F0008346BBF5617FB8BF4FF4617B4FF49660A7
:1032000090FBF1F01978ABF5617B9BFBF0FB5FFA6B
:103210008BFB59453FF4CCADBBF1030FD4BF5946EE
:103220000221197002FB01A2029B02F22A521A60CB
:1032300007F008FB0BF10100C0B202F089F9B7E515
:10324000304D314E2B6813F0020F06D1009B1B68E6
:10325000DF0506D52D4BDB781BB13368980700F1ED
:10326000ED80012008F0D2FD012704E003F0CAFA46
:10327000012008F0DBFD2A68510732D58FB3012009
:1032800008F0C4FD224B1B889A0704D403F0BAFA55
:10329000022008F0CBFD99F800305B0708D41C4BE6
:1032A0001B8803F044031BB11A4B1A881A4B1A806F
:1032B000336813F00A0F40F0C9802B681A054FF4E9
:1032C00080705AD508F0B2FD9AF80530082B02D06C
:1032D0000E2B40F0C38040200BB0BDE8F04F08F04B
:1032E00095BD022008F092FDD5E700BFA41900208B
:1032F00000007A440000C84200000000AC19002021
:103300004C240020101F0020A81300208C24002033
:10331000D8280020F4130020E2280020514B1B88FD
:103320005F0706D4042008F081FD4F4B1A884F4BED
:103330001A802B689E061CD54A4B1B88580602D45F
:10334000402008F073FD2B68590641BF464A11889A
:10335000474A118013F0080308D094F8BC30002BC2
:10336000ABD1414B1A88424B1A80012384F8BC3000
:10337000A3E7402008F04AFDE5E708F047FDA3E792
:1033800052F82530009883423FF637A9E8B20792F9
:1033900008F09CFA032D079A3FF731A994F82A10F8
:1033A0000123AB4021EA030384F82A30FFF727B951
:1033B0000123AB70FFF7ADB842F21071E961032150
:1033C00085F82010FFF7BEB82A4B1B78002B7FF43E
:1033D000BEAA002E7FF4D7AA102002F093F8012392
:1033E000FFF7D9BA11B9002E7FF40FAB09F09EF99F
:1033F000FFF70BBB5D2B7FF4AEAB012000E002209A
:10340000C7B27B1E8AF8283508F02EFD07F064FA53
:10341000384602F09DF8FFF72CBB562B01D108F07F
:10342000BBFD3B78002B3FF4A5AB94F8B1306F2B7C
:103430007FF49AAB09F02EF9FFF71BBB094B1B88F1
:1034400013F001073FF412AF002714E72B68DB06E7
:103450003FF564AF042008F0D9FC6AE70BB0BDE883
:10346000F08F00BFD8280020F4130020E2280020AD
:10347000F40200200401002038B5044624200D4643
:1034800001F026FF4D2001F023FF002C094C14BF52
:1034900021203E2001F01CFF2368002228469A715B
:1034A00001F016FF236893F84900BDE8384001F0A9
:1034B0000FBF00BFDC28002001460020DCE710B56C
:1034C00001F0FCFE044601F0F9FE04EB004010BDE3
:1034D0002DE9F84F4B282DED048B00F0118500F2FB
:1034E000F080322800F050856BD8222800F040840C
:1034F0002BD8032800F0CE8207D8012800F0AD8237
:10350000022800F0B7820020C0E2042800F0C9823F
:103510000528F8D11A20FFF7CFFFC84D0024285DF9
:10352000013401F0D5FE0B2CF9D1C54D0024285DE6
:10353000013401F0CDFE082CF9D100240020013423
:1035400001F0C6FE072CF9D19FE2282800F0BF84C5
:1035500013D8242800F0B0842628D4D1B94C0620F2
:10356000FFF7AAFFB4F8E80001F0C4FEB4F8EA00DF
:1035700001F0C0FEB4F8EC004CE22A2800F0BA8456
:103580002C28C0D1AF4C0C20FFF796FF94F83E01D9
:1035900001F09EFEB4F8480101F0ACFEB4F844011D
:1035A00001F0A8FEB4F8460101F0A4FE94F83F0132
:1035B00001F08EFEB4F84A0101F09CFEB4F84C0113
:1035C00028E23D2800F0178344D8382800F07A8498
:1035D00033D8342800F0EF83362894D19A4D994C93
:1035E00095F86400C0EBC000C0B2FFF765FF04F1BE
:1035F0002006683594F9980100230C33EA1812F973
:103600000C2C824240F0D584C0B201F061FEB4F8C7
:103610009A0101F06FFE94F89C0101F059FE94F8B4
:103620009D0101F055FE94F89F0101F051FE94F8C0
:103630009E0101F04DFE00F0BFBC3A2800F0D2829E
:103640003B287FF460AF0120FFF736FF7F4B1B68FC
:1036500018780CE2452800F0C18426D8402800F0F4
:103660009A8442287FF44FAF764C1020FFF724FF56
:10367000607901F02DFEA06801F045FE94F83E014E
:1036800001F026FEB4F8E80001F034FEB4F8EA00D8
:1036900001F030FEB4F8EC0001F02CFEB4F82E017D
:1036A00001F028FEB4F83001B4E1462800F0898426
:1036B00049287FF428AF0220FFF7FEFE614B98896E
:1036C000A8E1732800F0C38300F256816C2800F053
:1036D000518200F2D180662800F0168200F29580B7
:1036E0004D2800F0318465287FF40DAF0B20FFF7E3
:1036F000E3FE574B544C188801F0FCFD554B1A68FB
:10370000554B9A420CBF554B554B188880B201F06F
:10371000F1FD2068C0F3C003C0F380029B0043EAC0
:103720004203C0F340021343C0F3401243EAC20312
:1037300000F01000184301F0DDFD4A4B26791A888D
:10374000494B1968494B1B7802F00100C3F3800311
:1037500043EA4003C2F3400043EA800302F008005A
:103760000343C2F3800043EA0013C2F3801043EA2C
:10377000401301F04000034301F08000034301F4D3
:1037800080700343C2F3001043EA4023C2F34010A9
:1037900043EA8023C2F3002043EAC02301F48050AF
:1037A000034301F40050034301F48040034301F458
:1037B0000040034301F48030034301F4003003432D
:1037C00001F48020034301F40020034301F480103E
:1037D0000343C2F3402043EA405301F00071C2F3B7
:1037E00080220B43002043EA826305340246012510
:1037F000B24280F06681115D05FA01F119421CBFE9
:1038000005FA02F108430132F2E7682800F0A681C8
:1038100069287FF478AE164D164E2878400000F0E7
:10382000FE00FFF749FE00242B789C4280F02D819A
:1038300036F8140001F05EFD0134F5E7EE2C0108C6
:10384000FA2C01084C140020A81300204824002062
:10385000D6280020781F0020005400405C1F002064
:103860005E1F0020D8280020101F0020E028002024
:1038700048140020AC1900206F2800F0C78130D810
:103880006D2800F086816E287FF43DAE0720FFF79B
:1038900013FEC54BC54C1888FF28A8BFFF20C0B237
:1038A00001F016FDA06D4FF6FF75A842A8BF28468F
:1038B00020EAE07080B201F01DFDB4F85C0001F078
:1038C00019FDBB4B93F83331002B00F09081236E30
:1038D0000A205843A842A8BF284620EAE07080B2D8
:1038E00098E0702800F0BA8172287FF40CAEB04CDA
:1038F0001620FFF7E1FDB4F8440101F0FBFCB4F839
:10390000D00001F0F7FCB4F8D20001F0F3FCB4F8F9
:10391000D40001F0EFFCB4F8860101F0EBFC0020CC
:1039200001F0D6FC002001F0D3FC002001F0D0FC17
:1039300094F8330101F0CCFC94F8400101F0C8FC8C
:10394000002001F0C5FC9B4B1B68B3F95A000A2309
:1039500090FBF3F080B201F0CDFC94F8280101F067
:10396000B7FC94F82C0101F0B3FC94F82B0101F0A2
:10397000AFFC94F82D017AE0A02800F08D8222D8C7
:10398000772800F049820FD8742846D075287FF434
:10399000BAAD2F20FFF790FD874C14F8010F0028D7
:1039A00073D001F095FCF8E77B2800F026837C2893
:1039B0007FF4A9AD0320FFF77FFD804B187801F05D
:1039C00099FC7F4B44E6F02800F059820AD8DD28A4
:1039D00000F01083DE287FF496ADFFF770FDFFF74F
:1039E0006EFD52E0FE2800F03D82FF287FF48BAD93
:1039F000744A6E4C1188002323840122114266D13F
:103A000001339BB25200092B92B2F7D10220FFF78B
:103A100053FD208C01F06EFC37E0644F00264FF020
:103A2000010ADFF8BC914FF0000B3B795B4540F396
:103A3000E981654B0C251BF80340002305FB03F2CD
:103A400002EB090012F80920A24200F0DC820133E7
:103A50001C2BF3D10BF1010BE7E70320FFF72CFD43
:103A6000002001F035FC022001F032FC002001F0C2
:103A70002FFC0AE00520FFF71FFD544D0024285DB0
:103A8000013401F025FC052CF9D10120BDEC048B9B
:103A9000BDE8F88FFFF710FD022001F019FC0020AF
:103AA000E2E70B20FFF708FD072001F023FC484D5B
:103AB0000024285D013401F00BFC072CF9D1002013
:103AC000A8E701F020FC3A4B93F82805CFE7013B2B
:103AD000072B05D8DFE803F007090B0E10121416A8
:103AE0000123238492E70223FBE74023F9E74FF405
:103AF0008073F6E78023F4E72023F2E71023F0E752
:103B00000823EEE70423ECE71220FFF7D5FC314B46
:103B1000264C1B88B3F5806FD4BF012608260025EC
:103B200004F1220737F9150090FBF6F0013580B259
:103B300001F0E0FB032DF5D1208D01F0DBFB608D62
:103B400001F0D8FBA08D244C01F0D4FB208801F0BB
:103B5000D1FB608801F0CEFBA0885BE71020FFF767
:103B6000ABFC1E4D0024285D013401F0B1FB102C8C
:103B7000F9D18AE70D4C0620FFF79EFCB4F8460009
:103B800001F0B8FBB4F8480001F0B4FBB4F84C0005
:103B900040E7064C0620FFF78FFC206D01F0B3FBD9
:103BA000B4F8540036E700BFA8280020A81300206E
:103BB0004C14002048240020D1290108FF280020AF
:103BC0003E030020D6280020AD130020E02C010881
:103BD000E62C01083C0300201C1A0020D61300200C
:103BE000702B01080420FFF767FC002061E1206EC4
:103BF00000F30F0073E6CA4C0220FFF75DFC94F857
:103C00008E0101F065FB94F88D0130E7C54C0B2067
:103C1000FFF752FC2368187801F05AFB23685878A4
:103C200001F056FB002523682B440135187901F07B
:103C30004FFB032DF7D12368D87901F049FB2368A6
:103C4000987801F045FB2368D87801F041FB2368A0
:103C5000588901F04FFB2368187A08E7B24C2120FD
:103C6000FFF72AFC23681B78022B4FF000056CD16C
:103C70009FEDAE9ADFEDAE8AB2EE048A236803EBC5
:103C8000850393ED090A20EE080A0CF0BDFF80F3CE
:103C90000800C0B201F01CFB236803EB850393ED21
:103CA0000C0A20EE090A0CF0AFFF80F30800C0B246
:103CB00001F00EFB236803EB850393ED0F0A20EE62
:103CC000280A0CF0A1FF80F30800C0B2013501F012
:103CD000FFFA032DD2D1072D236829D193ED120AC3
:103CE00020EE080A0CF090FF80F30800C0B201F04B
:103CF000EFFA236893ED130A20EE080A0CF084FF14
:103D000080F30800C0B201F0E3FA236893F8503062
:103D100000EE103AB8EE400A0CF076FFFF28A8BF7C
:103D2000FF20C0B2013501F0D3FA0B2DD3D1ACE6A0
:103D30002B44587801F0CCFA23682B44187B01F00F
:103D4000C7FA23682B44D87DECE723682B445878C6
:103D500001F0BEFA23682B44187B01F0B9FA2368FE
:103D60002B440135D87D01F0B3FA0B2DEDD18CE653
:103D70005020FFF7A1FBDFF8B0816E4E00250C2725
:103D8000D8F8004004EB8504013594F87D3007FB3A
:103D90000363187A01F09CFA94F87E0001F098FA17
:103DA00094F87F0001F094FA94F8800001F090FA02
:103DB000142DE5D169E64820FFF77EFB5A4F002518
:103DC00006263C6806FB0544013594F8D20001F054
:103DD0007FFA94F8CD0001F07BFA94F8CE0001F060
:103DE00077FA94F8CF0001F073FA94F8D00001F05C
:103DF0006FFA94F8D10001F06BFA0C2DE1D144E692
:103E0000464427E6BAF1000F3FF43FAEF0B2FFF7A9
:103E100053FB4FF0000A04E6474C464D2079FFF76C
:103E20004BFB0026671D4FF00C0823799E42BFF420
:103E30002CAEF05D002308FB03F25119525D824263
:103E400000F0F48001331C2BF5D10136EDE708209A
:103E5000FFF732FB0124E0B2013401F039FA092CFA
:103E6000F9D112E60820FFF727FB002001F042FA03
:103E7000002001F03FFA002001F03CFA1FE62A4C36
:103E80000420FFF719FB2368B3F85E0001F032FA53
:103E90002368B3F85C00BDE50C20FFF70DFB274B52
:103EA000186801F030FA264B186801F02CFA254BFF
:103EB000186801F028FAE8E50420FFF7FDFA184B2E
:103EC0009868F6E70420FFF7F7FA154C45E5144C1F
:103ED0000720FFF7F1FAB4F82E0101F00BFAB4F85D
:103EE000300101F007FA94F8320101F0F1F9B4F869
:103EF00034018FE50120FFF7DFFA094B5879B6E569
:103F0000074C0420FFF7D8FA94F8840101F0E0F997
:103F100094F8850101F0DCF9B4F886017AE500BF78
:103F20004C14002034240020482400200000C84203
:103F300000007A44702B0108A8130020ACF7FF1F83
:103F4000B0F7FF1FB4F7FF1F3A4D3B4C287800EB4A
:103F50004000C0B2FFF7B0FA00262B789E4204F171
:103F60000204BFF492AD14F8020C01F0B1F914F898
:103F7000010C00EB800000EB800000F2EE2080B22C
:103F800001F0B8F90136E8E70120FFF795FA2B4B6D
:103F900093F840016BE50820FFF78EFA274D0024C7
:103FA0006319013493F8360101F092F9082CF7D126
:103FB0006BE5302B7FF421AB0834A6427FF41AABBB
:103FC00063E50D20FFF778FA002001F081F9002069
:103FD00001F099F9002001F096F906E61320FFF7A9
:103FE0006BFA174D0024285D013401F071F90B2C98
:103FF000F9D1EFE701F062F947E50220FFF75CFA3B
:10400000104B188806E54568284608F0D9FC80461C
:10401000BAF1000F7FF4F4AE2C46631B98457FF78E
:1040200019AD14F8010B01F053F9F6E7087A01F025
:104030004FF90AE7481400209A1500204C1400207C
:10404000EE2C010840030020104A40F2E9331189A8
:1040500089070AD50E4A0D49107040F2E9330889E4
:10406000C0070DD51078C0B27047013B9BB2002B42
:10407000EDD1084A138801339BB21380FF207047AB
:10408000013B9BB2002BEAD1F3E700BF00380040B0
:104090000C3800404014002010B50C4C00232420A4
:1040A000A37001F039F9442001F036F9012001F044
:1040B00033F9A378064883F00103A37005F0F5FAFD
:1040C000A078BDE8104001F027B900BF40140020DF
:1040D000032D0108084B4FF47A72594301F5FA7128
:1040E0004FF4FA63B1FBF3F3B1FBF2F102FB0030E2
:1040F000B0FBF1F0704700BF002F3A000C4B10B539
:10410000DB6802780B48DB43C3F302230121C3F1D0
:10411000040301FA03F384181B01DBB284F80033B3
:10412000530902F01F0201FA02F240F8232010BDE9
:1041300000ED00E000E100E0F0B54FF0FF33CF0804
:10414000136001F007014FEAC70E3D460026052D1A
:1041500000D806B1F0BD445DAF4203BF0C41E4B2EC
:104160000B46334614F0010F06D07344136001264A
:1041700001350EF1080EEAE70133082B4FEA54042B
:10418000F0D1F5E72DE9F04F87B00DF11808109D3B
:1041900048F80C5D294F1C4681468A469346002606
:1041A0000123119A964221D10026129B1D60CEB99F
:1041B0002146484600F047FF064698B904AD2B4615
:1041C0000622B02199F85C0104F0D8FF002808BF4E
:1041D0006FF013060023E15CEA5C91422AD10133BF
:1041E000062BF8D1304607B0BDE8F08F424629468D
:1041F00058460193FFF7A0FF039A531C17D002F112
:10420000B401890957F82110003118BF0121514527
:104210000DD1D108019B02F0070005299FBF03FAC9
:1042200000F5605C28436054551C0136B9E76FF017
:104230003106BAE76FF03106D4E700BF042A01085F
:10424000F8B50D4C20250746258532200E4601F095
:10425000B7F947F08000FFF7F7FE322001F0B0F920
:104260003046FFF7F1FE322001F0AAF9A561C8201F
:1042700001F0A6F90120F8BD000400481F4B2022E0
:1042800010B51A850446322001F09AF904F07F0037
:10429000FFF7DAFE322001F093F9194A4FF6FF7169
:1042A00093894FF47A73148914F002040CD0154AE0
:1042B0001348FF2111704FF6FF71048914F00104B7
:1042C00016D01478E4B208E0013B9BB28B42EAD1ED
:1042D0000D4A138801339BB21380322001F070F92C
:1042E000064B20229A61C82001F06AF9204610BDD1
:1042F000013B9BB28B42E0D1EAE700BF00040048DB
:10430000003800400C3800404014002007B51B4B1B
:1043100003F108025A6093F84A2122B3012A09D115
:10432000032183F85C15072183F85E2583F85D156A
:104330000C221A72124B134A1A60402001F052F8F4
:1043400070B10122002390F9000040218DE80C009B
:104350004FF4E1330C4A00F0E7FF003018BF0120B2
:1043600003B05DF804FB022183F85C15032183F898
:104370005E2583F85D150722DBE700BF40140020AF
:10438000000100208DB200080DB400080D4B03F1B0
:10439000DC02C3F86025C3F8641500F150039842AD
:1043A00007D002781AB98178C278914207DB0430CD
:1043B000F5E70023044A83F00103137170470123DA
:1043C000F8E700BF401400200001002070B5222251
:1043D00000211248124E0EF02DF90022114B05213A
:1043E00001241046042A03F108030CD0955D03F85C
:1043F000085C03F8041C03F8034C03F8010C03F8F1
:10440000021C0132EEE7084B0122A3F8A62102228A
:10441000A3F8AE21522283F8A22170BDE21500203C
:10442000142A0108E41500204014002010B507F0FC
:1044300049FB4FF43024012806D10CB9052010BDEA
:1044400007F040FB013CF6E7002C08BF052010BD3B
:1044500000210120FFF710B80B4AD2F8683513F499
:10446000805FB2F972350AD0B2F85021111A8B422E
:1044700008DD10448342B4BF002001207047B2F829
:104480005201F7E70120704740140020164B1946EF
:10449000002241F80C2F4A608A6019461A6041F8E0
:1044A000182F5A609A604A608A601946303393ED3B
:1044B000000A41F8242FB4EE400AF1EE10FA4A60E7
:1044C0008A6006D693ED021AB4EE411AF1EE10FAA4
:1044D00007D79FED061AF0EE410AB0EE410A03F04D
:1044E00039BAD3ED010AFAE7D41900200000000020
:1044F0002DE9F041624CD4F8D035D4F8D4259A1A7D
:10450000002AC0F2848003F5C332A032C4F8D83543
:1045100004F2DC50D4F8E835C4F8D425984704F206
:10452000DC5194F8EC25084604F0B4FC94F8ED2531
:1045300012F0040F04F2DC501CD0D4F8D435C4F8C7
:10454000F035002384F8F43504F586759E4604F2B0
:10455000F65704F2FC5630F9131027F8131026F81A
:1045600013100133032B25F802EFF4D122F00402DB
:1045700084F8ED25D4F8F025DAB1D4F8D4354149E2
:104580009B1A414A934201F106064FF0000340D8BE
:1045900030F9132031F913705D009742775FC8BF7F
:1045A00021F81320974203F10103B8BF7253032B84
:1045B000EED194F8083653B3B4F8DE05B4F8102100
:1045C000B4F8E035B4F80E11801AB4F8162112FBD5
:1045D00000F210B2B4F812219A1AB4F8183113FB91
:1045E00002F3B4F8DC25511AB4F8142112FB01F2DD
:1045F0001BB20A2112B293FBF1F392FBF1F2A4F881
:10460000E035A4F8DC2590FBF1F2A4F8DE25BDE846
:10461000F08101F10C07C4F8F035A1F2EA4C4FF03B
:104620000208384631F913E036F913200EEB020583
:10463000A2EB0E0202EB820227F8132095FBF8F59D
:104640000133032B2CF8025FECD1B4F90426B4F942
:1046500002360E4E1344B4F906260A211344594378
:104660000022B518835E0232062A03EB430391FB56
:10467000F3F3A5F80831F4D107F08EFC99E700BFF9
:1046800040140020361A00207FC3C9014C140020BA
:1046900013B5144601AB042290F85C0104F06EFDE2
:1046A000019B00281BBA0CBF6FF013000020236091
:1046B00002B010BD13B5144601AB022290F85C01A4
:1046C00004F05CFD9DF804209DF80530002843EAC5
:1046D00002230CBF6FF013000020238002B010BD36
:1046E00073B590F8DA30013B022B054621D80DF165
:1046F00006020E21FFF7DEFF0F4CBDF8066004EA4C
:104700004646A0B90DF106020C212846FFF7D2FF5C
:10471000B6F57F0FBDF8063004D804EA4344B4F57B
:104720007F0F04D918B90549284605F03EF802B0B4
:1047300070BD0020FBE700BF0000FE1F0501002048
:1047400008B5134690F85C01012204F017FD00281B
:104750000CBF6FF01300002008BDF7B590F85C6146
:1047600015461C4601220DF1070330460F4604F0A2
:1047700005FD68B19DF807202A402243394630469E
:104780008DF8072004F0F6FD10B1002003B0F0BD55
:104790006FF01300FAE707B502AB8DF80520120A97
:1047A00003F8042D90F85C01022204F06CFD00284F
:1047B0000CBF6FF01300002003B05DF804FB08B5D8
:1047C00090F85C0104F0D6FD00280CBF6FF01300D8
:1047D000002008BD2DE9F3474FF0000A8846164631
:1047E000FF210122054699469DF828708DF807A003
:1047F000FFF7E5FF5246044651462846FFF7DFFF24
:1048000052460443FF212846FFF7D9FF64B2044310
:1048100064B2B9F1000F06D04246CB212846FFF71B
:104820008FFF044364B23FB10DF10702EE21284629
:10483000FFF786FF044364B20122FF212846FFF7F9
:10484000BEFF0122044300212846FFF7B8FF64B2EF
:1048500004430022FF212846FFF7B1FF64B29DF810
:104860000730204323F0100340B2337002B0BDE89C
:10487000F08773B50646002501220B213046FFF76D
:104880009EFF002204460B213046FFF798FF0DF1F2
:104890000702044313213046FFF752FF9DF807300B
:1048A00064B2204301355B0740B2EDB205D0032D61
:1048B00008D00028E0D002B070BD032D08BF6FF013
:1048C0000B00F8E76FF00B00F5E700BF37B50446C3
:1048D000154605292CD8DFE801F0030717191B1B23
:1048E000436B2B60002021E00DF106024421FFF70D
:1048F000E1FED8B9BDF8062053029AB12B60A3633C
:10490000012384F8293011E0C36BEAE7036CE8E780
:104910000DF106026421FFF7CDFE38B9BDF806306F
:104920005B02DEE7A36B2B6084F8290003B030BD87
:104930006FF00300FAE72DE9F04F9DB004460D46F5
:1049400012AB0C22142190F85C0104F017FC002833
:1049500000F0B3829DF852609DF853309DF84800F6
:10496000002203EB0623AA752A606A609EB29DF8B6
:104970004E209DF84F3003EB02239BB25B02EB60AD
:1049800003939DF851209DF8503002EB032292B220
:1049900052022A619DF84B309DF84A2003EB022316
:1049A0009BB20493BDF81030AB82B4F8523194F846
:1049B0003111B3F57A7F0CD07343267F4FF47A72AE
:1049C00003F5FA7393FBF2F3226A002E40F0928013
:1049D0009EB2002900F09880B3082B81B301EB75DB
:1049E0000023ADF83E30C308059303F00F03019395
:1049F000019A4FF2A103D34003F001030C9394F802
:104A000028300293002B00F0A181267FEF6826B1A9
:104A1000AB8A266A5E438036360ABB194FF47A7930
:104A200094F8E020099309FB03FBD4F8DC300892EA
:104A3000114618460693FFF74DFBD4F8E43094F87E
:104A4000E810079382461846FFF744FB089A099B33
:104A50000BF5004B082A03F180034FEA1B480A9329
:104A60000CBF02220322BA4BB8F1000F59D1C4F88F
:104A7000403140469946688110AA00212046FFF740
:104A800025FF109F1FB14F452CBF0027012700288D
:104A900040F0008294F82A80B8F1000F00F06481A1
:104AA00011AA02212046FFF711FF88B90122FF2138
:104AB0002046FFF784FE58B90DF13E02B62120468C
:104AC000FFF7F8FD20B90246FF212046FFF777FEE9
:104AD000BDF83E607302119EC4F848311EB1B34266
:104AE00094BF00260126002800F03F814FF0000906
:104AF000CA4658E1049E92B27243039E1212964235
:104B000005D159B948F6E0262E81002367E7039EB8
:104B10009BB27343B21AB3FBF2F359E742F2B826E1
:104B20005AE782444FEACA2A02FB0AF240F277614E
:104B300002F5FA72B2FBF9F24A430D9302F5FA73E9
:104B40000893B3FBF9F309930A9B2A698148DFF8BC
:104B500014A2190A099B59438031090A09FB02F280
:104B600008BF012102EA0A02B2FBF8F8804528BF1B
:104B700080464FF416720C2002FB08F348430B9357
:104B800005F02FF809FB06F1B1F5481F0BEA0A0BF7
:104B900028BF4FF448112A7E0D9BABEB41014FEA31
:104BA000400801F5FA710BF5FA7BB1FBF9F12889A0
:104BB000BBFBF9F90902B1FBF9F1002A40F0C3800F
:104BC000654A0902C1F58031424341F25C20B2FBE3
:104BD000F0F24A4302F50042120C02F5803252080C
:104BE0005243920B4FF4487B0BFB02FB0D930B9B44
:104BF0000BF5004B03F5004A4FEA1B4B0BFB0BFB7D
:104C00004FEA1A4A0AFB0AB004F0EBFF00046422E0
:104C100040F6B5313230B0FBF2F041F28832B0FBF1
:104C2000F8F8069B01FB082807990B444FF47A79A2
:104C300042F210724FF4FA61B8FBF2F803F5FA721F
:104C4000B8F5704FB2FBF9F0B2FBF1F101F5C81104
:104C5000B1FBF0F028BF4FF4704804F0C2FF00022F
:104C600000F5FA70B0FBF9F0404308FB080004F0CF
:104C7000B8FF0D9BB4F8546109FB00F9994528BFB2
:104C80009946D4F85831C4F8409103FB06F808F16E
:104C900080084FEA182808FB06F86FB12F4B0A9AD4
:104CA00003EA822303EB5703B3FBF7F707EB47074E
:104CB0007F4307F500473F0C06220AF1030ABAFBBF
:104CC000F2FACAEBCA0ABAF5803F37BF0B9B244BF6
:104CD0000333B3FBF2F33FBFC3EBC30303F500435E
:104CE0001B0C5B434FF4FA6A089AB2FBFAF208F124
:104CF000200093445B44099AB3FBF2F380099B03C1
:104D0000FE227F33B3FBF2F307FB03F604F069FFE7
:104D10004FF47A7B06F5FA76B6FBFBF6360106F51C
:104D2000FA760746B6FBFBFBBBF1000F04D0B6FBDF
:104D3000FAF6B044B8FBFBFB584604F052FFB84209
:104D400028BF384697E64FF480324BE7029FA1E632
:104D5000AE878F02666666009A9906000000FCFF27
:104D60000000F0FF0000FFFF464694F82B90B9F1D9
:104D7000000F71D0049B002B69D0039B4FEA032ADC
:104D8000049BBAFBF3FA15AA03212046FFF79EFD08
:104D9000159B002B5ED0534594BF4FF0000A4FF097
:104DA000010A002859D04FF0000EA5F80AE0029B36
:104DB000002B7ED007F00107019A94F8293084F87F
:104DC0002E70042A77D0B3FA83F35B09B8F1000F91
:104DD00008BF0126B9F1000F08BF4FF0010A06F025
:104DE00001060AF0010A84F8306084F82F3084F854
:104DF00031A004F1500685F818E00FCE15AF0FC7AB
:104E000096E80700EB7DB5F80890B5F80A80B5F88C
:104E100014C087E80700E9682A696868169015AD2C
:104E2000189119928DF86B30ADF85C90ADF85E80FA
:104E3000ADF868C08DF86CE00FCD50340FC497E822
:104E4000070086E8070000201DB0BDE8F08FDDF800
:104E500010A098E79A46A4E7CA460C9B03BB019BA7
:104E6000013B022B1FD9019B062B29D0092B27D0F0
:104E7000059B03F00D03082B18D0012E16D0019BC3
:104E8000042B36D0BAF1010F26D0012F27D0BA4615
:104E90003E4688E74FF00008C146C246464682E7D4
:104EA0004FF0FF0E83E74FF0050E80E74FF0030E43
:104EB0007DE7012780E7012388E76FF01300C3E750
:104EC0004FF0040E029B002B7FF474AF012294F884
:104ED000293084F82E2076E74FF0020EF2E756468E
:104EE000BE46EFE7012384F82E30029E4FF0020EFB
:104EF0006CE7029B002BF5D04FF0020E5AE773B51A
:104F0000012204468021057CFFF759FC0122FF2184
:104F10002046FFF754FC002211462046FFF74FFCC5
:104F200094F83A2191212046FFF749FC0122002103
:104F30002046FFF744FC0022FF212046FFF73FFCFC
:104F4000002280212046FFF73AFC012D2AD004D30D
:104F5000032D36D06FF0070016E001220021204615
:104F6000FFF72DFC01238DF8073068B9054644F69C
:104F700020669DF80730DB0705F101050DD560B906
:104F8000B54203D16FF0060002B070BD01460DF1CD
:104F900007022046FFF7D4FBEBE7B54208BF6FF0EE
:104FA0000600F1E710B92046FFF79AFB0222002124
:104FB0002046FFF704FC0028E6D1042384F83231B0
:104FC000E2E710B92046FFF78BFB0422EFE770B54C
:104FD000C02288B00E460121044690F83051FFF7F8
:104FE000EEFB70BB20742046FFF789FF48BB2046CC
:104FF00004F00CFE28BB032384F8323101A92046BB
:10500000FFF799FCE8B92046FFF733FCC8B9012245
:10501000FF212046FFF7D3FB98B93246B621204640
:10502000FFF748FB68B90246FF212046FFF7C7FBA0
:1050300038B92A4601212046FFF7C1FB08B984F898
:10504000305108B070BD08B506220B4690F85C01DF
:10505000B02104F018F900280CBF6FF013000020F5
:1050600008BD13B502AA00230C4602F8013D012138
:10507000FFF766FB78B99DF80730C3F30012227082
:10508000C3F3C002A270C3F380026270C3F3801244
:10509000DB09E270237102B010BD2DE9F04786B044
:1050A000037C0B700C4603AAF8210546FFF702FBB0
:1050B000064628BB04AA04212846FFF7E9FA06465B
:1050C000F0B9BDF80C201AB1049BB3FBF2F3A36056
:1050D000A368AB610023237304AA20212846FFF7AD
:1050E000E9FA064660B9BDF810306BB92A6A226148
:1050F0002B7704AA28212846FFF7DCFA064640B1A0
:10510000304606B0BDE8F087DB0023612B62012347
:10511000EEE7BDF81030C3F30B03B3F5006F4FF0AB
:10512000FA0226BFA3F5805313FB02F353436361D6
:1051300004F1240805F1280A04F118090027424661
:10514000B9B22846FFF7C2FB06460028D8D101377E
:105150001AF8013B09F8013B062F08F10408EED1CB
:1051600004AA01212846FFF7EBFA06460028C7D11A
:105170009DF8103085F830311B064ABF012384F8B2
:105180003C0084F83C3094F83C3085F84C304FF4C7
:10519000FA6302930023039340F63633636004A955
:1051A0002846FFF75EFF06460028A9D19DF810307B
:1051B0002BB99DF8113013B99DF81230CBB102AA6A
:1051C0000221284604F0E8FB00283ED19DF810306B
:1051D0002BB1029B03F24E226368134463609DF877
:1051E0001230DBB1029B03F2B222636803EB42038D
:1051F00063609DF813305BB103AA0321284604F0D5
:10520000CBFB039B03F52572636813446360E0B92D
:105210009DF8143063B963686B6171E79DF81130D4
:10522000002BE6D0029B03F5257263681344DFE789
:1052300001AA0421284604F0AFFB019B03F22622B9
:105240006368134463600028E5D0064658E738B524
:105250000D4C94F9003005461BB90430FFF74FFEA2
:10526000207094F900305BB90849281DFFF763FBF3
:10527000237F207023B9A3892B80B5F9000038BDA6
:105280004FF69C73F8E700BF581A00205C1A002004
:10529000044A536823B192F90020824200D1184792
:1052A000704700BF781A0020034B1B68DA79511C45
:1052B000D9711344187A7047DC28002010B5FFF725
:1052C000F3FF84B2FFF7F0FF04EB002080B210BDC3
:1052D000064B10B501460446986806F0ADFC044B39
:1052E0001B689A7954409C7110BD00BF781A002049
:1052F000DC28002010B50446C0B2FFF7E9FF200A01
:10530000BDE81040E4E710B5044680B2FFF7F2FFB5
:10531000200CBDE81040EDE7024B0146986806F00E
:105320008BBC00BF781A00202DE9F34188469DF818
:1053300024E0184E11461A469DF8203005460C24EC
:105340000020042807460AD0013004FB006C1CF939
:105350000CCCAC45F5D104FB0764208908B10020D2
:1053600002E025B1012D11D002B0BDE8F0810A485C
:10537000CDF800E004F0C2FF0028F5D00C2303FBB9
:1053800007660571A6F808807060EDE7CDF800E0CB
:105390000248EFE7101400200038014000440040AC
:1053A00070B50E490E4A0B7B12680025032B05DDF4
:1053B00005B10B73002070BD2346F7E702EBC3066F
:1053C0005C1CB6883042E4B24FF00105F4D00C7397
:1053D0000820022110FB0310104470BD781A002031
:1053E00004290020014B00221A73D9E7781A002003
:1053F0002DE9F0411D4D00240A274FF47A7682787A
:105400001FFA82FEA4EB0E031BB2002B2ADDC2F1B1
:105410006402D2B290F8038003FB03FC08FB0CFC8F
:10542000C8F164080EEB8E0E12FB02F29CFBF2F246
:105430004244534393FBF7F303EB4E031BB26B80E1
:105440000A88B1F802E00A34AEEB020EA4B203FB04
:105450000EF3782C93FBF6F3134425F8023FCED1DC
:10546000BDE8F08108BF0122D4E700BF841A002004
:1054700030B50C4C002340F6C415072B10D003FBAD
:1054800003F2A2F1190142784A4302F6C4120178EC
:105490005A434A4392FBF5F224F813200133ECE718
:1054A00030BD00BF9E1A00200430104B10B533F9F8
:1054B00010200C7840F633039A42A8BF1A46B2F582
:1054C000617F4FF0190340F28330B8BF4FF461722F
:1054D00013FB0404944207DA497813FB010090425D
:1054E000B4BF0020012010BD002010BDAC19002069
:1054F000034B002283F834209A639A871A6470471A
:10550000781A002070B408B970BCF1E70E4A002385
:105510000C25114605FB03F4A65C864209D10B4B12
:10552000186C50B1224455784278954205DB70BC26
:1055300070470133102BEDD1F9E7002221441964A3
:105540009A879A63F3E700BF182A0108781A0020A7
:1055500040000C4A142870B4A8BF1420002302F1A4
:105560004401022614255E540233CC18984204F8F4
:10557000015CF8DC1344FF2283F844200F2070BC48
:10558000C0E700BF781A002010B50A490A480A6827
:10559000846800BF0B689A42F9D1084BD96D4FF46B
:1055A0007A7000FB01F31B1BB3FBF1F300FB02302D
:1055B00010BD00BF2C25002010E000E0781A00206C
:1055C00038B50446FFF7E0FF0546FFF7DDFF401B57
:1055D000A042FAD338BD10B5044604B910BD4FF44B
:1055E0007A70FFF7EDFF013CF7E72DE987482D4C76
:1055F00006460B27013FFCD04FF01E0B05254FF050
:10560000020806F0400906F0200A00E00025B9F182
:10561000000F04D0A38A9BB283F48043A382BAF123
:10562000000F04D0A38A9BB283F40043A38216F038
:1056300002021FBFA38A9BB283F40053A382584681
:105640000192FFF7C8FF019AB9F1000F04D0A38AB5
:105650009BB283F48043A382BAF1000F04D0A38AE3
:105660009BB283F40043A38222B1A38A9BB283F44A
:105670000053A3825846FFF7AEFF7DB1013DC6D16E
:105680004FF4FA70FFF7A7FF4FF0960BB8F1000F39
:10569000BCD14FF47A70FFF79EFFABE708F1FF38FB
:1056A000F4E700BF00080048024A136801331360A2
:1056B000704700BF2C2500200920E9E52820E7E5F8
:1056C00006EE901AB8EEE66ADFED106A104B9FED19
:1056D000117AB3F8603026EE266AF7EE005AC5EE6E
:1056E000866A07EE903AF8EE677A67EE877A90ED71
:1056F000007A76EEA76A30EE470A87EEA66AA6EE33
:10570000007AB0EE470A80ED007A7047DB0FC9409F
:10571000781A0020BD3786352DE9F74F244D254EE8
:10572000254F002495F86280E0B240450ADA56F829
:1057300020302BB10B2803DCDB6837F810109847BA
:105740000134EFE71D4B1B685B032DD50025194F76
:10575000DFF86CB029464FF0500A4FF028092A466E
:10576000EEB2B04520DD57F826305C688C4214D08C
:105770002046019204F070FDEFF312838AF3128841
:10578000616A09FB00B001314162616941F00101C8
:105790006161DBB283F31188019A57F826301B68E8
:1057A00001351A602146DBE703B0BDE8F08F00BF8A
:1057B000781A0020581D0020D6130020A8190020B8
:1057C0003C2500202DE9F04FF34BF44CD3F800902A
:1057D000D4F868A0F24DDFF80C84F24FF24E2DEDB4
:1057E0000A8BD14583B0B0EE40BADFEDF08ADFED31
:1057F000F09A9FEDF09A9FEDF0AA00F01483EF4B22
:10580000C4F868901A780193DFF8DCB3002A4ED10F
:10581000BBF90230D5ED085AD5ED060A07EE903AED
:10582000BBF9043000EE103AB8EEC07AF8EEE77A31
:1058300095ED070ABBF9003065EE876AB7EE006A9E
:10584000E7EE806A20EE470AA0EEE06AA7EEA50A1E
:1058500060EEE60A06EE903AF8EEE66AB1EE400A2D
:10586000E6EE260A0BF01EFBDFEDD57AB4EEE70A72
:10587000F1EE10FAB0EE401A00F1B182DFEDD17A0C
:10588000B4EE670AF1EE10FAC8BFB0EE671ACE4A5E
:10589000D2ED010A92ED000A02F05CF8019BC8ED1E
:1058A000008A0122C8ED018AC8ED028A1A70BBF98C
:1058B0000030D5ED01AAD5ED006A07EE103ABBF92C
:1058C000023008EE103AB8EEC88AB8EEC77ABBF9D3
:1058D000043068EE2AAA07EE903AE7EE26AAF8EE20
:1058E000E77AD5ED026AE7EEA6AAD5ED046AC4ED23
:1058F0001BAA28EE268AD5ED036AA7EE268A95ED27
:10590000057AA7EE878A28EE08CA84ED1C8AB0EED5
:105910004C0AAAEEAA0A0BF043FBCAEE80BAB0EE1C
:105920004C0AABEEAB0A0BF03BFBDFEDA87AB0EE16
:10593000EB7AB4EE677AF1EE10FA09DCC8EE00AA51
:10594000B0EEEA7AB4EE677AF1EE10FA40F36882CC
:10595000DFED96AA97ED010A97ED007AD7ED027A6E
:10596000D5ED08BA20EE000AA7EE070AA7EEA70AAF
:105970000BF016FBD5ED097AF4EEE97AF1EE10FAA8
:10598000B4EEC90A48BFC5ED099AF1EE10FAB0EEBF
:1059900040CA00F12782DFED957AB4EEE70AF1EE16
:1059A00010FA00F32282C0EE097A6BEEAABA95EDE6
:1059B000098A94ED1E0A6BEEA77A20EE000A27EE04
:1059C000888AD4ED1D7AA7EEA70A0BF0E9FAF1EE6A
:1059D000007AB4EEE70AF1EE10FA9DBFF1EE027A1A
:1059E00077EEC07A9FED7A0ADFED7A7A336898BF56
:1059F00067EE807AD90768EE277A58BFB2EE007A50
:105A0000C8ED027A58BF67EE877AA9EB0A0358BF40
:105A1000C8ED027A07EE903A9FED6F7AF8EE677A5A
:105A200067EE877AB0EE007AF4EEC77AF1EE10FAFC
:105A300005D5B4EECACAF1EE10FA00F10982D4ED30
:105A4000207AB4F88430F0EEEAAA7AEEA7AA0133FD
:105A5000C4ED20AAA4F88430604AD5ED01BAB2F9A9
:105A60000030D5ED006AD5ED04AA5B4207EE903A0E
:105A7000B2F902305B4208EE103AB8EEC88AB2F9C9
:105A80000430B8EEE77A68EE2BBA5B4207EE903A44
:105A9000E6EE87BAF8EEE77AD5ED026A68EE2AAA52
:105AA000E6EEA7BAD5ED036AC4ED1DBAE7EE26AA65
:105AB000D5ED056AE7EEA6AAD5ED076AC4ED1EAAE4
:105AC00028EE268AD5ED066AA7EE268A95ED087A95
:105AD000A7EE878AD4ED227A84ED1F8A3BEE27BA9F
:105AE000DFED3F7A84ED22BA6AEEA7AA6BEEA7BA81
:105AF0006AEEAACA28EE278AB0EE6C0AABEEAB0AB1
:105B0000A8EE080A0BF04CFA8BEE80CAB0EE6C0AD5
